{"contracts/MedVaultRegistry.sol":{"MedVaultRegistry":{"abi":[{"inputs":[],"stateMutability":"nonpayable","type":"constructor"},{"anonymous":false,"inputs":[{"indexed":true,"internalType":"uint256","name":"grantId","type":"uint256"},{"indexed":true,"internalType":"address","name":"grantee","type":"address"},{"indexed":false,"internalType":"bytes32[]","name":"recordIds","type":"bytes32[]"},{"indexed":false,"internalType":"uint256","name":"expiresAt","type":"uint256"}],"name":"AccessGranted","type":"event"},{"anonymous":false,"inputs":[{"indexed":true,"internalType":"uint256","name":"grantId","type":"uint256"},{"indexed":true,"internalType":"address","name":"grantee","type":"address"}],"name":"AccessRevoked","type":"event"},{"anonymous":false,"inputs":[{"indexed":true,"internalType":"bytes32","name":"id","type":"bytes32"},{"indexed":false,"internalType":"string","name":"ipfsCid","type":"string"},{"indexed":false,"internalType":"string","name":"recordType","type":"string"},{"indexed":false,"internalType":"string","name":"title","type":"string"},{"indexed":false,"internalType":"uint256","name":"timestamp","type":"uint256"}],"name":"RecordAdded","type":"event"},{"anonymous":false,"inputs":[{"indexed":true,"internalType":"bytes32","name":"id","type":"bytes32"}],"name":"RecordRemoved","type":"event"},{"inputs":[{"internalType":"address","name":"grantee","type":"address"}],"name":"accessibleRecords","outputs":[{"internalType":"bytes32[]","name":"","type":"bytes32[]"}],"stateMutability":"view","type":"function"},{"inputs":[{"internalType":"bytes32","name":"id","type":"bytes32"},{"internalType":"string","name":"cid","type":"string"},{"internalType":"string","name":"rType","type":"string"},{"internalType":"string","name":"title","type":"string"}],"name":"addRecord","outputs":[],"stateMutability":"nonpayable","type":"function"},{"inputs":[{"internalType":"address","name":"grantee","type":"address"},{"internalType":"bytes32","name":"recordId","type":"bytes32"}],"name":"canAccess","outputs":[{"internalType":"bool","name":"","type":"bool"}],"stateMutability":"view","type":"function"},{"inputs":[],"name":"getGrantCount","outputs":[{"internalType":"uint256","name":"","type":"uint256"}],"stateMutability":"view","type":"function"},{"inputs":[{"internalType":"uint256","name":"grantId","type":"uint256"}],"name":"getGrantRecordIds","outputs":[{"internalType":"bytes32[]","name":"","type":"bytes32[]"}],"stateMutability":"view","type":"function"},{"inputs":[],"name":"getRecordCount","outputs":[{"internalType":"uint256","name":"","type":"uint256"}],"stateMutability":"view","type":"function"},{"inputs":[{"internalType":"uint256","name":"offset","type":"uint256"},{"internalType":"uint256","name":"limit","type":"uint256"}],"name":"getRecordIds","outputs":[{"internalType":"bytes32[]","name":"","type":"bytes32[]"}],"stateMutability":"view","type":"function"},{"inputs":[{"internalType":"address","name":"grantee","type":"address"},{"internalType":"bytes32[]","name":"rIds","type":"bytes32[]"},{"internalType":"uint256","name":"expiresAt","type":"uint256"}],"name":"grantAccess","outputs":[{"internalType":"uint256","name":"grantId","type":"uint256"}],"stateMutability":"nonpayable","type":"function"},{"inputs":[],"name":"grantCount","outputs":[{"internalType":"uint256","name":"","type":"uint256"}],"stateMutability":"view","type":"function"},{"inputs":[{"internalType":"uint256","name":"","type":"uint256"}],"name":"grants","outputs":[{"internalType":"address","name":"grantee","type":"address"},{"internalType":"uint256","name":"expiresAt","type":"uint256"},{"internalType":"bool","name":"active","type":"bool"}],"stateMutability":"view","type":"function"},{"inputs":[],"name":"owner","outputs":[{"internalType":"address","name":"","type":"address"}],"stateMutability":"view","type":"function"},{"inputs":[{"internalType":"uint256","name":"","type":"uint256"}],"name":"recordIds","outputs":[{"internalType":"bytes32","name":"","type":"bytes32"}],"stateMutability":"view","type":"function"},{"inputs":[{"internalType":"bytes32","name":"","type":"bytes32"}],"name":"records","outputs":[{"internalType":"bytes32","name":"contentHash","type":"bytes32"},{"internalType":"string","name":"ipfsCid","type":"string"},{"internalType":"string","name":"recordType","type":"string"},{"internalType":"string","name":"title","type":"string"},{"internalType":"uint256","name":"timestamp","type":"uint256"},{"internalType":"bool","name":"active","type":"bool"}],"stateMutability":"view","type":"function"},{"inputs":[{"internalType":"bytes32","name":"id","type":"bytes32"}],"name":"removeRecord","outputs":[],"stateMutability":"nonpayable","type":"function"},{"inputs":[{"internalType":"uint256","name":"grantId","type":"uint256"}],"name":"revokeAccess","outputs":[],"stateMutability":"nonpayable","type":"function"}],"evm":{"bytecode":{"linkReferences":{},"object":"608060405234801561001057600080fd5b50600080546001600160a01b031916331790556114eb806100326000396000f3fe608060405234801561001057600080fd5b50600436106100f55760003560e01c80637c1b6afe11610097578063cab4267211610066578063cab4267214610266578063e1b97d691461026f578063eea5d10914610282578063fb89b9391461029557600080fd5b80637c1b6afe146102185780638da5cb5b1461022057806397ddbef91461024b578063ca267f281461025e57600080fd5b806310083a9f116100d357806310083a9f146101a15780631f9df00a146101c15780634a0e0382146101e25780634f3cefa9146101f557600080fd5b806301e64725146100fa5780630bc36d1e146101285780630c0debea1461013d575b600080fd5b61010d610108366004610efc565b6102a8565b60405161011f96959493929190610f5b565b60405180910390f35b61013b610136366004610efc565b610478565b005b61017a61014b366004610efc565b60036020819052600091825260409091208054600282015491909201546001600160a01b039092169160ff1683565b604080516001600160a01b039094168452602084019290925215159082015260600161011f565b6101b46101af366004610efc565b610565565b60405161011f9190610fb5565b6101d46101cf366004611015565b6105ca565b60405190815260200161011f565b6101b46101f03660046110a1565b6107bc565b6102086102033660046110c3565b610899565b604051901515815260200161011f565b6004546101d4565b600054610233906001600160a01b031681565b6040516001600160a01b03909116815260200161011f565b6101d4610259366004610efc565b610977565b6002546101d4565b6101d460045481565b61013b61027d366004610efc565b610998565b61013b610290366004611136565b610a79565b6101b46102a33660046111da565b610ccc565b6001602081905260009182526040909120805491810180546102c9906111fc565b80601f01602080910402602001604051908101604052809291908181526020018280546102f5906111fc565b80156103425780601f1061031757610100808354040283529160200191610342565b820191906000526020600020905b81548152906001019060200180831161032557829003601f168201915b505050505090806002018054610357906111fc565b80601f0160208091040260200160405190810160405280929190818152602001828054610383906111fc565b80156103d05780601f106103a5576101008083540402835291602001916103d0565b820191906000526020600020905b8154815290600101906020018083116103b357829003601f168201915b5050505050908060030180546103e5906111fc565b80601f0160208091040260200160405190810160405280929190818152602001828054610411906111fc565b801561045e5780601f106104335761010080835404028352916020019161045e565b820191906000526020600020905b81548152906001019060200180831161044157829003601f168201915b50505050600483015460059093015491929160ff16905086565b6000546001600160a01b031633146104ab5760405162461bcd60e51b81526004016104a290611236565b60405180910390fd5b60008181526001602052604090206005015460ff166105225760405162461bcd60e51b815260206004820152602d60248201527f4d65645661756c743a207265636f7264206e6f7420666f756e64206f7220616c60448201526c1c9958591e481c995b5bdd9959609a1b60648201526084016104a2565b600081815260016020526040808220600501805460ff191690555182917f3813d5e4633aa2a982d4b41c4798354673e514a3dde9fa140a8a32ec1c2208f191a250565b6000818152600360209081526040918290206001018054835181840281018401909452808452606093928301828280156105be57602002820191906000526020600020905b8154815260200190600101908083116105aa575b50505050509050919050565b600080546001600160a01b031633146105f55760405162461bcd60e51b81526004016104a290611236565b6001600160a01b0385166106445760405162461bcd60e51b81526020600482015260166024820152754d65645661756c743a207a65726f206164647265737360501b60448201526064016104a2565b826106915760405162461bcd60e51b815260206004820152601e60248201527f4d65645661756c743a206e6f207265636f72647320737065636966696564000060448201526064016104a2565b600480549060006106a183611283565b9190505590506040518060800160405280866001600160a01b0316815260200185858080602002602001604051908101604052809392919081815260200183836020028082843760009201829052509385525050506020808301869052600160409384018190528583526003825292909120835181546001600160a01b0319166001600160a01b0390911617815583820151805191936107479390850192910190610e9c565b5060408281015160028301556060909201516003909101805460ff1916911515919091179055516001600160a01b0386169082907f1f2e08a4efda97e980d4714b54d2e5079d08337efd4d9646b042c13bc5c5df7e906107ac9088908890889061129c565b60405180910390a3949350505050565b606060006107ca83856112da565b6002549091508111156107dc57506002545b60006107e885836112ed565b67ffffffffffffffff81111561080057610800611300565b604051908082528060200260200182016040528015610829578160200160208202803683370190505b509050845b8281101561088e576002818154811061084957610849611316565b906000526020600020015482878361086191906112ed565b8151811061087157610871611316565b60209081029190910101528061088681611283565b91505061082e565b509150505b92915050565b6000805b60045481101561096d5760008181526003602081905260409091209081015460ff166108c9575061095b565b80546001600160a01b038681169116146108e3575061095b565b600081600201541180156108fa5750806002015442115b15610905575061095b565b60005b6001820154811015610958578482600101828154811061092a5761092a611316565b9060005260206000200154036109465760019350505050610893565b8061095081611283565b915050610908565b50505b8061096581611283565b91505061089d565b5060009392505050565b6002818154811061098757600080fd5b600091825260209091200154905081565b6000546001600160a01b031633146109c25760405162461bcd60e51b81526004016104a290611236565b6000818152600360208190526040909120015460ff16610a245760405162461bcd60e51b815260206004820152601a60248201527f4d65645661756c743a206772616e74206e6f742061637469766500000000000060448201526064016104a2565b600081815260036020819052604080832080549201805460ff19169055516001600160a01b0390911691829184917f125883b94692baebecad9f111ed97ffa626523bbbadc6b0ef85ee1b56b9e52d591a35050565b6000546001600160a01b03163314610aa35760405162461bcd60e51b81526004016104a290611236565b60008781526001602052604090206005015460ff1615610b055760405162461bcd60e51b815260206004820152601f60248201527f4d65645661756c743a207265636f726420616c7265616479206578697374730060448201526064016104a2565b6040518060c0016040528088815260200187878080601f016020809104026020016040519081016040528093929190818152602001838380828437600092019190915250505090825250604080516020601f880181900481028201810190925286815291810191908790879081908401838280828437600092019190915250505090825250604080516020601f8601819004810282018101909252848152918101919085908590819084018382808284376000920182905250938552505042602080850191909152600160409485018190528c84528082529390922084518155918401519192830191610bf991508261137b565b5060408201516002820190610c0e908261137b565b5060608201516003820190610c23908261137b565b506080820151600482015560a0909101516005909101805460ff1916911515919091179055600280546001810182556000919091527f405787fa12a823e0f2b7631cc41b3ba8828b3321ca811111fa75cd3aa3bb5ace0187905560405187907f6b593d51e0ee5fc77b84f4e295285d4befed97879ae2a338d91d906e0b2fe19290610cbb908990899089908990899089904290611464565b60405180910390a250505050505050565b60606000805b600454811015610d5f5760008181526003602081905260409091209081015460ff16610cfe5750610d4d565b80546001600160a01b03868116911614610d185750610d4d565b60008160020154118015610d2f5750806002015442115b15610d3a5750610d4d565b6001810154610d4990846112da565b9250505b80610d5781611283565b915050610cd2565b5060008167ffffffffffffffff811115610d7b57610d7b611300565b604051908082528060200260200182016040528015610da4578160200160208202803683370190505b5090506000805b600454811015610e925760008181526003602081905260409091209081015460ff16610dd75750610e80565b80546001600160a01b03888116911614610df15750610e80565b60008160020154118015610e085750806002015442115b15610e135750610e80565b60005b6001820154811015610e7d57816001018181548110610e3757610e37611316565b9060005260206000200154858580610e4e90611283565b965081518110610e6057610e60611316565b602090810291909101015280610e7581611283565b915050610e16565b50505b80610e8a81611283565b915050610dab565b5090949350505050565b828054828255906000526020600020908101928215610ed7579160200282015b82811115610ed7578251825591602001919060010190610ebc565b50610ee3929150610ee7565b5090565b5b80821115610ee35760008155600101610ee8565b600060208284031215610f0e57600080fd5b5035919050565b6000815180845260005b81811015610f3b57602081850181015186830182015201610f1f565b506000602082860101526020601f19601f83011685010191505092915050565b86815260c060208201526000610f7460c0830188610f15565b8281036040840152610f868188610f15565b90508281036060840152610f9a8187610f15565b6080840195909552505090151560a090910152949350505050565b6020808252825182820181905260009190848201906040850190845b81811015610fed57835183529284019291840191600101610fd1565b50909695505050505050565b80356001600160a01b038116811461101057600080fd5b919050565b6000806000806060858703121561102b57600080fd5b61103485610ff9565b9350602085013567ffffffffffffffff8082111561105157600080fd5b818701915087601f83011261106557600080fd5b81358181111561107457600080fd5b8860208260051b850101111561108957600080fd5b95986020929092019750949560400135945092505050565b600080604083850312156110b457600080fd5b50508035926020909101359150565b600080604083850312156110d657600080fd5b6110df83610ff9565b946020939093013593505050565b60008083601f8401126110ff57600080fd5b50813567ffffffffffffffff81111561111757600080fd5b60208301915083602082850101111561112f57600080fd5b9250929050565b60008060008060008060006080888a03121561115157600080fd5b87359650602088013567ffffffffffffffff8082111561117057600080fd5b61117c8b838c016110ed565b909850965060408a013591508082111561119557600080fd5b6111a18b838c016110ed565b909650945060608a01359150808211156111ba57600080fd5b506111c78a828b016110ed565b989b979a50959850939692959293505050565b6000602082840312156111ec57600080fd5b6111f582610ff9565b9392505050565b600181811c9082168061121057607f821691505b60208210810361123057634e487b7160e01b600052602260045260246000fd5b50919050565b6020808252601d908201527f4d65645661756c743a2063616c6c6572206973206e6f74206f776e6572000000604082015260600190565b634e487b7160e01b600052601160045260246000fd5b6000600182016112955761129561126d565b5060010190565b6040808252810183905260006001600160fb1b038411156112bc57600080fd5b8360051b808660608501376020830193909352500160600192915050565b808201808211156108935761089361126d565b818103818111156108935761089361126d565b634e487b7160e01b600052604160045260246000fd5b634e487b7160e01b600052603260045260246000fd5b601f82111561137657600081815260208120601f850160051c810160208610156113535750805b601f850160051c820191505b818110156113725782815560010161135f565b5050505b505050565b815167ffffffffffffffff81111561139557611395611300565b6113a9816113a384546111fc565b8461132c565b602080601f8311600181146113de57600084156113c65750858301515b600019600386901b1c1916600185901b178555611372565b600085815260208120601f198616915b8281101561140d578886015182559484019460019091019084016113ee565b508582101561142b5787850151600019600388901b60f8161c191681555b5050505050600190811b01905550565b81835281816020850137506000828201602090810191909152601f909101601f19169091010190565b60808152600061147860808301898b61143b565b828103602084015261148b81888a61143b565b905082810360408401526114a081868861143b565b9150508260608301529897505050505050505056fea26469706673582212201df4bc1b42ac193b32af8d7ab184a6bf8c7110250b6773af732a6f604631e1fe64736f6c63430008140033","opcodes":"PUSH1 0x80 PUSH1 0x40 MSTORE CALLVALUE DUP1 ISZERO PUSH2 0x10 JUMPI PUSH1 0x0 DUP1 REVERT JUMPDEST POP PUSH1 0x0 DUP1 SLOAD PUSH1 0x1 PUSH1 0x1 PUSH1 0xA0 SHL SUB NOT AND CALLER OR SWAP1 SSTORE PUSH2 0x14EB DUP1 PUSH2 0x32 PUSH1 0x0 CODECOPY PUSH1 0x0 RETURN INVALID PUSH1 0x80 PUSH1 0x40 MSTORE CALLVALUE DUP1 ISZERO PUSH2 0x10 JUMPI PUSH1 0x0 DUP1 REVERT JUMPDEST POP PUSH1 0x4 CALLDATASIZE LT PUSH2 0xF5 JUMPI PUSH1 0x0 CALLDATALOAD PUSH1 0xE0 SHR DUP1 PUSH4 0x7C1B6AFE GT PUSH2 0x97 JUMPI DUP1 PUSH4 0xCAB42672 GT PUSH2 0x66 JUMPI DUP1 PUSH4 0xCAB42672 EQ PUSH2 0x266 JUMPI DUP1 PUSH4 0xE1B97D69 EQ PUSH2 0x26F JUMPI DUP1 PUSH4 0xEEA5D109 EQ PUSH2 0x282 JUMPI DUP1 PUSH4 0xFB89B939 EQ PUSH2 0x295 JUMPI PUSH1 0x0 DUP1 REVERT JUMPDEST DUP1 PUSH4 0x7C1B6AFE EQ PUSH2 0x218 JUMPI DUP1 PUSH4 0x8DA5CB5B EQ PUSH2 0x220 JUMPI DUP1 PUSH4 0x97DDBEF9 EQ PUSH2 0x24B JUMPI DUP1 PUSH4 0xCA267F28 EQ PUSH2 0x25E JUMPI PUSH1 0x0 DUP1 REVERT JUMPDEST DUP1 PUSH4 0x10083A9F GT PUSH2 0xD3 JUMPI DUP1 PUSH4 0x10083A9F EQ PUSH2 0x1A1 JUMPI DUP1 PUSH4 0x1F9DF00A EQ PUSH2 0x1C1 JUMPI DUP1 PUSH4 0x4A0E0382 EQ PUSH2 0x1E2 JUMPI DUP1 PUSH4 0x4F3CEFA9 EQ PUSH2 0x1F5 JUMPI PUSH1 0x0 DUP1 REVERT JUMPDEST DUP1 PUSH4 0x1E64725 EQ PUSH2 0xFA JUMPI DUP1 PUSH4 0xBC36D1E EQ PUSH2 0x128 JUMPI DUP1 PUSH4 0xC0DEBEA EQ PUSH2 0x13D JUMPI JUMPDEST PUSH1 0x0 DUP1 REVERT JUMPDEST PUSH2 0x10D PUSH2 0x108 CALLDATASIZE PUSH1 0x4 PUSH2 0xEFC JUMP JUMPDEST PUSH2 0x2A8 JUMP JUMPDEST PUSH1 0x40 MLOAD PUSH2 0x11F SWAP7 SWAP6 SWAP5 SWAP4 SWAP3 SWAP2 SWAP1 PUSH2 0xF5B JUMP JUMPDEST PUSH1 0x40 MLOAD DUP1 SWAP2 SUB SWAP1 RETURN JUMPDEST PUSH2 0x13B PUSH2 0x136 CALLDATASIZE PUSH1 0x4 PUSH2 0xEFC JUMP JUMPDEST PUSH2 0x478 JUMP JUMPDEST STOP JUMPDEST PUSH2 0x17A PUSH2 0x14B CALLDATASIZE PUSH1 0x4 PUSH2 0xEFC JUMP JUMPDEST PUSH1 0x3 PUSH1 0x20 DUP2 SWAP1 MSTORE PUSH1 0x0 SWAP2 DUP3 MSTORE PUSH1 0x40 SWAP1 SWAP2 KECCAK256 DUP1 SLOAD PUSH1 0x2 DUP3 ADD SLOAD SWAP2 SWAP1 SWAP3 ADD SLOAD PUSH1 0x1 PUSH1 0x1 PUSH1 0xA0 SHL SUB SWAP1 SWAP3 AND SWAP2 PUSH1 0xFF AND DUP4 JUMP JUMPDEST PUSH1 0x40 DUP1 MLOAD PUSH1 0x1 PUSH1 0x1 PUSH1 0xA0 SHL SUB SWAP1 SWAP5 AND DUP5 MSTORE PUSH1 0x20 DUP5 ADD SWAP3 SWAP1 SWAP3 MSTORE ISZERO ISZERO SWAP1 DUP3 ADD MSTORE PUSH1 0x60 ADD PUSH2 0x11F JUMP JUMPDEST PUSH2 0x1B4 PUSH2 0x1AF CALLDATASIZE PUSH1 0x4 PUSH2 0xEFC JUMP JUMPDEST PUSH2 0x565 JUMP JUMPDEST PUSH1 0x40 MLOAD PUSH2 0x11F SWAP2 SWAP1 PUSH2 0xFB5 JUMP JUMPDEST PUSH2 0x1D4 PUSH2 0x1CF CALLDATASIZE PUSH1 0x4 PUSH2 0x1015 JUMP JUMPDEST PUSH2 0x5CA JUMP JUMPDEST PUSH1 0x40 MLOAD SWAP1 DUP2 MSTORE PUSH1 0x20 ADD PUSH2 0x11F JUMP JUMPDEST PUSH2 0x1B4 PUSH2 0x1F0 CALLDATASIZE PUSH1 0x4 PUSH2 0x10A1 JUMP JUMPDEST PUSH2 0x7BC JUMP JUMPDEST PUSH2 0x208 PUSH2 0x203 CALLDATASIZE PUSH1 0x4 PUSH2 0x10C3 JUMP JUMPDEST PUSH2 0x899 JUMP JUMPDEST PUSH1 0x40 MLOAD SWAP1 ISZERO ISZERO DUP2 MSTORE PUSH1 0x20 ADD PUSH2 0x11F JUMP JUMPDEST PUSH1 0x4 SLOAD PUSH2 0x1D4 JUMP JUMPDEST PUSH1 0x0 SLOAD PUSH2 0x233 SWAP1 PUSH1 0x1 PUSH1 0x1 PUSH1 0xA0 SHL SUB AND DUP2 JUMP JUMPDEST PUSH1 0x40 MLOAD PUSH1 0x1 PUSH1 0x1 PUSH1 0xA0 SHL SUB SWAP1 SWAP2 AND DUP2 MSTORE PUSH1 0x20 ADD PUSH2 0x11F JUMP JUMPDEST PUSH2 0x1D4 PUSH2 0x259 CALLDATASIZE PUSH1 0x4 PUSH2 0xEFC JUMP JUMPDEST PUSH2 0x977 JUMP JUMPDEST PUSH1 0x2 SLOAD PUSH2 0x1D4 JUMP JUMPDEST PUSH2 0x1D4 PUSH1 0x4 SLOAD DUP2 JUMP JUMPDEST PUSH2 0x13B PUSH2 0x27D CALLDATASIZE PUSH1 0x4 PUSH2 0xEFC JUMP JUMPDEST PUSH2 0x998 JUMP JUMPDEST PUSH2 0x13B PUSH2 0x290 CALLDATASIZE PUSH1 0x4 PUSH2 0x1136 JUMP JUMPDEST PUSH2 0xA79 JUMP JUMPDEST PUSH2 0x1B4 PUSH2 0x2A3 CALLDATASIZE PUSH1 0x4 PUSH2 0x11DA JUMP JUMPDEST PUSH2 0xCCC JUMP JUMPDEST PUSH1 0x1 PUSH1 0x20 DUP2 SWAP1 MSTORE PUSH1 0x0 SWAP2 DUP3 MSTORE PUSH1 0x40 SWAP1 SWAP2 KECCAK256 DUP1 SLOAD SWAP2 DUP2 ADD DUP1 SLOAD PUSH2 0x2C9 SWAP1 PUSH2 0x11FC JUMP JUMPDEST DUP1 PUSH1 0x1F ADD PUSH1 0x20 DUP1 SWAP2 DIV MUL PUSH1 0x20 ADD PUSH1 0x40 MLOAD SWAP1 DUP2 ADD PUSH1 0x40 MSTORE DUP1 SWAP3 SWAP2 SWAP1 DUP2 DUP2 MSTORE PUSH1 0x20 ADD DUP3 DUP1 SLOAD PUSH2 0x2F5 SWAP1 PUSH2 0x11FC JUMP JUMPDEST DUP1 ISZERO PUSH2 0x342 JUMPI DUP1 PUSH1 0x1F LT PUSH2 0x317 JUMPI PUSH2 0x100 DUP1 DUP4 SLOAD DIV MUL DUP4 MSTORE SWAP2 PUSH1 0x20 ADD SWAP2 PUSH2 0x342 JUMP JUMPDEST DUP3 ADD SWAP2 SWAP1 PUSH1 0x0 MSTORE PUSH1 0x20 PUSH1 0x0 KECCAK256 SWAP1 JUMPDEST DUP2 SLOAD DUP2 MSTORE SWAP1 PUSH1 0x1 ADD SWAP1 PUSH1 0x20 ADD DUP1 DUP4 GT PUSH2 0x325 JUMPI DUP3 SWAP1 SUB PUSH1 0x1F AND DUP3 ADD SWAP2 JUMPDEST POP POP POP POP POP SWAP1 DUP1 PUSH1 0x2 ADD DUP1 SLOAD PUSH2 0x357 SWAP1 PUSH2 0x11FC JUMP JUMPDEST DUP1 PUSH1 0x1F ADD PUSH1 0x20 DUP1 SWAP2 DIV MUL PUSH1 0x20 ADD PUSH1 0x40 MLOAD SWAP1 DUP2 ADD PUSH1 0x40 MSTORE DUP1 SWAP3 SWAP2 SWAP1 DUP2 DUP2 MSTORE PUSH1 0x20 ADD DUP3 DUP1 SLOAD PUSH2 0x383 SWAP1 PUSH2 0x11FC JUMP JUMPDEST DUP1 ISZERO PUSH2 0x3D0 JUMPI DUP1 PUSH1 0x1F LT PUSH2 0x3A5 JUMPI PUSH2 0x100 DUP1 DUP4 SLOAD DIV MUL DUP4 MSTORE SWAP2 PUSH1 0x20 ADD SWAP2 PUSH2 0x3D0 JUMP JUMPDEST DUP3 ADD SWAP2 SWAP1 PUSH1 0x0 MSTORE PUSH1 0x20 PUSH1 0x0 KECCAK256 SWAP1 JUMPDEST DUP2 SLOAD DUP2 MSTORE SWAP1 PUSH1 0x1 ADD SWAP1 PUSH1 0x20 ADD DUP1 DUP4 GT PUSH2 0x3B3 JUMPI DUP3 SWAP1 SUB PUSH1 0x1F AND DUP3 ADD SWAP2 JUMPDEST POP POP POP POP POP SWAP1 DUP1 PUSH1 0x3 ADD DUP1 SLOAD PUSH2 0x3E5 SWAP1 PUSH2 0x11FC JUMP JUMPDEST DUP1 PUSH1 0x1F ADD PUSH1 0x20 DUP1 SWAP2 DIV MUL PUSH1 0x20 ADD PUSH1 0x40 MLOAD SWAP1 DUP2 ADD PUSH1 0x40 MSTORE DUP1 SWAP3 SWAP2 SWAP1 DUP2 DUP2 MSTORE PUSH1 0x20 ADD DUP3 DUP1 SLOAD PUSH2 0x411 SWAP1 PUSH2 0x11FC JUMP JUMPDEST DUP1 ISZERO PUSH2 0x45E JUMPI DUP1 PUSH1 0x1F LT PUSH2 0x433 JUMPI PUSH2 0x100 DUP1 DUP4 SLOAD DIV MUL DUP4 MSTORE SWAP2 PUSH1 0x20 ADD SWAP2 PUSH2 0x45E JUMP JUMPDEST DUP3 ADD SWAP2 SWAP1 PUSH1 0x0 MSTORE PUSH1 0x20 PUSH1 0x0 KECCAK256 SWAP1 JUMPDEST DUP2 SLOAD DUP2 MSTORE SWAP1 PUSH1 0x1 ADD SWAP1 PUSH1 0x20 ADD DUP1 DUP4 GT PUSH2 0x441 JUMPI DUP3 SWAP1 SUB PUSH1 0x1F AND DUP3 ADD SWAP2 JUMPDEST POP POP POP POP PUSH1 0x4 DUP4 ADD SLOAD PUSH1 0x5 SWAP1 SWAP4 ADD SLOAD SWAP2 SWAP3 SWAP2 PUSH1 0xFF AND SWAP1 POP DUP7 JUMP JUMPDEST PUSH1 0x0 SLOAD PUSH1 0x1 PUSH1 0x1 PUSH1 0xA0 SHL SUB AND CALLER EQ PUSH2 0x4AB JUMPI PUSH1 0x40 MLOAD PUSH3 0x461BCD PUSH1 0xE5 SHL DUP2 MSTORE PUSH1 0x4 ADD PUSH2 0x4A2 SWAP1 PUSH2 0x1236 JUMP JUMPDEST PUSH1 0x40 MLOAD DUP1 SWAP2 SUB SWAP1 REVERT JUMPDEST PUSH1 0x0 DUP2 DUP2 MSTORE PUSH1 0x1 PUSH1 0x20 MSTORE PUSH1 0x40 SWAP1 KECCAK256 PUSH1 0x5 ADD SLOAD PUSH1 0xFF AND PUSH2 0x522 JUMPI PUSH1 0x40 MLOAD PUSH3 0x461BCD PUSH1 0xE5 SHL DUP2 MSTORE PUSH1 0x20 PUSH1 0x4 DUP3 ADD MSTORE PUSH1 0x2D PUSH1 0x24 DUP3 ADD MSTORE PUSH32 0x4D65645661756C743A207265636F7264206E6F7420666F756E64206F7220616C PUSH1 0x44 DUP3 ADD MSTORE PUSH13 0x1C9958591E481C995B5BDD9959 PUSH1 0x9A SHL PUSH1 0x64 DUP3 ADD MSTORE PUSH1 0x84 ADD PUSH2 0x4A2 JUMP JUMPDEST PUSH1 0x0 DUP2 DUP2 MSTORE PUSH1 0x1 PUSH1 0x20 MSTORE PUSH1 0x40 DUP1 DUP3 KECCAK256 PUSH1 0x5 ADD DUP1 SLOAD PUSH1 0xFF NOT AND SWAP1 SSTORE MLOAD DUP3 SWAP2 PUSH32 0x3813D5E4633AA2A982D4B41C4798354673E514A3DDE9FA140A8A32EC1C2208F1 SWAP2 LOG2 POP JUMP JUMPDEST PUSH1 0x0 DUP2 DUP2 MSTORE PUSH1 0x3 PUSH1 0x20 SWAP1 DUP2 MSTORE PUSH1 0x40 SWAP2 DUP3 SWAP1 KECCAK256 PUSH1 0x1 ADD DUP1 SLOAD DUP4 MLOAD DUP2 DUP5 MUL DUP2 ADD DUP5 ADD SWAP1 SWAP5 MSTORE DUP1 DUP5 MSTORE PUSH1 0x60 SWAP4 SWAP3 DUP4 ADD DUP3 DUP3 DUP1 ISZERO PUSH2 0x5BE JUMPI PUSH1 0x20 MUL DUP3 ADD SWAP2 SWAP1 PUSH1 0x0 MSTORE PUSH1 0x20 PUSH1 0x0 KECCAK256 SWAP1 JUMPDEST DUP2 SLOAD DUP2 MSTORE PUSH1 0x20 ADD SWAP1 PUSH1 0x1 ADD SWAP1 DUP1 DUP4 GT PUSH2 0x5AA JUMPI JUMPDEST POP POP POP POP POP SWAP1 POP SWAP2 SWAP1 POP JUMP JUMPDEST PUSH1 0x0 DUP1 SLOAD PUSH1 0x1 PUSH1 0x1 PUSH1 0xA0 SHL SUB AND CALLER EQ PUSH2 0x5F5 JUMPI PUSH1 0x40 MLOAD PUSH3 0x461BCD PUSH1 0xE5 SHL DUP2 MSTORE PUSH1 0x4 ADD PUSH2 0x4A2 SWAP1 PUSH2 0x1236 JUMP JUMPDEST PUSH1 0x1 PUSH1 0x1 PUSH1 0xA0 SHL SUB DUP6 AND PUSH2 0x644 JUMPI PUSH1 0x40 MLOAD PUSH3 0x461BCD PUSH1 0xE5 SHL DUP2 MSTORE PUSH1 0x20 PUSH1 0x4 DUP3 ADD MSTORE PUSH1 0x16 PUSH1 0x24 DUP3 ADD MSTORE PUSH22 0x4D65645661756C743A207A65726F2061646472657373 PUSH1 0x50 SHL PUSH1 0x44 DUP3 ADD MSTORE PUSH1 0x64 ADD PUSH2 0x4A2 JUMP JUMPDEST DUP3 PUSH2 0x691 JUMPI PUSH1 0x40 MLOAD PUSH3 0x461BCD PUSH1 0xE5 SHL DUP2 MSTORE PUSH1 0x20 PUSH1 0x4 DUP3 ADD MSTORE PUSH1 0x1E PUSH1 0x24 DUP3 ADD MSTORE PUSH32 0x4D65645661756C743A206E6F207265636F726473207370656369666965640000 PUSH1 0x44 DUP3 ADD MSTORE PUSH1 0x64 ADD PUSH2 0x4A2 JUMP JUMPDEST PUSH1 0x4 DUP1 SLOAD SWAP1 PUSH1 0x0 PUSH2 0x6A1 DUP4 PUSH2 0x1283 JUMP JUMPDEST SWAP2 SWAP1 POP SSTORE SWAP1 POP PUSH1 0x40 MLOAD DUP1 PUSH1 0x80 ADD PUSH1 0x40 MSTORE DUP1 DUP7 PUSH1 0x1 PUSH1 0x1 PUSH1 0xA0 SHL SUB AND DUP2 MSTORE PUSH1 0x20 ADD DUP6 DUP6 DUP1 DUP1 PUSH1 0x20 MUL PUSH1 0x20 ADD PUSH1 0x40 MLOAD SWAP1 DUP2 ADD PUSH1 0x40 MSTORE DUP1 SWAP4 SWAP3 SWAP2 SWAP1 DUP2 DUP2 MSTORE PUSH1 0x20 ADD DUP4 DUP4 PUSH1 0x20 MUL DUP1 DUP3 DUP5 CALLDATACOPY PUSH1 0x0 SWAP3 ADD DUP3 SWAP1 MSTORE POP SWAP4 DUP6 MSTORE POP POP POP PUSH1 0x20 DUP1 DUP4 ADD DUP7 SWAP1 MSTORE PUSH1 0x1 PUSH1 0x40 SWAP4 DUP5 ADD DUP2 SWAP1 MSTORE DUP6 DUP4 MSTORE PUSH1 0x3 DUP3 MSTORE SWAP3 SWAP1 SWAP2 KECCAK256 DUP4 MLOAD DUP2 SLOAD PUSH1 0x1 PUSH1 0x1 PUSH1 0xA0 SHL SUB NOT AND PUSH1 0x1 PUSH1 0x1 PUSH1 0xA0 SHL SUB SWAP1 SWAP2 AND OR DUP2 SSTORE DUP4 DUP3 ADD MLOAD DUP1 MLOAD SWAP2 SWAP4 PUSH2 0x747 SWAP4 SWAP1 DUP6 ADD SWAP3 SWAP2 ADD SWAP1 PUSH2 0xE9C JUMP JUMPDEST POP PUSH1 0x40 DUP3 DUP2 ADD MLOAD PUSH1 0x2 DUP4 ADD SSTORE PUSH1 0x60 SWAP1 SWAP3 ADD MLOAD PUSH1 0x3 SWAP1 SWAP2 ADD DUP1 SLOAD PUSH1 0xFF NOT AND SWAP2 ISZERO ISZERO SWAP2 SWAP1 SWAP2 OR SWAP1 SSTORE MLOAD PUSH1 0x1 PUSH1 0x1 PUSH1 0xA0 SHL SUB DUP7 AND SWAP1 DUP3 SWAP1 PUSH32 0x1F2E08A4EFDA97E980D4714B54D2E5079D08337EFD4D9646B042C13BC5C5DF7E SWAP1 PUSH2 0x7AC SWAP1 DUP9 SWAP1 DUP9 SWAP1 DUP9 SWAP1 PUSH2 0x129C JUMP JUMPDEST PUSH1 0x40 MLOAD DUP1 SWAP2 SUB SWAP1 LOG3 SWAP5 SWAP4 POP POP POP POP JUMP JUMPDEST PUSH1 0x60 PUSH1 0x0 PUSH2 0x7CA DUP4 DUP6 PUSH2 0x12DA JUMP JUMPDEST PUSH1 0x2 SLOAD SWAP1 SWAP2 POP DUP2 GT ISZERO PUSH2 0x7DC JUMPI POP PUSH1 0x2 SLOAD JUMPDEST PUSH1 0x0 PUSH2 0x7E8 DUP6 DUP4 PUSH2 0x12ED JUMP JUMPDEST PUSH8 0xFFFFFFFFFFFFFFFF DUP2 GT ISZERO PUSH2 0x800 JUMPI PUSH2 0x800 PUSH2 0x1300 JUMP JUMPDEST PUSH1 0x40 MLOAD SWAP1 DUP1 DUP3 MSTORE DUP1 PUSH1 0x20 MUL PUSH1 0x20 ADD DUP3 ADD PUSH1 0x40 MSTORE DUP1 ISZERO PUSH2 0x829 JUMPI DUP2 PUSH1 0x20 ADD PUSH1 0x20 DUP3 MUL DUP1 CALLDATASIZE DUP4 CALLDATACOPY ADD SWAP1 POP JUMPDEST POP SWAP1 POP DUP5 JUMPDEST DUP3 DUP2 LT ISZERO PUSH2 0x88E JUMPI PUSH1 0x2 DUP2 DUP2 SLOAD DUP2 LT PUSH2 0x849 JUMPI PUSH2 0x849 PUSH2 0x1316 JUMP JUMPDEST SWAP1 PUSH1 0x0 MSTORE PUSH1 0x20 PUSH1 0x0 KECCAK256 ADD SLOAD DUP3 DUP8 DUP4 PUSH2 0x861 SWAP2 SWAP1 PUSH2 0x12ED JUMP JUMPDEST DUP2 MLOAD DUP2 LT PUSH2 0x871 JUMPI PUSH2 0x871 PUSH2 0x1316 JUMP JUMPDEST PUSH1 0x20 SWAP1 DUP2 MUL SWAP2 SWAP1 SWAP2 ADD ADD MSTORE DUP1 PUSH2 0x886 DUP2 PUSH2 0x1283 JUMP JUMPDEST SWAP2 POP POP PUSH2 0x82E JUMP JUMPDEST POP SWAP2 POP POP JUMPDEST SWAP3 SWAP2 POP POP JUMP JUMPDEST PUSH1 0x0 DUP1 JUMPDEST PUSH1 0x4 SLOAD DUP2 LT ISZERO PUSH2 0x96D JUMPI PUSH1 0x0 DUP2 DUP2 MSTORE PUSH1 0x3 PUSH1 0x20 DUP2 SWAP1 MSTORE PUSH1 0x40 SWAP1 SWAP2 KECCAK256 SWAP1 DUP2 ADD SLOAD PUSH1 0xFF AND PUSH2 0x8C9 JUMPI POP PUSH2 0x95B JUMP JUMPDEST DUP1 SLOAD PUSH1 0x1 PUSH1 0x1 PUSH1 0xA0 SHL SUB DUP7 DUP2 AND SWAP2 AND EQ PUSH2 0x8E3 JUMPI POP PUSH2 0x95B JUMP JUMPDEST PUSH1 0x0 DUP2 PUSH1 0x2 ADD SLOAD GT DUP1 ISZERO PUSH2 0x8FA JUMPI POP DUP1 PUSH1 0x2 ADD SLOAD TIMESTAMP GT JUMPDEST ISZERO PUSH2 0x905 JUMPI POP PUSH2 0x95B JUMP JUMPDEST PUSH1 0x0 JUMPDEST PUSH1 0x1 DUP3 ADD SLOAD DUP2 LT ISZERO PUSH2 0x958 JUMPI DUP5 DUP3 PUSH1 0x1 ADD DUP3 DUP2 SLOAD DUP2 LT PUSH2 0x92A JUMPI PUSH2 0x92A PUSH2 0x1316 JUMP JUMPDEST SWAP1 PUSH1 0x0 MSTORE PUSH1 0x20 PUSH1 0x0 KECCAK256 ADD SLOAD SUB PUSH2 0x946 JUMPI PUSH1 0x1 SWAP4 POP POP POP POP PUSH2 0x893 JUMP JUMPDEST DUP1 PUSH2 0x950 DUP2 PUSH2 0x1283 JUMP JUMPDEST SWAP2 POP POP PUSH2 0x908 JUMP JUMPDEST POP POP JUMPDEST DUP1 PUSH2 0x965 DUP2 PUSH2 0x1283 JUMP JUMPDEST SWAP2 POP POP PUSH2 0x89D JUMP JUMPDEST POP PUSH1 0x0 SWAP4 SWAP3 POP POP POP JUMP JUMPDEST PUSH1 0x2 DUP2 DUP2 SLOAD DUP2 LT PUSH2 0x987 JUMPI PUSH1 0x0 DUP1 REVERT JUMPDEST PUSH1 0x0 SWAP2 DUP3 MSTORE PUSH1 0x20 SWAP1 SWAP2 KECCAK256 ADD SLOAD SWAP1 POP DUP2 JUMP JUMPDEST PUSH1 0x0 SLOAD PUSH1 0x1 PUSH1 0x1 PUSH1 0xA0 SHL SUB AND CALLER EQ PUSH2 0x9C2 JUMPI PUSH1 0x40 MLOAD PUSH3 0x461BCD PUSH1 0xE5 SHL DUP2 MSTORE PUSH1 0x4 ADD PUSH2 0x4A2 SWAP1 PUSH2 0x1236 JUMP JUMPDEST PUSH1 0x0 DUP2 DUP2 MSTORE PUSH1 0x3 PUSH1 0x20 DUP2 SWAP1 MSTORE PUSH1 0x40 SWAP1 SWAP2 KECCAK256 ADD SLOAD PUSH1 0xFF AND PUSH2 0xA24 JUMPI PUSH1 0x40 MLOAD PUSH3 0x461BCD PUSH1 0xE5 SHL DUP2 MSTORE PUSH1 0x20 PUSH1 0x4 DUP3 ADD MSTORE PUSH1 0x1A PUSH1 0x24 DUP3 ADD MSTORE PUSH32 0x4D65645661756C743A206772616E74206E6F7420616374697665000000000000 PUSH1 0x44 DUP3 ADD MSTORE PUSH1 0x64 ADD PUSH2 0x4A2 JUMP JUMPDEST PUSH1 0x0 DUP2 DUP2 MSTORE PUSH1 0x3 PUSH1 0x20 DUP2 SWAP1 MSTORE PUSH1 0x40 DUP1 DUP4 KECCAK256 DUP1 SLOAD SWAP3 ADD DUP1 SLOAD PUSH1 0xFF NOT AND SWAP1 SSTORE MLOAD PUSH1 0x1 PUSH1 0x1 PUSH1 0xA0 SHL SUB SWAP1 SWAP2 AND SWAP2 DUP3 SWAP2 DUP5 SWAP2 PUSH32 0x125883B94692BAEBECAD9F111ED97FFA626523BBBADC6B0EF85EE1B56B9E52D5 SWAP2 LOG3 POP POP JUMP JUMPDEST PUSH1 0x0 SLOAD PUSH1 0x1 PUSH1 0x1 PUSH1 0xA0 SHL SUB AND CALLER EQ PUSH2 0xAA3 JUMPI PUSH1 0x40 MLOAD PUSH3 0x461BCD PUSH1 0xE5 SHL DUP2 MSTORE PUSH1 0x4 ADD PUSH2 0x4A2 SWAP1 PUSH2 0x1236 JUMP JUMPDEST PUSH1 0x0 DUP8 DUP2 MSTORE PUSH1 0x1 PUSH1 0x20 MSTORE PUSH1 0x40 SWAP1 KECCAK256 PUSH1 0x5 ADD SLOAD PUSH1 0xFF AND ISZERO PUSH2 0xB05 JUMPI PUSH1 0x40 MLOAD PUSH3 0x461BCD PUSH1 0xE5 SHL DUP2 MSTORE PUSH1 0x20 PUSH1 0x4 DUP3 ADD MSTORE PUSH1 0x1F PUSH1 0x24 DUP3 ADD MSTORE PUSH32 0x4D65645661756C743A207265636F726420616C72656164792065786973747300 PUSH1 0x44 DUP3 ADD MSTORE PUSH1 0x64 ADD PUSH2 0x4A2 JUMP JUMPDEST PUSH1 0x40 MLOAD DUP1 PUSH1 0xC0 ADD PUSH1 0x40 MSTORE DUP1 DUP9 DUP2 MSTORE PUSH1 0x20 ADD DUP8 DUP8 DUP1 DUP1 PUSH1 0x1F ADD PUSH1 0x20 DUP1 SWAP2 DIV MUL PUSH1 0x20 ADD PUSH1 0x40 MLOAD SWAP1 DUP2 ADD PUSH1 0x40 MSTORE DUP1 SWAP4 SWAP3 SWAP2 SWAP1 DUP2 DUP2 MSTORE PUSH1 0x20 ADD DUP4 DUP4 DUP1 DUP3 DUP5 CALLDATACOPY PUSH1 0x0 SWAP3 ADD SWAP2 SWAP1 SWAP2 MSTORE POP POP POP SWAP1 DUP3 MSTORE POP PUSH1 0x40 DUP1 MLOAD PUSH1 0x20 PUSH1 0x1F DUP9 ADD DUP2 SWAP1 DIV DUP2 MUL DUP3 ADD DUP2 ADD SWAP1 SWAP3 MSTORE DUP7 DUP2 MSTORE SWAP2 DUP2 ADD SWAP2 SWAP1 DUP8 SWAP1 DUP8 SWAP1 DUP2 SWAP1 DUP5 ADD DUP4 DUP3 DUP1 DUP3 DUP5 CALLDATACOPY PUSH1 0x0 SWAP3 ADD SWAP2 SWAP1 SWAP2 MSTORE POP POP POP SWAP1 DUP3 MSTORE POP PUSH1 0x40 DUP1 MLOAD PUSH1 0x20 PUSH1 0x1F DUP7 ADD DUP2 SWAP1 DIV DUP2 MUL DUP3 ADD DUP2 ADD SWAP1 SWAP3 MSTORE DUP5 DUP2 MSTORE SWAP2 DUP2 ADD SWAP2 SWAP1 DUP6 SWAP1 DUP6 SWAP1 DUP2 SWAP1 DUP5 ADD DUP4 DUP3 DUP1 DUP3 DUP5 CALLDATACOPY PUSH1 0x0 SWAP3 ADD DUP3 SWAP1 MSTORE POP SWAP4 DUP6 MSTORE POP POP TIMESTAMP PUSH1 0x20 DUP1 DUP6 ADD SWAP2 SWAP1 SWAP2 MSTORE PUSH1 0x1 PUSH1 0x40 SWAP5 DUP6 ADD DUP2 SWAP1 MSTORE DUP13 DUP5 MSTORE DUP1 DUP3 MSTORE SWAP4 SWAP1 SWAP3 KECCAK256 DUP5 MLOAD DUP2 SSTORE SWAP2 DUP5 ADD MLOAD SWAP2 SWAP3 DUP4 ADD SWAP2 PUSH2 0xBF9 SWAP2 POP DUP3 PUSH2 0x137B JUMP JUMPDEST POP PUSH1 0x40 DUP3 ADD MLOAD PUSH1 0x2 DUP3 ADD SWAP1 PUSH2 0xC0E SWAP1 DUP3 PUSH2 0x137B JUMP JUMPDEST POP PUSH1 0x60 DUP3 ADD MLOAD PUSH1 0x3 DUP3 ADD SWAP1 PUSH2 0xC23 SWAP1 DUP3 PUSH2 0x137B JUMP JUMPDEST POP PUSH1 0x80 DUP3 ADD MLOAD PUSH1 0x4 DUP3 ADD SSTORE PUSH1 0xA0 SWAP1 SWAP2 ADD MLOAD PUSH1 0x5 SWAP1 SWAP2 ADD DUP1 SLOAD PUSH1 0xFF NOT AND SWAP2 ISZERO ISZERO SWAP2 SWAP1 SWAP2 OR SWAP1 SSTORE PUSH1 0x2 DUP1 SLOAD PUSH1 0x1 DUP2 ADD DUP3 SSTORE PUSH1 0x0 SWAP2 SWAP1 SWAP2 MSTORE PUSH32 0x405787FA12A823E0F2B7631CC41B3BA8828B3321CA811111FA75CD3AA3BB5ACE ADD DUP8 SWAP1 SSTORE PUSH1 0x40 MLOAD DUP8 SWAP1 PUSH32 0x6B593D51E0EE5FC77B84F4E295285D4BEFED97879AE2A338D91D906E0B2FE192 SWAP1 PUSH2 0xCBB SWAP1 DUP10 SWAP1 DUP10 SWAP1 DUP10 SWAP1 DUP10 SWAP1 DUP10 SWAP1 DUP10 SWAP1 TIMESTAMP SWAP1 PUSH2 0x1464 JUMP JUMPDEST PUSH1 0x40 MLOAD DUP1 SWAP2 SUB SWAP1 LOG2 POP POP POP POP POP POP POP JUMP JUMPDEST PUSH1 0x60 PUSH1 0x0 DUP1 JUMPDEST PUSH1 0x4 SLOAD DUP2 LT ISZERO PUSH2 0xD5F JUMPI PUSH1 0x0 DUP2 DUP2 MSTORE PUSH1 0x3 PUSH1 0x20 DUP2 SWAP1 MSTORE PUSH1 0x40 SWAP1 SWAP2 KECCAK256 SWAP1 DUP2 ADD SLOAD PUSH1 0xFF AND PUSH2 0xCFE JUMPI POP PUSH2 0xD4D JUMP JUMPDEST DUP1 SLOAD PUSH1 0x1 PUSH1 0x1 PUSH1 0xA0 SHL SUB DUP7 DUP2 AND SWAP2 AND EQ PUSH2 0xD18 JUMPI POP PUSH2 0xD4D JUMP JUMPDEST PUSH1 0x0 DUP2 PUSH1 0x2 ADD SLOAD GT DUP1 ISZERO PUSH2 0xD2F JUMPI POP DUP1 PUSH1 0x2 ADD SLOAD TIMESTAMP GT JUMPDEST ISZERO PUSH2 0xD3A JUMPI POP PUSH2 0xD4D JUMP JUMPDEST PUSH1 0x1 DUP2 ADD SLOAD PUSH2 0xD49 SWAP1 DUP5 PUSH2 0x12DA JUMP JUMPDEST SWAP3 POP POP JUMPDEST DUP1 PUSH2 0xD57 DUP2 PUSH2 0x1283 JUMP JUMPDEST SWAP2 POP POP PUSH2 0xCD2 JUMP JUMPDEST POP PUSH1 0x0 DUP2 PUSH8 0xFFFFFFFFFFFFFFFF DUP2 GT ISZERO PUSH2 0xD7B JUMPI PUSH2 0xD7B PUSH2 0x1300 JUMP JUMPDEST PUSH1 0x40 MLOAD SWAP1 DUP1 DUP3 MSTORE DUP1 PUSH1 0x20 MUL PUSH1 0x20 ADD DUP3 ADD PUSH1 0x40 MSTORE DUP1 ISZERO PUSH2 0xDA4 JUMPI DUP2 PUSH1 0x20 ADD PUSH1 0x20 DUP3 MUL DUP1 CALLDATASIZE DUP4 CALLDATACOPY ADD SWAP1 POP JUMPDEST POP SWAP1 POP PUSH1 0x0 DUP1 JUMPDEST PUSH1 0x4 SLOAD DUP2 LT ISZERO PUSH2 0xE92 JUMPI PUSH1 0x0 DUP2 DUP2 MSTORE PUSH1 0x3 PUSH1 0x20 DUP2 SWAP1 MSTORE PUSH1 0x40 SWAP1 SWAP2 KECCAK256 SWAP1 DUP2 ADD SLOAD PUSH1 0xFF AND PUSH2 0xDD7 JUMPI POP PUSH2 0xE80 JUMP JUMPDEST DUP1 SLOAD PUSH1 0x1 PUSH1 0x1 PUSH1 0xA0 SHL SUB DUP9 DUP2 AND SWAP2 AND EQ PUSH2 0xDF1 JUMPI POP PUSH2 0xE80 JUMP JUMPDEST PUSH1 0x0 DUP2 PUSH1 0x2 ADD SLOAD GT DUP1 ISZERO PUSH2 0xE08 JUMPI POP DUP1 PUSH1 0x2 ADD SLOAD TIMESTAMP GT JUMPDEST ISZERO PUSH2 0xE13 JUMPI POP PUSH2 0xE80 JUMP JUMPDEST PUSH1 0x0 JUMPDEST PUSH1 0x1 DUP3 ADD SLOAD DUP2 LT ISZERO PUSH2 0xE7D JUMPI DUP2 PUSH1 0x1 ADD DUP2 DUP2 SLOAD DUP2 LT PUSH2 0xE37 JUMPI PUSH2 0xE37 PUSH2 0x1316 JUMP JUMPDEST SWAP1 PUSH1 0x0 MSTORE PUSH1 0x20 PUSH1 0x0 KECCAK256 ADD SLOAD DUP6 DUP6 DUP1 PUSH2 0xE4E SWAP1 PUSH2 0x1283 JUMP JUMPDEST SWAP7 POP DUP2 MLOAD DUP2 LT PUSH2 0xE60 JUMPI PUSH2 0xE60 PUSH2 0x1316 JUMP JUMPDEST PUSH1 0x20 SWAP1 DUP2 MUL SWAP2 SWAP1 SWAP2 ADD ADD MSTORE DUP1 PUSH2 0xE75 DUP2 PUSH2 0x1283 JUMP JUMPDEST SWAP2 POP POP PUSH2 0xE16 JUMP JUMPDEST POP POP JUMPDEST DUP1 PUSH2 0xE8A DUP2 PUSH2 0x1283 JUMP JUMPDEST SWAP2 POP POP PUSH2 0xDAB JUMP JUMPDEST POP SWAP1 SWAP5 SWAP4 POP POP POP POP JUMP JUMPDEST DUP3 DUP1 SLOAD DUP3 DUP3 SSTORE SWAP1 PUSH1 0x0 MSTORE PUSH1 0x20 PUSH1 0x0 KECCAK256 SWAP1 DUP2 ADD SWAP3 DUP3 ISZERO PUSH2 0xED7 JUMPI SWAP2 PUSH1 0x20 MUL DUP3 ADD JUMPDEST DUP3 DUP2 GT ISZERO PUSH2 0xED7 JUMPI DUP3 MLOAD DUP3 SSTORE SWAP2 PUSH1 0x20 ADD SWAP2 SWAP1 PUSH1 0x1 ADD SWAP1 PUSH2 0xEBC JUMP JUMPDEST POP PUSH2 0xEE3 SWAP3 SWAP2 POP PUSH2 0xEE7 JUMP JUMPDEST POP SWAP1 JUMP JUMPDEST JUMPDEST DUP1 DUP3 GT ISZERO PUSH2 0xEE3 JUMPI PUSH1 0x0 DUP2 SSTORE PUSH1 0x1 ADD PUSH2 0xEE8 JUMP JUMPDEST PUSH1 0x0 PUSH1 0x20 DUP3 DUP5 SUB SLT ISZERO PUSH2 0xF0E JUMPI PUSH1 0x0 DUP1 REVERT JUMPDEST POP CALLDATALOAD SWAP2 SWAP1 POP JUMP JUMPDEST PUSH1 0x0 DUP2 MLOAD DUP1 DUP5 MSTORE PUSH1 0x0 JUMPDEST DUP2 DUP2 LT ISZERO PUSH2 0xF3B JUMPI PUSH1 0x20 DUP2 DUP6 ADD DUP2 ADD MLOAD DUP7 DUP4 ADD DUP3 ADD MSTORE ADD PUSH2 0xF1F JUMP JUMPDEST POP PUSH1 0x0 PUSH1 0x20 DUP3 DUP7 ADD ADD MSTORE PUSH1 0x20 PUSH1 0x1F NOT PUSH1 0x1F DUP4 ADD AND DUP6 ADD ADD SWAP2 POP POP SWAP3 SWAP2 POP POP JUMP JUMPDEST DUP7 DUP2 MSTORE PUSH1 0xC0 PUSH1 0x20 DUP3 ADD MSTORE PUSH1 0x0 PUSH2 0xF74 PUSH1 0xC0 DUP4 ADD DUP9 PUSH2 0xF15 JUMP JUMPDEST DUP3 DUP2 SUB PUSH1 0x40 DUP5 ADD MSTORE PUSH2 0xF86 DUP2 DUP9 PUSH2 0xF15 JUMP JUMPDEST SWAP1 POP DUP3 DUP2 SUB PUSH1 0x60 DUP5 ADD MSTORE PUSH2 0xF9A DUP2 DUP8 PUSH2 0xF15 JUMP JUMPDEST PUSH1 0x80 DUP5 ADD SWAP6 SWAP1 SWAP6 MSTORE POP POP SWAP1 ISZERO ISZERO PUSH1 0xA0 SWAP1 SWAP2 ADD MSTORE SWAP5 SWAP4 POP POP POP POP JUMP JUMPDEST PUSH1 0x20 DUP1 DUP3 MSTORE DUP3 MLOAD DUP3 DUP3 ADD DUP2 SWAP1 MSTORE PUSH1 0x0 SWAP2 SWAP1 DUP5 DUP3 ADD SWAP1 PUSH1 0x40 DUP6 ADD SWAP1 DUP5 JUMPDEST DUP2 DUP2 LT ISZERO PUSH2 0xFED JUMPI DUP4 MLOAD DUP4 MSTORE SWAP3 DUP5 ADD SWAP3 SWAP2 DUP5 ADD SWAP2 PUSH1 0x1 ADD PUSH2 0xFD1 JUMP JUMPDEST POP SWAP1 SWAP7 SWAP6 POP POP POP POP POP POP JUMP JUMPDEST DUP1 CALLDATALOAD PUSH1 0x1 PUSH1 0x1 PUSH1 0xA0 SHL SUB DUP2 AND DUP2 EQ PUSH2 0x1010 JUMPI PUSH1 0x0 DUP1 REVERT JUMPDEST SWAP2 SWAP1 POP JUMP JUMPDEST PUSH1 0x0 DUP1 PUSH1 0x0 DUP1 PUSH1 0x60 DUP6 DUP8 SUB SLT ISZERO PUSH2 0x102B JUMPI PUSH1 0x0 DUP1 REVERT JUMPDEST PUSH2 0x1034 DUP6 PUSH2 0xFF9 JUMP JUMPDEST SWAP4 POP PUSH1 0x20 DUP6 ADD CALLDATALOAD PUSH8 0xFFFFFFFFFFFFFFFF DUP1 DUP3 GT ISZERO PUSH2 0x1051 JUMPI PUSH1 0x0 DUP1 REVERT JUMPDEST DUP2 DUP8 ADD SWAP2 POP DUP8 PUSH1 0x1F DUP4 ADD SLT PUSH2 0x1065 JUMPI PUSH1 0x0 DUP1 REVERT JUMPDEST DUP2 CALLDATALOAD DUP2 DUP2 GT ISZERO PUSH2 0x1074 JUMPI PUSH1 0x0 DUP1 REVERT JUMPDEST DUP9 PUSH1 0x20 DUP3 PUSH1 0x5 SHL DUP6 ADD ADD GT ISZERO PUSH2 0x1089 JUMPI PUSH1 0x0 DUP1 REVERT JUMPDEST SWAP6 SWAP9 PUSH1 0x20 SWAP3 SWAP1 SWAP3 ADD SWAP8 POP SWAP5 SWAP6 PUSH1 0x40 ADD CALLDATALOAD SWAP5 POP SWAP3 POP POP POP JUMP JUMPDEST PUSH1 0x0 DUP1 PUSH1 0x40 DUP4 DUP6 SUB SLT ISZERO PUSH2 0x10B4 JUMPI PUSH1 0x0 DUP1 REVERT JUMPDEST POP POP DUP1 CALLDATALOAD SWAP3 PUSH1 0x20 SWAP1 SWAP2 ADD CALLDATALOAD SWAP2 POP JUMP JUMPDEST PUSH1 0x0 DUP1 PUSH1 0x40 DUP4 DUP6 SUB SLT ISZERO PUSH2 0x10D6 JUMPI PUSH1 0x0 DUP1 REVERT JUMPDEST PUSH2 0x10DF DUP4 PUSH2 0xFF9 JUMP JUMPDEST SWAP5 PUSH1 0x20 SWAP4 SWAP1 SWAP4 ADD CALLDATALOAD SWAP4 POP POP POP JUMP JUMPDEST PUSH1 0x0 DUP1 DUP4 PUSH1 0x1F DUP5 ADD SLT PUSH2 0x10FF JUMPI PUSH1 0x0 DUP1 REVERT JUMPDEST POP DUP2 CALLDATALOAD PUSH8 0xFFFFFFFFFFFFFFFF DUP2 GT ISZERO PUSH2 0x1117 JUMPI PUSH1 0x0 DUP1 REVERT JUMPDEST PUSH1 0x20 DUP4 ADD SWAP2 POP DUP4 PUSH1 0x20 DUP3 DUP6 ADD ADD GT ISZERO PUSH2 0x112F JUMPI PUSH1 0x0 DUP1 REVERT JUMPDEST SWAP3 POP SWAP3 SWAP1 POP JUMP JUMPDEST PUSH1 0x0 DUP1 PUSH1 0x0 DUP1 PUSH1 0x0 DUP1 PUSH1 0x0 PUSH1 0x80 DUP9 DUP11 SUB SLT ISZERO PUSH2 0x1151 JUMPI PUSH1 0x0 DUP1 REVERT JUMPDEST DUP8 CALLDATALOAD SWAP7 POP PUSH1 0x20 DUP9 ADD CALLDATALOAD PUSH8 0xFFFFFFFFFFFFFFFF DUP1 DUP3 GT ISZERO PUSH2 0x1170 JUMPI PUSH1 0x0 DUP1 REVERT JUMPDEST PUSH2 0x117C DUP12 DUP4 DUP13 ADD PUSH2 0x10ED JUMP JUMPDEST SWAP1 SWAP9 POP SWAP7 POP PUSH1 0x40 DUP11 ADD CALLDATALOAD SWAP2 POP DUP1 DUP3 GT ISZERO PUSH2 0x1195 JUMPI PUSH1 0x0 DUP1 REVERT JUMPDEST PUSH2 0x11A1 DUP12 DUP4 DUP13 ADD PUSH2 0x10ED JUMP JUMPDEST SWAP1 SWAP7 POP SWAP5 POP PUSH1 0x60 DUP11 ADD CALLDATALOAD SWAP2 POP DUP1 DUP3 GT ISZERO PUSH2 0x11BA JUMPI PUSH1 0x0 DUP1 REVERT JUMPDEST POP PUSH2 0x11C7 DUP11 DUP3 DUP12 ADD PUSH2 0x10ED JUMP JUMPDEST SWAP9 SWAP12 SWAP8 SWAP11 POP SWAP6 SWAP9 POP SWAP4 SWAP7 SWAP3 SWAP6 SWAP3 SWAP4 POP POP POP JUMP JUMPDEST PUSH1 0x0 PUSH1 0x20 DUP3 DUP5 SUB SLT ISZERO PUSH2 0x11EC JUMPI PUSH1 0x0 DUP1 REVERT JUMPDEST PUSH2 0x11F5 DUP3 PUSH2 0xFF9 JUMP JUMPDEST SWAP4 SWAP3 POP POP POP JUMP JUMPDEST PUSH1 0x1 DUP2 DUP2 SHR SWAP1 DUP3 AND DUP1 PUSH2 0x1210 JUMPI PUSH1 0x7F DUP3 AND SWAP2 POP JUMPDEST PUSH1 0x20 DUP3 LT DUP2 SUB PUSH2 0x1230 JUMPI PUSH4 0x4E487B71 PUSH1 0xE0 SHL PUSH1 0x0 MSTORE PUSH1 0x22 PUSH1 0x4 MSTORE PUSH1 0x24 PUSH1 0x0 REVERT JUMPDEST POP SWAP2 SWAP1 POP JUMP JUMPDEST PUSH1 0x20 DUP1 DUP3 MSTORE PUSH1 0x1D SWAP1 DUP3 ADD MSTORE PUSH32 0x4D65645661756C743A2063616C6C6572206973206E6F74206F776E6572000000 PUSH1 0x40 DUP3 ADD MSTORE PUSH1 0x60 ADD SWAP1 JUMP JUMPDEST PUSH4 0x4E487B71 PUSH1 0xE0 SHL PUSH1 0x0 MSTORE PUSH1 0x11 PUSH1 0x4 MSTORE PUSH1 0x24 PUSH1 0x0 REVERT JUMPDEST PUSH1 0x0 PUSH1 0x1 DUP3 ADD PUSH2 0x1295 JUMPI PUSH2 0x1295 PUSH2 0x126D JUMP JUMPDEST POP PUSH1 0x1 ADD SWAP1 JUMP JUMPDEST PUSH1 0x40 DUP1 DUP3 MSTORE DUP2 ADD DUP4 SWAP1 MSTORE PUSH1 0x0 PUSH1 0x1 PUSH1 0x1 PUSH1 0xFB SHL SUB DUP5 GT ISZERO PUSH2 0x12BC JUMPI PUSH1 0x0 DUP1 REVERT JUMPDEST DUP4 PUSH1 0x5 SHL DUP1 DUP7 PUSH1 0x60 DUP6 ADD CALLDATACOPY PUSH1 0x20 DUP4 ADD SWAP4 SWAP1 SWAP4 MSTORE POP ADD PUSH1 0x60 ADD SWAP3 SWAP2 POP POP JUMP JUMPDEST DUP1 DUP3 ADD DUP1 DUP3 GT ISZERO PUSH2 0x893 JUMPI PUSH2 0x893 PUSH2 0x126D JUMP JUMPDEST DUP2 DUP2 SUB DUP2 DUP2 GT ISZERO PUSH2 0x893 JUMPI PUSH2 0x893 PUSH2 0x126D JUMP JUMPDEST PUSH4 0x4E487B71 PUSH1 0xE0 SHL PUSH1 0x0 MSTORE PUSH1 0x41 PUSH1 0x4 MSTORE PUSH1 0x24 PUSH1 0x0 REVERT JUMPDEST PUSH4 0x4E487B71 PUSH1 0xE0 SHL PUSH1 0x0 MSTORE PUSH1 0x32 PUSH1 0x4 MSTORE PUSH1 0x24 PUSH1 0x0 REVERT JUMPDEST PUSH1 0x1F DUP3 GT ISZERO PUSH2 0x1376 JUMPI PUSH1 0x0 DUP2 DUP2 MSTORE PUSH1 0x20 DUP2 KECCAK256 PUSH1 0x1F DUP6 ADD PUSH1 0x5 SHR DUP2 ADD PUSH1 0x20 DUP7 LT ISZERO PUSH2 0x1353 JUMPI POP DUP1 JUMPDEST PUSH1 0x1F DUP6 ADD PUSH1 0x5 SHR DUP3 ADD SWAP2 POP JUMPDEST DUP2 DUP2 LT ISZERO PUSH2 0x1372 JUMPI DUP3 DUP2 SSTORE PUSH1 0x1 ADD PUSH2 0x135F JUMP JUMPDEST POP POP POP JUMPDEST POP POP POP JUMP JUMPDEST DUP2 MLOAD PUSH8 0xFFFFFFFFFFFFFFFF DUP2 GT ISZERO PUSH2 0x1395 JUMPI PUSH2 0x1395 PUSH2 0x1300 JUMP JUMPDEST PUSH2 0x13A9 DUP2 PUSH2 0x13A3 DUP5 SLOAD PUSH2 0x11FC JUMP JUMPDEST DUP5 PUSH2 0x132C JUMP JUMPDEST PUSH1 0x20 DUP1 PUSH1 0x1F DUP4 GT PUSH1 0x1 DUP2 EQ PUSH2 0x13DE JUMPI PUSH1 0x0 DUP5 ISZERO PUSH2 0x13C6 JUMPI POP DUP6 DUP4 ADD MLOAD JUMPDEST PUSH1 0x0 NOT PUSH1 0x3 DUP7 SWAP1 SHL SHR NOT AND PUSH1 0x1 DUP6 SWAP1 SHL OR DUP6 SSTORE PUSH2 0x1372 JUMP JUMPDEST PUSH1 0x0 DUP6 DUP2 MSTORE PUSH1 0x20 DUP2 KECCAK256 PUSH1 0x1F NOT DUP7 AND SWAP2 JUMPDEST DUP3 DUP2 LT ISZERO PUSH2 0x140D JUMPI DUP9 DUP7 ADD MLOAD DUP3 SSTORE SWAP5 DUP5 ADD SWAP5 PUSH1 0x1 SWAP1 SWAP2 ADD SWAP1 DUP5 ADD PUSH2 0x13EE JUMP JUMPDEST POP DUP6 DUP3 LT ISZERO PUSH2 0x142B JUMPI DUP8 DUP6 ADD MLOAD PUSH1 0x0 NOT PUSH1 0x3 DUP9 SWAP1 SHL PUSH1 0xF8 AND SHR NOT AND DUP2 SSTORE JUMPDEST POP POP POP POP POP PUSH1 0x1 SWAP1 DUP2 SHL ADD SWAP1 SSTORE POP JUMP JUMPDEST DUP2 DUP4 MSTORE DUP2 DUP2 PUSH1 0x20 DUP6 ADD CALLDATACOPY POP PUSH1 0x0 DUP3 DUP3 ADD PUSH1 0x20 SWAP1 DUP2 ADD SWAP2 SWAP1 SWAP2 MSTORE PUSH1 0x1F SWAP1 SWAP2 ADD PUSH1 0x1F NOT AND SWAP1 SWAP2 ADD ADD SWAP1 JUMP JUMPDEST PUSH1 0x80 DUP2 MSTORE PUSH1 0x0 PUSH2 0x1478 PUSH1 0x80 DUP4 ADD DUP10 DUP12 PUSH2 0x143B JUMP JUMPDEST DUP3 DUP2 SUB PUSH1 0x20 DUP5 ADD MSTORE PUSH2 0x148B DUP2 DUP9 DUP11 PUSH2 0x143B JUMP JUMPDEST SWAP1 POP DUP3 DUP2 SUB PUSH1 0x40 DUP5 ADD MSTORE PUSH2 0x14A0 DUP2 DUP7 DUP9 PUSH2 0x143B JUMP JUMPDEST SWAP2 POP POP DUP3 PUSH1 0x60 DUP4 ADD MSTORE SWAP9 SWAP8 POP POP POP POP POP POP POP POP JUMP INVALID LOG2 PUSH5 0x6970667358 0x22 SLT KECCAK256 SAR DELEGATECALL 0xBC SHL TIMESTAMP 0xAC NOT EXTCODESIZE ORIGIN 0xAF DUP14 PUSH27 0xB184A6BF8C7110250B6773AF732A6F604631E1FE64736F6C634300 ADDMOD EQ STOP CALLER "},"methodIdentifiers":{"accessibleRecords(address)":"fb89b939","addRecord(bytes32,string,string,string)":"eea5d109","canAccess(address,bytes32)":"4f3cefa9","getGrantCount()":"7c1b6afe","getGrantRecordIds(uint256)":"10083a9f","getRecordCount()":"ca267f28","getRecordIds(uint256,uint256)":"4a0e0382","grantAccess(address,bytes32[],uint256)":"1f9df00a","grantCount()":"cab42672","grants(uint256)":"0c0debea","owner()":"8da5cb5b","recordIds(uint256)":"97ddbef9","records(bytes32)":"01e64725","removeRecord(bytes32)":"0bc36d1e","revokeAccess(uint256)":"e1b97d69"}}}}}