{
  "_format": "hh-sol-artifact-1",
  "contractName": "MedVaultRegistry",
  "sourceName": "contracts/MedVaultRegistry.sol",
  "abi": [
    {
      "inputs": [],
      "stateMutability": "nonpayable",
      "type": "constructor"
    },
    {
      "anonymous": false,
      "inputs": [
        {
          "indexed": true,
          "internalType": "uint256",
          "name": "grantId",
          "type": "uint256"
        },
        {
          "indexed": true,
          "internalType": "address",
          "name": "grantee",
          "type": "address"
        },
        {
          "indexed": false,
          "internalType": "bytes32[]",
          "name": "recordIds",
          "type": "bytes32[]"
        },
        {
          "indexed": false,
          "internalType": "uint256",
          "name": "expiresAt",
          "type": "uint256"
        }
      ],
      "name": "AccessGranted",
      "type": "event"
    },
    {
      "anonymous": false,
      "inputs": [
        {
          "indexed": true,
          "internalType": "uint256",
          "name": "grantId",
          "type": "uint256"
        },
        {
          "indexed": true,
          "internalType": "address",
          "name": "grantee",
          "type": "address"
        }
      ],
      "name": "AccessRevoked",
      "type": "event"
    },
    {
      "anonymous": false,
      "inputs": [
        {
          "indexed": true,
          "internalType": "bytes32",
          "name": "id",
          "type": "bytes32"
        },
        {
          "indexed": false,
          "internalType": "string",
          "name": "ipfsCid",
          "type": "string"
        },
        {
          "indexed": false,
          "internalType": "string",
          "name": "recordType",
          "type": "string"
        },
        {
          "indexed": false,
          "internalType": "string",
          "name": "title",
          "type": "string"
        },
        {
          "indexed": false,
          "internalType": "uint256",
          "name": "timestamp",
          "type": "uint256"
        }
      ],
      "name": "RecordAdded",
      "type": "event"
    },
    {
      "anonymous": false,
      "inputs": [
        {
          "indexed": true,
          "internalType": "bytes32",
          "name": "id",
          "type": "bytes32"
        }
      ],
      "name": "RecordRemoved",
      "type": "event"
    },
    {
      "inputs": [
        {
          "internalType": "address",
          "name": "grantee",
          "type": "address"
        }
      ],
      "name": "accessibleRecords",
      "outputs": [
        {
          "internalType": "bytes32[]",
          "name": "",
          "type": "bytes32[]"
        }
      ],
      "stateMutability": "view",
      "type": "function"
    },
    {
      "inputs": [
        {
          "internalType": "bytes32",
          "name": "id",
          "type": "bytes32"
        },
        {
          "internalType": "string",
          "name": "cid",
          "type": "string"
        },
        {
          "internalType": "string",
          "name": "rType",
          "type": "string"
        },
        {
          "internalType": "string",
          "name": "title",
          "type": "string"
        }
      ],
      "name": "addRecord",
      "outputs": [],
      "stateMutability": "nonpayable",
      "type": "function"
    },
    {
      "inputs": [
        {
          "internalType": "address",
          "name": "grantee",
          "type": "address"
        },
        {
          "internalType": "bytes32",
          "name": "recordId",
          "type": "bytes32"
        }
      ],
      "name": "canAccess",
      "outputs": [
        {
          "internalType": "bool",
          "name": "",
          "type": "bool"
        }
      ],
      "stateMutability": "view",
      "type": "function"
    },
    {
      "inputs": [],
      "name": "getGrantCount",
      "outputs": [
        {
          "internalType": "uint256",
          "name": "",
          "type": "uint256"
        }
      ],
      "stateMutability": "view",
      "type": "function"
    },
    {
      "inputs": [
        {
          "internalType": "uint256",
          "name": "grantId",
          "type": "uint256"
        }
      ],
      "name": "getGrantRecordIds",
      "outputs": [
        {
          "internalType": "bytes32[]",
          "name": "",
          "type": "bytes32[]"
        }
      ],
      "stateMutability": "view",
      "type": "function"
    },
    {
      "inputs": [],
      "name": "getRecordCount",
      "outputs": [
        {
          "internalType": "uint256",
          "name": "",
          "type": "uint256"
        }
      ],
      "stateMutability": "view",
      "type": "function"
    },
    {
      "inputs": [
        {
          "internalType": "uint256",
          "name": "offset",
          "type": "uint256"
        },
        {
          "internalType": "uint256",
          "name": "limit",
          "type": "uint256"
        }
      ],
      "name": "getRecordIds",
      "outputs": [
        {
          "internalType": "bytes32[]",
          "name": "",
          "type": "bytes32[]"
        }
      ],
      "stateMutability": "view",
      "type": "function"
    },
    {
      "inputs": [
        {
          "internalType": "address",
          "name": "grantee",
          "type": "address"
        },
        {
          "internalType": "bytes32[]",
          "name": "rIds",
          "type": "bytes32[]"
        },
        {
          "internalType": "uint256",
          "name": "expiresAt",
          "type": "uint256"
        }
      ],
      "name": "grantAccess",
      "outputs": [
        {
          "internalType": "uint256",
          "name": "grantId",
          "type": "uint256"
        }
      ],
      "stateMutability": "nonpayable",
      "type": "function"
    },
    {
      "inputs": [],
      "name": "grantCount",
      "outputs": [
        {
          "internalType": "uint256",
          "name": "",
          "type": "uint256"
        }
      ],
      "stateMutability": "view",
      "type": "function"
    },
    {
      "inputs": [
        {
          "internalType": "uint256",
          "name": "",
          "type": "uint256"
        }
      ],
      "name": "grants",
      "outputs": [
        {
          "internalType": "address",
          "name": "grantee",
          "type": "address"
        },
        {
          "internalType": "uint256",
          "name": "expiresAt",
          "type": "uint256"
        },
        {
          "internalType": "bool",
          "name": "active",
          "type": "bool"
        }
      ],
      "stateMutability": "view",
      "type": "function"
    },
    {
      "inputs": [],
      "name": "owner",
      "outputs": [
        {
          "internalType": "address",
          "name": "",
          "type": "address"
        }
      ],
      "stateMutability": "view",
      "type": "function"
    },
    {
      "inputs": [
        {
          "internalType": "uint256",
          "name": "",
          "type": "uint256"
        }
      ],
      "name": "recordIds",
      "outputs": [
        {
          "internalType": "bytes32",
          "name": "",
          "type": "bytes32"
        }
      ],
      "stateMutability": "view",
      "type": "function"
    },
    {
      "inputs": [
        {
          "internalType": "bytes32",
          "name": "",
          "type": "bytes32"
        }
      ],
      "name": "records",
      "outputs": [
        {
          "internalType": "bytes32",
          "name": "contentHash",
          "type": "bytes32"
        },
        {
          "internalType": "string",
          "name": "ipfsCid",
          "type": "string"
        },
        {
          "internalType": "string",
          "name": "recordType",
          "type": "string"
        },
        {
          "internalType": "string",
          "name": "title",
          "type": "string"
        },
        {
          "internalType": "uint256",
          "name": "timestamp",
          "type": "uint256"
        },
        {
          "internalType": "bool",
          "name": "active",
          "type": "bool"
        }
      ],
      "stateMutability": "view",
      "type": "function"
    },
    {
      "inputs": [
        {
          "internalType": "bytes32",
          "name": "id",
          "type": "bytes32"
        }
      ],
      "name": "removeRecord",
      "outputs": [],
      "stateMutability": "nonpayable",
      "type": "function"
    },
    {
      "inputs": [
        {
          "internalType": "uint256",
          "name": "grantId",
          "type": "uint256"
        }
      ],
      "name": "revokeAccess",
      "outputs": [],
      "stateMutability": "nonpayable",
      "type": "function"
    }
  ],
  "bytecode": "0x608060405234801561001057600080fd5b50600080546001600160a01b031916331790556114eb806100326000396000f3fe608060405234801561001057600080fd5b50600436106100f55760003560e01c80637c1b6afe11610097578063cab4267211610066578063cab4267214610266578063e1b97d691461026f578063eea5d10914610282578063fb89b9391461029557600080fd5b80637c1b6afe146102185780638da5cb5b1461022057806397ddbef91461024b578063ca267f281461025e57600080fd5b806310083a9f116100d357806310083a9f146101a15780631f9df00a146101c15780634a0e0382146101e25780634f3cefa9146101f557600080fd5b806301e64725146100fa5780630bc36d1e146101285780630c0debea1461013d575b600080fd5b61010d610108366004610efc565b6102a8565b60405161011f96959493929190610f5b565b60405180910390f35b61013b610136366004610efc565b610478565b005b61017a61014b366004610efc565b60036020819052600091825260409091208054600282015491909201546001600160a01b039092169160ff1683565b604080516001600160a01b039094168452602084019290925215159082015260600161011f565b6101b46101af366004610efc565b610565565b60405161011f9190610fb5565b6101d46101cf366004611015565b6105ca565b60405190815260200161011f565b6101b46101f03660046110a1565b6107bc565b6102086102033660046110c3565b610899565b604051901515815260200161011f565b6004546101d4565b600054610233906001600160a01b031681565b6040516001600160a01b03909116815260200161011f565b6101d4610259366004610efc565b610977565b6002546101d4565b6101d460045481565b61013b61027d366004610efc565b610998565b61013b610290366004611136565b610a79565b6101b46102a33660046111da565b610ccc565b6001602081905260009182526040909120805491810180546102c9906111fc565b80601f01602080910402602001604051908101604052809291908181526020018280546102f5906111fc565b80156103425780601f1061031757610100808354040283529160200191610342565b820191906000526020600020905b81548152906001019060200180831161032557829003601f168201915b505050505090806002018054610357906111fc565b80601f0160208091040260200160405190810160405280929190818152602001828054610383906111fc565b80156103d05780601f106103a5576101008083540402835291602001916103d0565b820191906000526020600020905b8154815290600101906020018083116103b357829003601f168201915b5050505050908060030180546103e5906111fc565b80601f0160208091040260200160405190810160405280929190818152602001828054610411906111fc565b801561045e5780601f106104335761010080835404028352916020019161045e565b820191906000526020600020905b81548152906001019060200180831161044157829003601f168201915b50505050600483015460059093015491929160ff16905086565b6000546001600160a01b031633146104ab5760405162461bcd60e51b81526004016104a290611236565b60405180910390fd5b60008181526001602052604090206005015460ff166105225760405162461bcd60e51b815260206004820152602d60248201527f4d65645661756c743a207265636f7264206e6f7420666f756e64206f7220616c60448201526c1c9958591e481c995b5bdd9959609a1b60648201526084016104a2565b600081815260016020526040808220600501805460ff191690555182917f3813d5e4633aa2a982d4b41c4798354673e514a3dde9fa140a8a32ec1c2208f191a250565b6000818152600360209081526040918290206001018054835181840281018401909452808452606093928301828280156105be57602002820191906000526020600020905b8154815260200190600101908083116105aa575b50505050509050919050565b600080546001600160a01b031633146105f55760405162461bcd60e51b81526004016104a290611236565b6001600160a01b0385166106445760405162461bcd60e51b81526020600482015260166024820152754d65645661756c743a207a65726f206164647265737360501b60448201526064016104a2565b826106915760405162461bcd60e51b815260206004820152601e60248201527f4d65645661756c743a206e6f207265636f72647320737065636966696564000060448201526064016104a2565b600480549060006106a183611283565b9190505590506040518060800160405280866001600160a01b0316815260200185858080602002602001604051908101604052809392919081815260200183836020028082843760009201829052509385525050506020808301869052600160409384018190528583526003825292909120835181546001600160a01b0319166001600160a01b0390911617815583820151805191936107479390850192910190610e9c565b5060408281015160028301556060909201516003909101805460ff1916911515919091179055516001600160a01b0386169082907f1f2e08a4efda97e980d4714b54d2e5079d08337efd4d9646b042c13bc5c5df7e906107ac9088908890889061129c565b60405180910390a3949350505050565b606060006107ca83856112da565b6002549091508111156107dc57506002545b60006107e885836112ed565b67ffffffffffffffff81111561080057610800611300565b604051908082528060200260200182016040528015610829578160200160208202803683370190505b509050845b8281101561088e576002818154811061084957610849611316565b906000526020600020015482878361086191906112ed565b8151811061087157610871611316565b60209081029190910101528061088681611283565b91505061082e565b509150505b92915050565b6000805b60045481101561096d5760008181526003602081905260409091209081015460ff166108c9575061095b565b80546001600160a01b038681169116146108e3575061095b565b600081600201541180156108fa5750806002015442115b15610905575061095b565b60005b6001820154811015610958578482600101828154811061092a5761092a611316565b9060005260206000200154036109465760019350505050610893565b8061095081611283565b915050610908565b50505b8061096581611283565b91505061089d565b5060009392505050565b6002818154811061098757600080fd5b600091825260209091200154905081565b6000546001600160a01b031633146109c25760405162461bcd60e51b81526004016104a290611236565b6000818152600360208190526040909120015460ff16610a245760405162461bcd60e51b815260206004820152601a60248201527f4d65645661756c743a206772616e74206e6f742061637469766500000000000060448201526064016104a2565b600081815260036020819052604080832080549201805460ff19169055516001600160a01b0390911691829184917f125883b94692baebecad9f111ed97ffa626523bbbadc6b0ef85ee1b56b9e52d591a35050565b6000546001600160a01b03163314610aa35760405162461bcd60e51b81526004016104a290611236565b60008781526001602052604090206005015460ff1615610b055760405162461bcd60e51b815260206004820152601f60248201527f4d65645661756c743a207265636f726420616c7265616479206578697374730060448201526064016104a2565b6040518060c0016040528088815260200187878080601f016020809104026020016040519081016040528093929190818152602001838380828437600092019190915250505090825250604080516020601f880181900481028201810190925286815291810191908790879081908401838280828437600092019190915250505090825250604080516020601f8601819004810282018101909252848152918101919085908590819084018382808284376000920182905250938552505042602080850191909152600160409485018190528c84528082529390922084518155918401519192830191610bf991508261137b565b5060408201516002820190610c0e908261137b565b5060608201516003820190610c23908261137b565b506080820151600482015560a0909101516005909101805460ff1916911515919091179055600280546001810182556000919091527f405787fa12a823e0f2b7631cc41b3ba8828b3321ca811111fa75cd3aa3bb5ace0187905560405187907f6b593d51e0ee5fc77b84f4e295285d4befed97879ae2a338d91d906e0b2fe19290610cbb908990899089908990899089904290611464565b60405180910390a250505050505050565b60606000805b600454811015610d5f5760008181526003602081905260409091209081015460ff16610cfe5750610d4d565b80546001600160a01b03868116911614610d185750610d4d565b60008160020154118015610d2f5750806002015442115b15610d3a5750610d4d565b6001810154610d4990846112da565b9250505b80610d5781611283565b915050610cd2565b5060008167ffffffffffffffff811115610d7b57610d7b611300565b604051908082528060200260200182016040528015610da4578160200160208202803683370190505b5090506000805b600454811015610e925760008181526003602081905260409091209081015460ff16610dd75750610e80565b80546001600160a01b03888116911614610df15750610e80565b60008160020154118015610e085750806002015442115b15610e135750610e80565b60005b6001820154811015610e7d57816001018181548110610e3757610e37611316565b9060005260206000200154858580610e4e90611283565b965081518110610e6057610e60611316565b602090810291909101015280610e7581611283565b915050610e16565b50505b80610e8a81611283565b915050610dab565b5090949350505050565b828054828255906000526020600020908101928215610ed7579160200282015b82811115610ed7578251825591602001919060010190610ebc565b50610ee3929150610ee7565b5090565b5b80821115610ee35760008155600101610ee8565b600060208284031215610f0e57600080fd5b5035919050565b6000815180845260005b81811015610f3b57602081850181015186830182015201610f1f565b506000602082860101526020601f19601f83011685010191505092915050565b86815260c060208201526000610f7460c0830188610f15565b8281036040840152610f868188610f15565b90508281036060840152610f9a8187610f15565b6080840195909552505090151560a090910152949350505050565b6020808252825182820181905260009190848201906040850190845b81811015610fed57835183529284019291840191600101610fd1565b50909695505050505050565b80356001600160a01b038116811461101057600080fd5b919050565b6000806000806060858703121561102b57600080fd5b61103485610ff9565b9350602085013567ffffffffffffffff8082111561105157600080fd5b818701915087601f83011261106557600080fd5b81358181111561107457600080fd5b8860208260051b850101111561108957600080fd5b95986020929092019750949560400135945092505050565b600080604083850312156110b457600080fd5b50508035926020909101359150565b600080604083850312156110d657600080fd5b6110df83610ff9565b946020939093013593505050565b60008083601f8401126110ff57600080fd5b50813567ffffffffffffffff81111561111757600080fd5b60208301915083602082850101111561112f57600080fd5b9250929050565b60008060008060008060006080888a03121561115157600080fd5b87359650602088013567ffffffffffffffff8082111561117057600080fd5b61117c8b838c016110ed565b909850965060408a013591508082111561119557600080fd5b6111a18b838c016110ed565b909650945060608a01359150808211156111ba57600080fd5b506111c78a828b016110ed565b989b979a50959850939692959293505050565b6000602082840312156111ec57600080fd5b6111f582610ff9565b9392505050565b600181811c9082168061121057607f821691505b60208210810361123057634e487b7160e01b600052602260045260246000fd5b50919050565b6020808252601d908201527f4d65645661756c743a2063616c6c6572206973206e6f74206f776e6572000000604082015260600190565b634e487b7160e01b600052601160045260246000fd5b6000600182016112955761129561126d565b5060010190565b6040808252810183905260006001600160fb1b038411156112bc57600080fd5b8360051b808660608501376020830193909352500160600192915050565b808201808211156108935761089361126d565b818103818111156108935761089361126d565b634e487b7160e01b600052604160045260246000fd5b634e487b7160e01b600052603260045260246000fd5b601f82111561137657600081815260208120601f850160051c810160208610156113535750805b601f850160051c820191505b818110156113725782815560010161135f565b5050505b505050565b815167ffffffffffffffff81111561139557611395611300565b6113a9816113a384546111fc565b8461132c565b602080601f8311600181146113de57600084156113c65750858301515b600019600386901b1c1916600185901b178555611372565b600085815260208120601f198616915b8281101561140d578886015182559484019460019091019084016113ee565b508582101561142b5787850151600019600388901b60f8161c191681555b5050505050600190811b01905550565b81835281816020850137506000828201602090810191909152601f909101601f19169091010190565b60808152600061147860808301898b61143b565b828103602084015261148b81888a61143b565b905082810360408401526114a081868861143b565b9150508260608301529897505050505050505056fea26469706673582212201df4bc1b42ac193b32af8d7ab184a6bf8c7110250b6773af732a6f604631e1fe64736f6c63430008140033",
  "linkReferences": {},
  "deployedLinkReferences": {}
}