{
  "_format": "hh-sol-artifact-1",
  "contractName": "MedVaultRegistry",
  "sourceName": "contracts/MedVaultRegistry.sol",
  "abi": [
    {
      "inputs": [],
      "stateMutability": "nonpayable",
      "type": "constructor"
    },
    {
      "anonymous": false,
      "inputs": [
        {
          "indexed": true,
          "internalType": "uint256",
          "name": "grantId",
          "type": "uint256"
        },
        {
          "indexed": true,
          "internalType": "address",
          "name": "grantee",
          "type": "address"
        },
        {
          "indexed": false,
          "internalType": "bytes32[]",
          "name": "recordIds",
          "type": "bytes32[]"
        },
        {
          "indexed": false,
          "internalType": "uint256",
          "name": "expiresAt",
          "type": "uint256"
        }
      ],
      "name": "AccessGranted",
      "type": "event"
    },
    {
      "anonymous": false,
      "inputs": [
        {
          "indexed": true,
          "internalType": "uint256",
          "name": "grantId",
          "type": "uint256"
        },
        {
          "indexed": true,
          "internalType": "address",
          "name": "grantee",
          "type": "address"
        }
      ],
      "name": "AccessRevoked",
      "type": "event"
    },
    {
      "anonymous": false,
      "inputs": [
        {
          "indexed": true,
          "internalType": "bytes32",
          "name": "id",
          "type": "bytes32"
        },
        {
          "indexed": false,
          "internalType": "string",
          "name": "ipfsCid",
          "type": "string"
        },
        {
          "indexed": false,
          "internalType": "string",
          "name": "recordType",
          "type": "string"
        },
        {
          "indexed": false,
          "internalType": "string",
          "name": "title",
          "type": "string"
        },
        {
          "indexed": false,
          "internalType": "uint256",
          "name": "timestamp",
          "type": "uint256"
        }
      ],
      "name": "RecordAdded",
      "type": "event"
    },
    {
      "anonymous": false,
      "inputs": [
        {
          "indexed": true,
          "internalType": "bytes32",
          "name": "id",
          "type": "bytes32"
        }
      ],
      "name": "RecordRemoved",
      "type": "event"
    },
    {
      "inputs": [
        {
          "internalType": "address",
          "name": "grantee",
          "type": "address"
        }
      ],
      "name": "accessibleRecords",
      "outputs": [
        {
          "internalType": "bytes32[]",
          "name": "",
          "type": "bytes32[]"
        }
      ],
      "stateMutability": "view",
      "type": "function"
    },
    {
      "inputs": [
        {
          "internalType": "bytes32",
          "name": "id",
          "type": "bytes32"
        },
        {
          "internalType": "string",
          "name": "cid",
          "type": "string"
        },
        {
          "internalType": "string",
          "name": "rType",
          "type": "string"
        },
        {
          "internalType": "string",
          "name": "title",
          "type": "string"
        }
      ],
      "name": "addRecord",
      "outputs": [],
      "stateMutability": "nonpayable",
      "type": "function"
    },
    {
      "inputs": [
        {
          "internalType": "address",
          "name": "grantee",
          "type": "address"
        },
        {
          "internalType": "bytes32",
          "name": "recordId",
          "type": "bytes32"
        }
      ],
      "name": "canAccess",
      "outputs": [
        {
          "internalType": "bool",
          "name": "",
          "type": "bool"
        }
      ],
      "stateMutability": "view",
      "type": "function"
    },
    {
      "inputs": [],
      "name": "getGrantCount",
      "outputs": [
        {
          "internalType": "uint256",
          "name": "",
          "type": "uint256"
        }
      ],
      "stateMutability": "view",
      "type": "function"
    },
    {
      "inputs": [
        {
          "internalType": "uint256",
          "name": "grantId",
          "type": "uint256"
        }
      ],
      "name": "getGrantRecordIds",
      "outputs": [
        {
          "internalType": "bytes32[]",
          "name": "",
          "type": "bytes32[]"
        }
      ],
      "stateMutability": "view",
      "type": "function"
    },
    {
      "inputs": [
        {
          "internalType": "address",
          "name": "grantee",
          "type": "address"
        },
        {
          "internalType": "bytes32",
          "name": "recordId",
          "type": "bytes32"
        }
      ],
      "name": "getKeyEnvelope",
      "outputs": [
        {
          "internalType": "string",
          "name": "ciphertext",
          "type": "string"
        },
        {
          "internalType": "string",
          "name": "iv",
          "type": "string"
        },
        {
          "internalType": "bool",
          "name": "exists",
          "type": "bool"
        }
      ],
      "stateMutability": "view",
      "type": "function"
    },
    {
      "inputs": [],
      "name": "getRecordCount",
      "outputs": [
        {
          "internalType": "uint256",
          "name": "",
          "type": "uint256"
        }
      ],
      "stateMutability": "view",
      "type": "function"
    },
    {
      "inputs": [
        {
          "internalType": "uint256",
          "name": "offset",
          "type": "uint256"
        },
        {
          "internalType": "uint256",
          "name": "limit",
          "type": "uint256"
        }
      ],
      "name": "getRecordIds",
      "outputs": [
        {
          "internalType": "bytes32[]",
          "name": "",
          "type": "bytes32[]"
        }
      ],
      "stateMutability": "view",
      "type": "function"
    },
    {
      "inputs": [
        {
          "internalType": "address",
          "name": "grantee",
          "type": "address"
        },
        {
          "internalType": "bytes32[]",
          "name": "rIds",
          "type": "bytes32[]"
        },
        {
          "internalType": "uint256",
          "name": "expiresAt",
          "type": "uint256"
        },
        {
          "internalType": "string[]",
          "name": "ciphertexts",
          "type": "string[]"
        },
        {
          "internalType": "string[]",
          "name": "ivs",
          "type": "string[]"
        }
      ],
      "name": "grantAccess",
      "outputs": [
        {
          "internalType": "uint256",
          "name": "grantId",
          "type": "uint256"
        }
      ],
      "stateMutability": "nonpayable",
      "type": "function"
    },
    {
      "inputs": [],
      "name": "grantCount",
      "outputs": [
        {
          "internalType": "uint256",
          "name": "",
          "type": "uint256"
        }
      ],
      "stateMutability": "view",
      "type": "function"
    },
    {
      "inputs": [
        {
          "internalType": "uint256",
          "name": "",
          "type": "uint256"
        }
      ],
      "name": "grants",
      "outputs": [
        {
          "internalType": "address",
          "name": "grantee",
          "type": "address"
        },
        {
          "internalType": "uint256",
          "name": "expiresAt",
          "type": "uint256"
        },
        {
          "internalType": "bool",
          "name": "active",
          "type": "bool"
        }
      ],
      "stateMutability": "view",
      "type": "function"
    },
    {
      "inputs": [
        {
          "internalType": "address",
          "name": "",
          "type": "address"
        },
        {
          "internalType": "bytes32",
          "name": "",
          "type": "bytes32"
        }
      ],
      "name": "keyEnvelopes",
      "outputs": [
        {
          "internalType": "string",
          "name": "ciphertext",
          "type": "string"
        },
        {
          "internalType": "string",
          "name": "iv",
          "type": "string"
        },
        {
          "internalType": "bool",
          "name": "exists",
          "type": "bool"
        }
      ],
      "stateMutability": "view",
      "type": "function"
    },
    {
      "inputs": [],
      "name": "owner",
      "outputs": [
        {
          "internalType": "address",
          "name": "",
          "type": "address"
        }
      ],
      "stateMutability": "view",
      "type": "function"
    },
    {
      "inputs": [
        {
          "internalType": "uint256",
          "name": "",
          "type": "uint256"
        }
      ],
      "name": "recordIds",
      "outputs": [
        {
          "internalType": "bytes32",
          "name": "",
          "type": "bytes32"
        }
      ],
      "stateMutability": "view",
      "type": "function"
    },
    {
      "inputs": [
        {
          "internalType": "bytes32",
          "name": "",
          "type": "bytes32"
        }
      ],
      "name": "records",
      "outputs": [
        {
          "internalType": "bytes32",
          "name": "contentHash",
          "type": "bytes32"
        },
        {
          "internalType": "string",
          "name": "ipfsCid",
          "type": "string"
        },
        {
          "internalType": "string",
          "name": "recordType",
          "type": "string"
        },
        {
          "internalType": "string",
          "name": "title",
          "type": "string"
        },
        {
          "internalType": "uint256",
          "name": "timestamp",
          "type": "uint256"
        },
        {
          "internalType": "bool",
          "name": "active",
          "type": "bool"
        }
      ],
      "stateMutability": "view",
      "type": "function"
    },
    {
      "inputs": [
        {
          "internalType": "bytes32",
          "name": "id",
          "type": "bytes32"
        }
      ],
      "name": "removeRecord",
      "outputs": [],
      "stateMutability": "nonpayable",
      "type": "function"
    },
    {
      "inputs": [
        {
          "internalType": "uint256",
          "name": "grantId",
          "type": "uint256"
        }
      ],
      "name": "revokeAccess",
      "outputs": [],
      "stateMutability": "nonpayable",
      "type": "function"
    }
  ],
  "bytecode": "0x608060405234801561001057600080fd5b50600080546001600160a01b03191633179055611b87806100326000396000f3fe608060405234801561001057600080fd5b506004361061010b5760003560e01c80637c1b6afe116100a2578063ca267f2811610071578063ca267f28146102a9578063cab42672146102b1578063e1b97d69146102ba578063eea5d109146102cd578063fb89b939146102e057600080fd5b80637c1b6afe146102505780638da5cb5b1461025857806397ddbef914610283578063a80038c01461029657600080fd5b806310083a9f116100de57806310083a9f146101d9578063418a1757146101f95780634a0e03821461021a5780634f3cefa91461022d57600080fd5b806301e64725146101105780630a64b25a1461013e5780630bc36d1e146101605780630c0debea14610175575b600080fd5b61012361011e3660046114ac565b6102f3565b6040516101359695949392919061150b565b60405180910390f35b61015161014c366004611581565b6104c3565b604051610135939291906115ab565b61017361016e3660046114ac565b610628565b005b6101b26101833660046114ac565b60036020819052600091825260409091208054600282015491909201546001600160a01b039092169160ff1683565b604080516001600160a01b0390941684526020840192909252151590820152606001610135565b6101ec6101e73660046114ac565b6106ff565b60405161013591906115e3565b61020c610207366004611673565b610764565b604051908152602001610135565b6101ec610228366004611727565b610b53565b61024061023b366004611581565b610c30565b6040519015158152602001610135565b60045461020c565b60005461026b906001600160a01b031681565b6040516001600160a01b039091168152602001610135565b61020c6102913660046114ac565b610d0e565b6101516102a4366004611581565b610d2f565b60025461020c565b61020c60045481565b6101736102c83660046114ac565b610e6f565b6101736102db36600461178b565b610fec565b6101ec6102ee36600461182f565b61123f565b60016020819052600091825260409091208054918101805461031490611851565b80601f016020809104026020016040519081016040528092919081815260200182805461034090611851565b801561038d5780601f106103625761010080835404028352916020019161038d565b820191906000526020600020905b81548152906001019060200180831161037057829003601f168201915b5050505050908060020180546103a290611851565b80601f01602080910402602001604051908101604052809291908181526020018280546103ce90611851565b801561041b5780601f106103f05761010080835404028352916020019161041b565b820191906000526020600020905b8154815290600101906020018083116103fe57829003601f168201915b50505050509080600301805461043090611851565b80601f016020809104026020016040519081016040528092919081815260200182805461045c90611851565b80156104a95780601f1061047e576101008083540402835291602001916104a9565b820191906000526020600020905b81548152906001019060200180831161048c57829003601f168201915b50505050600483015460059093015491929160ff16905086565b6001600160a01b03821660009081526005602090815260408083208484529091528120600281015481546060938493909290918291600183019160ff90911690839061050e90611851565b80601f016020809104026020016040519081016040528092919081815260200182805461053a90611851565b80156105875780601f1061055c57610100808354040283529160200191610587565b820191906000526020600020905b81548152906001019060200180831161056a57829003601f168201915b5050505050925081805461059a90611851565b80601f01602080910402602001604051908101604052809291908181526020018280546105c690611851565b80156106135780601f106105e857610100808354040283529160200191610613565b820191906000526020600020905b8154815290600101906020018083116105f657829003601f168201915b50505050509150935093509350509250925092565b6000546001600160a01b0316331461065b5760405162461bcd60e51b81526004016106529061188b565b60405180910390fd5b60008181526001602052604090206005015460ff166106bc5760405162461bcd60e51b815260206004820152601a60248201527f4d65645661756c743a207265636f7264206e6f7420666f756e640000000000006044820152606401610652565b600081815260016020526040808220600501805460ff191690555182917f3813d5e4633aa2a982d4b41c4798354673e514a3dde9fa140a8a32ec1c2208f191a250565b60008181526003602090815260409182902060010180548351818402810184019094528084526060939283018282801561075857602002820191906000526020600020905b815481526020019060010190808311610744575b50505050509050919050565b600080546001600160a01b0316331461078f5760405162461bcd60e51b81526004016106529061188b565b6001600160a01b0389166107de5760405162461bcd60e51b81526020600482015260166024820152754d65645661756c743a207a65726f206164647265737360501b6044820152606401610652565b866108225760405162461bcd60e51b81526020600482015260146024820152734d65645661756c743a206e6f207265636f72647360601b6044820152606401610652565b86841461086d5760405162461bcd60e51b815260206004820152601960248201527809acac8acc2ead8e87440d8cadccee8d040dad2e6dac2e8c6d603b1b6044820152606401610652565b8682146108b85760405162461bcd60e51b815260206004820152601960248201527809acac8acc2ead8e87440d8cadccee8d040dad2e6dac2e8c6d603b1b6044820152606401610652565b60005b87811015610a235760405180606001604052808787848181106108e0576108e06118c2565b90506020028101906108f291906118d8565b8080601f01602080910402602001604051908101604052809392919081815260200183838082843760009201919091525050509082525060200185858481811061093e5761093e6118c2565b905060200281019061095091906118d8565b8080601f016020809104026020016040519081016040528093929190818152602001838380828437600092018290525093855250506001602093840152506001600160a01b038d168152600590915260408120908b8b858181106109b6576109b66118c2565b90506020020135815260200190815260200160002060008201518160000190816109e09190611984565b50602082015160018201906109f59082611984565b50604091909101516002909101805460ff191691151591909117905580610a1b81611a5a565b9150506108bb565b5060048054906000610a3483611a5a565b91905055905060405180608001604052808a6001600160a01b03168152602001898980806020026020016040519081016040528093929190818152602001838360200280828437600092018290525093855250505060208083018a9052600160409384018190528583526003825292909120835181546001600160a01b0319166001600160a01b039091161781558382015180519193610ada939085019291019061140f565b5060408281015160028301556060909201516003909101805460ff1916911515919091179055516001600160a01b038a169082907f1f2e08a4efda97e980d4714b54d2e5079d08337efd4d9646b042c13bc5c5df7e90610b3f908c908c908c90611a73565b60405180910390a398975050505050505050565b60606000610b618385611ab1565b600254909150811115610b7357506002545b6000610b7f8583611ac4565b67ffffffffffffffff811115610b9757610b9761191f565b604051908082528060200260200182016040528015610bc0578160200160208202803683370190505b509050845b82811015610c255760028181548110610be057610be06118c2565b9060005260206000200154828783610bf89190611ac4565b81518110610c0857610c086118c2565b602090810291909101015280610c1d81611a5a565b915050610bc5565b509150505b92915050565b6000805b600454811015610d045760008181526003602081905260409091209081015460ff16610c605750610cf2565b80546001600160a01b03868116911614610c7a5750610cf2565b60008160020154118015610c915750806002015442115b15610c9c5750610cf2565b60005b6001820154811015610cef5784826001018281548110610cc157610cc16118c2565b906000526020600020015403610cdd5760019350505050610c2a565b80610ce781611a5a565b915050610c9f565b50505b80610cfc81611a5a565b915050610c34565b5060009392505050565b60028181548110610d1e57600080fd5b600091825260209091200154905081565b6005602090815260009283526040808420909152908252902080548190610d5590611851565b80601f0160208091040260200160405190810160405280929190818152602001828054610d8190611851565b8015610dce5780601f10610da357610100808354040283529160200191610dce565b820191906000526020600020905b815481529060010190602001808311610db157829003601f168201915b505050505090806001018054610de390611851565b80601f0160208091040260200160405190810160405280929190818152602001828054610e0f90611851565b8015610e5c5780601f10610e3157610100808354040283529160200191610e5c565b820191906000526020600020905b815481529060010190602001808311610e3f57829003601f168201915b5050506002909301549192505060ff1683565b6000546001600160a01b03163314610e995760405162461bcd60e51b81526004016106529061188b565b6000818152600360208190526040909120015460ff16610efb5760405162461bcd60e51b815260206004820152601a60248201527f4d65645661756c743a206772616e74206e6f74206163746976650000000000006044820152606401610652565b6000818152600360205260408120905b6001820154811015610f9f5781546001600160a01b0316600090815260056020526040812060018401805491929184908110610f4957610f496118c2565b9060005260206000200154815260200190815260200160002060008082016000610f73919061145a565b610f8160018301600061145a565b50600201805460ff1916905580610f9781611a5a565b915050610f0b565b50805460038201805460ff191690556040516001600160a01b0390911690819084907f125883b94692baebecad9f111ed97ffa626523bbbadc6b0ef85ee1b56b9e52d590600090a3505050565b6000546001600160a01b031633146110165760405162461bcd60e51b81526004016106529061188b565b60008781526001602052604090206005015460ff16156110785760405162461bcd60e51b815260206004820152601f60248201527f4d65645661756c743a207265636f726420616c726561647920657869737473006044820152606401610652565b6040518060c0016040528088815260200187878080601f016020809104026020016040519081016040528093929190818152602001838380828437600092019190915250505090825250604080516020601f880181900481028201810190925286815291810191908790879081908401838280828437600092019190915250505090825250604080516020601f8601819004810282018101909252848152918101919085908590819084018382808284376000920182905250938552505042602080850191909152600160409485018190528c8452808252939092208451815591840151919283019161116c915082611984565b50604082015160028201906111819082611984565b50606082015160038201906111969082611984565b506080820151600482015560a0909101516005909101805460ff1916911515919091179055600280546001810182556000919091527f405787fa12a823e0f2b7631cc41b3ba8828b3321ca811111fa75cd3aa3bb5ace0187905560405187907f6b593d51e0ee5fc77b84f4e295285d4befed97879ae2a338d91d906e0b2fe1929061122e908990899089908990899089904290611b00565b60405180910390a250505050505050565b60606000805b6004548110156112d25760008181526003602081905260409091209081015460ff1661127157506112c0565b80546001600160a01b0386811691161461128b57506112c0565b600081600201541180156112a25750806002015442115b156112ad57506112c0565b60018101546112bc9084611ab1565b9250505b806112ca81611a5a565b915050611245565b5060008167ffffffffffffffff8111156112ee576112ee61191f565b604051908082528060200260200182016040528015611317578160200160208202803683370190505b5090506000805b6004548110156114055760008181526003602081905260409091209081015460ff1661134a57506113f3565b80546001600160a01b0388811691161461136457506113f3565b6000816002015411801561137b5750806002015442115b1561138657506113f3565b60005b60018201548110156113f0578160010181815481106113aa576113aa6118c2565b90600052602060002001548585806113c190611a5a565b9650815181106113d3576113d36118c2565b6020908102919091010152806113e881611a5a565b915050611389565b50505b806113fd81611a5a565b91505061131e565b5090949350505050565b82805482825590600052602060002090810192821561144a579160200282015b8281111561144a57825182559160200191906001019061142f565b50611456929150611497565b5090565b50805461146690611851565b6000825580601f10611476575050565b601f0160209004906000526020600020908101906114949190611497565b50565b5b808211156114565760008155600101611498565b6000602082840312156114be57600080fd5b5035919050565b6000815180845260005b818110156114eb576020818501810151868301820152016114cf565b506000602082860101526020601f19601f83011685010191505092915050565b86815260c06020820152600061152460c08301886114c5565b828103604084015261153681886114c5565b9050828103606084015261154a81876114c5565b6080840195909552505090151560a090910152949350505050565b80356001600160a01b038116811461157c57600080fd5b919050565b6000806040838503121561159457600080fd5b61159d83611565565b946020939093013593505050565b6060815260006115be60608301866114c5565b82810360208401526115d081866114c5565b9150508215156040830152949350505050565b6020808252825182820181905260009190848201906040850190845b8181101561161b578351835292840192918401916001016115ff565b50909695505050505050565b60008083601f84011261163957600080fd5b50813567ffffffffffffffff81111561165157600080fd5b6020830191508360208260051b850101111561166c57600080fd5b9250929050565b60008060008060008060008060a0898b03121561168f57600080fd5b61169889611565565b9750602089013567ffffffffffffffff808211156116b557600080fd5b6116c18c838d01611627565b909950975060408b0135965060608b01359150808211156116e157600080fd5b6116ed8c838d01611627565b909650945060808b013591508082111561170657600080fd5b506117138b828c01611627565b999c989b5096995094979396929594505050565b6000806040838503121561173a57600080fd5b50508035926020909101359150565b60008083601f84011261175b57600080fd5b50813567ffffffffffffffff81111561177357600080fd5b60208301915083602082850101111561166c57600080fd5b60008060008060008060006080888a0312156117a657600080fd5b87359650602088013567ffffffffffffffff808211156117c557600080fd5b6117d18b838c01611749565b909850965060408a01359150808211156117ea57600080fd5b6117f68b838c01611749565b909650945060608a013591508082111561180f57600080fd5b5061181c8a828b01611749565b989b979a50959850939692959293505050565b60006020828403121561184157600080fd5b61184a82611565565b9392505050565b600181811c9082168061186557607f821691505b60208210810361188557634e487b7160e01b600052602260045260246000fd5b50919050565b6020808252601d908201527f4d65645661756c743a2063616c6c6572206973206e6f74206f776e6572000000604082015260600190565b634e487b7160e01b600052603260045260246000fd5b6000808335601e198436030181126118ef57600080fd5b83018035915067ffffffffffffffff82111561190a57600080fd5b60200191503681900382131561166c57600080fd5b634e487b7160e01b600052604160045260246000fd5b601f82111561197f57600081815260208120601f850160051c8101602086101561195c5750805b601f850160051c820191505b8181101561197b57828155600101611968565b5050505b505050565b815167ffffffffffffffff81111561199e5761199e61191f565b6119b2816119ac8454611851565b84611935565b602080601f8311600181146119e757600084156119cf5750858301515b600019600386901b1c1916600185901b17855561197b565b600085815260208120601f198616915b82811015611a16578886015182559484019460019091019084016119f7565b5085821015611a345787850151600019600388901b60f8161c191681555b5050505050600190811b01905550565b634e487b7160e01b600052601160045260246000fd5b600060018201611a6c57611a6c611a44565b5060010190565b6040808252810183905260006001600160fb1b03841115611a9357600080fd5b8360051b808660608501376020830193909352500160600192915050565b80820180821115610c2a57610c2a611a44565b81810381811115610c2a57610c2a611a44565b81835281816020850137506000828201602090810191909152601f909101601f19169091010190565b608081526000611b1460808301898b611ad7565b8281036020840152611b2781888a611ad7565b90508281036040840152611b3c818688611ad7565b9150508260608301529897505050505050505056fea26469706673582212201723bdd2c24759b69237ba234bf6a24bcea148ca7f7fb1dee64f235da43ccce164736f6c63430008140033",
  "linkReferences": {},
  "deployedLinkReferences": {}
}