{
  "_format": "hh-sol-artifact-1",
  "contractName": "VeriHealthRegistry",
  "sourceName": "contracts/VeriHealthRegistry.sol",
  "abi": [
    {
      "inputs": [],
      "stateMutability": "nonpayable",
      "type": "constructor"
    },
    {
      "anonymous": false,
      "inputs": [
        {
          "indexed": true,
          "internalType": "uint256",
          "name": "grantId",
          "type": "uint256"
        },
        {
          "indexed": true,
          "internalType": "address",
          "name": "grantee",
          "type": "address"
        },
        {
          "indexed": false,
          "internalType": "bytes32[]",
          "name": "recordIds",
          "type": "bytes32[]"
        },
        {
          "indexed": false,
          "internalType": "uint256",
          "name": "expiresAt",
          "type": "uint256"
        }
      ],
      "name": "AccessGranted",
      "type": "event"
    },
    {
      "anonymous": false,
      "inputs": [
        {
          "indexed": true,
          "internalType": "uint256",
          "name": "grantId",
          "type": "uint256"
        },
        {
          "indexed": true,
          "internalType": "address",
          "name": "grantee",
          "type": "address"
        }
      ],
      "name": "AccessRevoked",
      "type": "event"
    },
    {
      "anonymous": false,
      "inputs": [
        {
          "indexed": true,
          "internalType": "address",
          "name": "delegate",
          "type": "address"
        }
      ],
      "name": "DelegateAdded",
      "type": "event"
    },
    {
      "anonymous": false,
      "inputs": [
        {
          "indexed": true,
          "internalType": "address",
          "name": "delegate",
          "type": "address"
        }
      ],
      "name": "DelegateKeyEnvelopeSet",
      "type": "event"
    },
    {
      "anonymous": false,
      "inputs": [
        {
          "indexed": true,
          "internalType": "address",
          "name": "delegate",
          "type": "address"
        }
      ],
      "name": "DelegateRemoved",
      "type": "event"
    },
    {
      "anonymous": false,
      "inputs": [
        {
          "indexed": true,
          "internalType": "address",
          "name": "activatedBy",
          "type": "address"
        },
        {
          "indexed": false,
          "internalType": "uint256",
          "name": "timestamp",
          "type": "uint256"
        }
      ],
      "name": "EmergencyActivated",
      "type": "event"
    },
    {
      "anonymous": false,
      "inputs": [
        {
          "indexed": true,
          "internalType": "address",
          "name": "contact",
          "type": "address"
        }
      ],
      "name": "EmergencyContactSet",
      "type": "event"
    },
    {
      "anonymous": false,
      "inputs": [
        {
          "indexed": false,
          "internalType": "uint256",
          "name": "timestamp",
          "type": "uint256"
        }
      ],
      "name": "EmergencyDeactivated",
      "type": "event"
    },
    {
      "anonymous": false,
      "inputs": [
        {
          "indexed": true,
          "internalType": "bytes32",
          "name": "id",
          "type": "bytes32"
        },
        {
          "indexed": false,
          "internalType": "string",
          "name": "ipfsCid",
          "type": "string"
        },
        {
          "indexed": false,
          "internalType": "string",
          "name": "recordType",
          "type": "string"
        },
        {
          "indexed": false,
          "internalType": "string",
          "name": "title",
          "type": "string"
        },
        {
          "indexed": false,
          "internalType": "uint256",
          "name": "timestamp",
          "type": "uint256"
        },
        {
          "indexed": false,
          "internalType": "uint256",
          "name": "version",
          "type": "uint256"
        },
        {
          "indexed": false,
          "internalType": "bytes32",
          "name": "previousId",
          "type": "bytes32"
        }
      ],
      "name": "RecordAdded",
      "type": "event"
    },
    {
      "anonymous": false,
      "inputs": [
        {
          "indexed": true,
          "internalType": "bytes32",
          "name": "id",
          "type": "bytes32"
        }
      ],
      "name": "RecordRemoved",
      "type": "event"
    },
    {
      "inputs": [
        {
          "internalType": "address",
          "name": "grantee",
          "type": "address"
        }
      ],
      "name": "accessibleRecords",
      "outputs": [
        {
          "internalType": "bytes32[]",
          "name": "",
          "type": "bytes32[]"
        }
      ],
      "stateMutability": "view",
      "type": "function"
    },
    {
      "inputs": [],
      "name": "activateEmergency",
      "outputs": [],
      "stateMutability": "nonpayable",
      "type": "function"
    },
    {
      "inputs": [
        {
          "internalType": "address",
          "name": "delegate",
          "type": "address"
        }
      ],
      "name": "addDelegate",
      "outputs": [],
      "stateMutability": "nonpayable",
      "type": "function"
    },
    {
      "inputs": [
        {
          "internalType": "bytes32",
          "name": "id",
          "type": "bytes32"
        },
        {
          "internalType": "string",
          "name": "cid",
          "type": "string"
        },
        {
          "internalType": "string",
          "name": "rType",
          "type": "string"
        },
        {
          "internalType": "string",
          "name": "title",
          "type": "string"
        }
      ],
      "name": "addRecord",
      "outputs": [],
      "stateMutability": "nonpayable",
      "type": "function"
    },
    {
      "inputs": [
        {
          "internalType": "address",
          "name": "grantee",
          "type": "address"
        },
        {
          "internalType": "bytes32",
          "name": "recordId",
          "type": "bytes32"
        }
      ],
      "name": "canAccess",
      "outputs": [
        {
          "internalType": "bool",
          "name": "",
          "type": "bool"
        }
      ],
      "stateMutability": "view",
      "type": "function"
    },
    {
      "inputs": [],
      "name": "deactivateEmergency",
      "outputs": [],
      "stateMutability": "nonpayable",
      "type": "function"
    },
    {
      "inputs": [
        {
          "internalType": "address",
          "name": "",
          "type": "address"
        }
      ],
      "name": "delegateKeyEnvelopes",
      "outputs": [
        {
          "internalType": "string",
          "name": "ciphertext",
          "type": "string"
        },
        {
          "internalType": "string",
          "name": "iv",
          "type": "string"
        },
        {
          "internalType": "bool",
          "name": "exists",
          "type": "bool"
        }
      ],
      "stateMutability": "view",
      "type": "function"
    },
    {
      "inputs": [
        {
          "internalType": "uint256",
          "name": "",
          "type": "uint256"
        }
      ],
      "name": "delegateList",
      "outputs": [
        {
          "internalType": "address",
          "name": "",
          "type": "address"
        }
      ],
      "stateMutability": "view",
      "type": "function"
    },
    {
      "inputs": [
        {
          "internalType": "address",
          "name": "",
          "type": "address"
        }
      ],
      "name": "delegates",
      "outputs": [
        {
          "internalType": "bool",
          "name": "",
          "type": "bool"
        }
      ],
      "stateMutability": "view",
      "type": "function"
    },
    {
      "inputs": [],
      "name": "emergencyActivatedAt",
      "outputs": [
        {
          "internalType": "uint256",
          "name": "",
          "type": "uint256"
        }
      ],
      "stateMutability": "view",
      "type": "function"
    },
    {
      "inputs": [],
      "name": "emergencyActive",
      "outputs": [
        {
          "internalType": "bool",
          "name": "",
          "type": "bool"
        }
      ],
      "stateMutability": "view",
      "type": "function"
    },
    {
      "inputs": [],
      "name": "emergencyContact",
      "outputs": [
        {
          "internalType": "address",
          "name": "",
          "type": "address"
        }
      ],
      "stateMutability": "view",
      "type": "function"
    },
    {
      "inputs": [
        {
          "internalType": "address",
          "name": "delegate",
          "type": "address"
        }
      ],
      "name": "getDelegateKeyEnvelope",
      "outputs": [
        {
          "internalType": "string",
          "name": "ciphertext",
          "type": "string"
        },
        {
          "internalType": "string",
          "name": "iv",
          "type": "string"
        },
        {
          "internalType": "bool",
          "name": "exists",
          "type": "bool"
        }
      ],
      "stateMutability": "view",
      "type": "function"
    },
    {
      "inputs": [],
      "name": "getDelegates",
      "outputs": [
        {
          "internalType": "address[]",
          "name": "",
          "type": "address[]"
        }
      ],
      "stateMutability": "view",
      "type": "function"
    },
    {
      "inputs": [],
      "name": "getGrantCount",
      "outputs": [
        {
          "internalType": "uint256",
          "name": "",
          "type": "uint256"
        }
      ],
      "stateMutability": "view",
      "type": "function"
    },
    {
      "inputs": [
        {
          "internalType": "uint256",
          "name": "grantId",
          "type": "uint256"
        }
      ],
      "name": "getGrantRecordIds",
      "outputs": [
        {
          "internalType": "bytes32[]",
          "name": "",
          "type": "bytes32[]"
        }
      ],
      "stateMutability": "view",
      "type": "function"
    },
    {
      "inputs": [
        {
          "internalType": "address",
          "name": "grantee",
          "type": "address"
        },
        {
          "internalType": "bytes32",
          "name": "recordId",
          "type": "bytes32"
        }
      ],
      "name": "getKeyEnvelope",
      "outputs": [
        {
          "internalType": "string",
          "name": "ciphertext",
          "type": "string"
        },
        {
          "internalType": "string",
          "name": "iv",
          "type": "string"
        },
        {
          "internalType": "bool",
          "name": "exists",
          "type": "bool"
        }
      ],
      "stateMutability": "view",
      "type": "function"
    },
    {
      "inputs": [],
      "name": "getRecordCount",
      "outputs": [
        {
          "internalType": "uint256",
          "name": "",
          "type": "uint256"
        }
      ],
      "stateMutability": "view",
      "type": "function"
    },
    {
      "inputs": [
        {
          "internalType": "uint256",
          "name": "offset",
          "type": "uint256"
        },
        {
          "internalType": "uint256",
          "name": "limit",
          "type": "uint256"
        }
      ],
      "name": "getRecordIds",
      "outputs": [
        {
          "internalType": "bytes32[]",
          "name": "",
          "type": "bytes32[]"
        }
      ],
      "stateMutability": "view",
      "type": "function"
    },
    {
      "inputs": [
        {
          "internalType": "bytes32",
          "name": "id",
          "type": "bytes32"
        }
      ],
      "name": "getVersionHistory",
      "outputs": [
        {
          "internalType": "bytes32[]",
          "name": "ids",
          "type": "bytes32[]"
        },
        {
          "internalType": "uint256[]",
          "name": "versions",
          "type": "uint256[]"
        }
      ],
      "stateMutability": "view",
      "type": "function"
    },
    {
      "inputs": [
        {
          "internalType": "address",
          "name": "grantee",
          "type": "address"
        },
        {
          "internalType": "bytes32[]",
          "name": "rIds",
          "type": "bytes32[]"
        },
        {
          "internalType": "uint256",
          "name": "expiresAt",
          "type": "uint256"
        },
        {
          "internalType": "string[]",
          "name": "ciphertexts",
          "type": "string[]"
        },
        {
          "internalType": "string[]",
          "name": "ivs",
          "type": "string[]"
        }
      ],
      "name": "grantAccess",
      "outputs": [
        {
          "internalType": "uint256",
          "name": "grantId",
          "type": "uint256"
        }
      ],
      "stateMutability": "nonpayable",
      "type": "function"
    },
    {
      "inputs": [],
      "name": "grantCount",
      "outputs": [
        {
          "internalType": "uint256",
          "name": "",
          "type": "uint256"
        }
      ],
      "stateMutability": "view",
      "type": "function"
    },
    {
      "inputs": [
        {
          "internalType": "uint256",
          "name": "",
          "type": "uint256"
        }
      ],
      "name": "grants",
      "outputs": [
        {
          "internalType": "address",
          "name": "grantee",
          "type": "address"
        },
        {
          "internalType": "uint256",
          "name": "expiresAt",
          "type": "uint256"
        },
        {
          "internalType": "bool",
          "name": "active",
          "type": "bool"
        }
      ],
      "stateMutability": "view",
      "type": "function"
    },
    {
      "inputs": [
        {
          "internalType": "address",
          "name": "",
          "type": "address"
        },
        {
          "internalType": "bytes32",
          "name": "",
          "type": "bytes32"
        }
      ],
      "name": "keyEnvelopes",
      "outputs": [
        {
          "internalType": "string",
          "name": "ciphertext",
          "type": "string"
        },
        {
          "internalType": "string",
          "name": "iv",
          "type": "string"
        },
        {
          "internalType": "bool",
          "name": "exists",
          "type": "bool"
        }
      ],
      "stateMutability": "view",
      "type": "function"
    },
    {
      "inputs": [
        {
          "internalType": "bytes32",
          "name": "",
          "type": "bytes32"
        }
      ],
      "name": "latestVersion",
      "outputs": [
        {
          "internalType": "bytes32",
          "name": "",
          "type": "bytes32"
        }
      ],
      "stateMutability": "view",
      "type": "function"
    },
    {
      "inputs": [],
      "name": "owner",
      "outputs": [
        {
          "internalType": "address",
          "name": "",
          "type": "address"
        }
      ],
      "stateMutability": "view",
      "type": "function"
    },
    {
      "inputs": [
        {
          "internalType": "uint256",
          "name": "",
          "type": "uint256"
        }
      ],
      "name": "recordIds",
      "outputs": [
        {
          "internalType": "bytes32",
          "name": "",
          "type": "bytes32"
        }
      ],
      "stateMutability": "view",
      "type": "function"
    },
    {
      "inputs": [
        {
          "internalType": "bytes32",
          "name": "",
          "type": "bytes32"
        }
      ],
      "name": "records",
      "outputs": [
        {
          "internalType": "bytes32",
          "name": "contentHash",
          "type": "bytes32"
        },
        {
          "internalType": "string",
          "name": "ipfsCid",
          "type": "string"
        },
        {
          "internalType": "string",
          "name": "recordType",
          "type": "string"
        },
        {
          "internalType": "string",
          "name": "title",
          "type": "string"
        },
        {
          "internalType": "uint256",
          "name": "timestamp",
          "type": "uint256"
        },
        {
          "internalType": "bool",
          "name": "active",
          "type": "bool"
        },
        {
          "internalType": "uint256",
          "name": "version",
          "type": "uint256"
        },
        {
          "internalType": "bytes32",
          "name": "previousId",
          "type": "bytes32"
        },
        {
          "internalType": "address",
          "name": "uploadedBy",
          "type": "address"
        }
      ],
      "stateMutability": "view",
      "type": "function"
    },
    {
      "inputs": [
        {
          "internalType": "address",
          "name": "delegate",
          "type": "address"
        }
      ],
      "name": "removeDelegate",
      "outputs": [],
      "stateMutability": "nonpayable",
      "type": "function"
    },
    {
      "inputs": [
        {
          "internalType": "bytes32",
          "name": "id",
          "type": "bytes32"
        }
      ],
      "name": "removeRecord",
      "outputs": [],
      "stateMutability": "nonpayable",
      "type": "function"
    },
    {
      "inputs": [
        {
          "internalType": "uint256",
          "name": "grantId",
          "type": "uint256"
        }
      ],
      "name": "revokeAccess",
      "outputs": [],
      "stateMutability": "nonpayable",
      "type": "function"
    },
    {
      "inputs": [
        {
          "internalType": "address",
          "name": "delegate",
          "type": "address"
        },
        {
          "internalType": "string",
          "name": "ciphertext",
          "type": "string"
        },
        {
          "internalType": "string",
          "name": "iv",
          "type": "string"
        }
      ],
      "name": "setDelegateKeyEnvelope",
      "outputs": [],
      "stateMutability": "nonpayable",
      "type": "function"
    },
    {
      "inputs": [
        {
          "internalType": "address",
          "name": "contact",
          "type": "address"
        }
      ],
      "name": "setEmergencyContact",
      "outputs": [],
      "stateMutability": "nonpayable",
      "type": "function"
    },
    {
      "inputs": [
        {
          "internalType": "bytes32",
          "name": "previousId",
          "type": "bytes32"
        },
        {
          "internalType": "bytes32",
          "name": "newId",
          "type": "bytes32"
        },
        {
          "internalType": "string",
          "name": "newCid",
          "type": "string"
        },
        {
          "internalType": "string",
          "name": "rType",
          "type": "string"
        },
        {
          "internalType": "string",
          "name": "title",
          "type": "string"
        }
      ],
      "name": "updateRecord",
      "outputs": [],
      "stateMutability": "nonpayable",
      "type": "function"
    }
  ],
  "bytecode": "0x6080806040523461002857600080546001600160a01b03191633179055612f6b908161002e8239f35b600080fdfe6080604052600436101561001257600080fd5b60003560e01c806301e647251461249d5780630a64b25a146124465780630bc36d1e1461237e5780630c0debea1461232e57806310083a9f146122ab57806313b7007e14611fb55780633d63f21514611f97578063418a1757146119f0578063457e8b971461188f578063495129dc1461122d5780634a0e03821461119b5780634f3cefa91461116a578063587cde1e1461112b57806367e7646f14610fe45780637146b30814610e585780637aca68df14610dfb5780637c1b6afe14610b135780638da5cb5b14610dd257806391284a8914610d5a57806397ddbef914610d23578063a80038c014610cdd578063a939e8ef14610cb4578063ad9a9ea514610c72578063b7583d6c14610c17578063c838ccb614610b4f578063ca267f2814610b31578063cab4267214610b13578063e1b97d69146109d1578063e71bdf41146108b4578063e9e1075214610888578063eddaa3ab14610862578063eea5d1091461027e578063fa686948146101d35763fb89b9391461019257600080fd5b346101ce5760203660031901126101ce576101ca6101b66101b16126e7565b612cc8565b60405191829160208352602083019061272f565b0390f35b600080fd5b346101ce5760003660031901126101ce576101f960018060a01b0360005416331461285c565b60015460ff8160a01c16156102405760ff60a01b19166001556040514281527f8d644c4cfec2567a9952615546f77884031d4a65ee0640adb5abcd04c1c57ded90602090a1005b60405162461bcd60e51b8152602060048201526016602482015275566572694865616c74683a206e6f742061637469766560501b6044820152606490fd5b346101ce5760803660031901126101ce576024356001600160401b0381116101ce576102ae903690600401612763565b906044356001600160401b0381116101ce576102ce903690600401612763565b906064356001600160401b0381116101ce576102ee903690600401612763565b92909360018060a01b036000541633148015610849575b61030e9061295c565b600435600052600560205260ff600560406000200154166107fa57604051610335816125c4565b60043581526103453688846129bc565b60208201526103553684866129bc565b60408201526103653686886129bc565b6060820152426080820152600160a0820152600160c0820152600060e082015233610100820152600435600052600560205260406000208151815560208201518051906001600160401b0382116106805781906103c5600185015461256f565b601f81116107c5575b50602090601f831160011461075357600092610748575b50508160011b916000199060031b1c19161760018201555b60408201518051906001600160401b038211610680578190610422600285015461256f565b601f8111610713575b50602090601f83116001146106a157600092610696575b50508160011b916000199060031b1c19161760028201555b60608201518051906001600160401b0382116106805761047d600384015461256f565b601f8111610640575b50602090601f83116001146105af5793600861058599979484610569956105779995600080516020612f168339815191529e9c996000926105a4575b50508160011b916000199060031b1c19161760038201555b6080830151600482015561050360a08401511515600583019060ff801983541691151516179055565b60c0830151600682015560e08301516007820155019061010060018060a01b03910151166001600160601b0360a01b825416179055610543600435612a19565b600435600052600a6020526004356040600020556040519960c08b5260c08b0191612a50565b9188830360208a0152612a50565b918583036040870152612a50565b9142606082015260016080820152600060a082015280600435930390a2005b015190508f806104c2565b906003840160005260206000209160005b601f198516811061062857506105859997946001856105779995600080516020612f168339815191529e9c999560089561056999601f1981161061060f575b505050811b0160038201556104da565b015160001960f88460031b161c191690558f80806105ff565b919260206001819286850151815501940192016105c0565b61067090600385016000526020600020601f850160051c81019160208610610676575b601f0160051c0190612a02565b8a610486565b9091508190610663565b634e487b7160e01b600052604160045260246000fd5b015190508a80610442565b9250600284016000526020600020906000935b601f19841685106106f8576001945083601f198116106106df575b505050811b01600282015561045a565b015160001960f88460031b161c191690558a80806106cf565b818101518355602094850194600190930192909101906106b4565b61074290600286016000526020600020601f850160051c8101916020861061067657601f0160051c0190612a02565b8b61042b565b015190508a806103e5565b9250600184016000526020600020906000935b601f19841685106107aa576001945083601f19811610610791575b505050811b0160018201556103fd565b015160001960f88460031b161c191690558a8080610781565b81810151835560209485019460019093019290910190610766565b6107f490600186016000526020600020601f850160051c8101916020861061067657601f0160051c0190612a02565b8b6103ce565b60405162461bcd60e51b815260206004820152602160248201527f566572694865616c74683a207265636f726420616c72656164792065786973746044820152607360f81b6064820152608490fd5b503360009081526003602052604090205460ff16610305565b346101ce5760003660031901126101ce57602060ff60015460a01c166040519015158152f35b346101ce5760203660031901126101ce57600435600052600a6020526020604060002054604051908152f35b346101ce5760203660031901126101ce576108cd6126e7565b6000546001600160a01b03906108e6908216331461285c565b8116906108f48215156128a8565b81600052600360205260ff6040600020541661098c578160005260036020526040600020600160ff1982541617905560045490600160401b82101561068057610946826001610965940160045561280d565b90919082549060031b9160018060a01b03809116831b921b1916179055565b7f3be018e2afae1fe2bb23bb3cc019524cfe3872f2863d1c80b7a228c57bc1065a600080a2005b60405162461bcd60e51b815260206004820152601e60248201527f566572694865616c74683a20616c726561647920612064656c656761746500006044820152606490fd5b346101ce576020806003193601126101ce5760043560018060a01b036109fc8160005416331461285c565b816000526007835260039060ff82604060002001541615610ace578260005260078452604060002093600060018092818801915b610a6d575b50505050835416920160ff1981541690557f125883b94692baebecad9f111ed97ffa626523bbbadc6b0ef85ee1b56b9e52d5600080a3005b8154831015610ac957610ac38493868a5416600052600983526040600020610a958286612844565b9054908a1b1c60005283526000600260408220610ab181612b8c565b610abc888201612b8c565b0155612940565b92610a30565b610a35565b60405162461bcd60e51b815260048101859052601c60248201527f566572694865616c74683a206772616e74206e6f7420616374697665000000006044820152606490fd5b346101ce5760003660031901126101ce576020600854604051908152f35b346101ce5760003660031901126101ce576020600654604051908152f35b346101ce5760003660031901126101ce57604051806004548083526020809301809160046000527f8a35acfbc15ff81a39ae7d344fd709f28e8600b4aa8c65c6b64bfe7fe36bd19b9060005b86828210610bfa578686610bb1828803836125e0565b604051928392818401908285525180915260408401929160005b828110610bda57505050500390f35b83516001600160a01b031685528695509381019392810192600101610bcb565b83546001600160a01b031685529093019260019283019201610b9b565b346101ce5760203660031901126101ce576001600160a01b03610c386126e7565b16600052600b6020526040600020610c4f81612601565b6101ca60ff6002610c6260018601612601565b94015416604051938493846126fd565b346101ce5760203660031901126101ce576004356004548110156101ce57610c9b60209161280d565b905460405160039290921b1c6001600160a01b03168152f35b346101ce5760003660031901126101ce576001546040516001600160a01b039091168152602090f35b346101ce5760403660031901126101ce576001600160a01b03610cfe6126e7565b16600052600960205260406000206024356000526020526040600020610c4f81612601565b346101ce5760203660031901126101ce576004356006548110156101ce57610d4c6020916127c0565b90546040519160031b1c8152f35b346101ce5760203660031901126101ce57610d736126e7565b6000546001600160a01b039190610d8d908316331461285c565b16610d998115156128a8565b600180546001600160a01b031916821790557f088d16856be2ecc2505c060a3d340f119f9e4ef3a3226ad2c96904a5b6855c63600080a2005b346101ce5760003660031901126101ce576000546040516001600160a01b039091168152602090f35b346101ce5760203660031901126101ce576001600160a01b03610e1c6126e7565b16600052600b602052604060002060ff600282015416906101ca610e4b6001610e4484612601565b9301612601565b92604051938493846126fd565b346101ce576020806003193601126101ce57610e75600435612a7e565b906000916000916006928354905b818110610f9a5750610e9485612ab9565b93610eb7610ea187612aa2565b96610eaf60405198896125e0565b808852612aa2565b8684019490601f190136863760009160005b848110610f2557610eec8888888c8160405195869560408752604087019061272f565b9185830382870152519182815201929160005b828110610f0e57505050500390f35b835185528695509381019392810192600101610eff565b610f3281999798996127c0565b90549060031b1c8984610f4483612a7e565b14610f5e575b5050610f5590612940565b97969597610ec9565b9481610f9292610f7283610f559699612aeb565b52600052600588528360406000200154610f8c828b612aeb565b52612940565b939089610f4a565b83610fb7610fab83989697986127c0565b90549060031b1c612a7e565b14610fcf575b610fc690612940565b94939294610e83565b92610fdc610fc691612940565b939050610fbd565b346101ce5760203660031901126101ce57610ffd6126e7565b6000546001600160a01b03918291611018908316331461285c565b16908160005260038060205261103560ff604060002054166128f4565b8260005280602052604060002060ff19815416905560005b600454808210156111225784846110638461280d565b905490861b1c161461107e575061107990612940565b61104d565b9192916000199181830191821161110c576109468461109f6110ac9461280d565b905490881b1c169161280d565b60045480156110f65701916110c08361280d565b81939154921b1b191690556004555b7f5a362b199d4fb2bd4e51a3436d86df24cb19b1b0890da774e2b54253d53aa4eb600080a2005b634e487b7160e01b600052603160045260246000fd5b634e487b7160e01b600052601160045260246000fd5b505050506110cf565b346101ce5760203660031901126101ce576001600160a01b0361114c6126e7565b166000526003602052602060ff604060002054166040519015158152f35b346101ce5760403660031901126101ce5760206111916111886126e7565b60243590612bd5565b6040519015158152f35b346101ce5760403660031901126101ce576004356111bb60243582612a71565b600654808211611225575b506111d96111d4838361294f565b612ab9565b91805b8281106111f957604051602080825281906101ca9082018761272f565b80611206611220926127c0565b90549060031b1c610f8c61121a858461294f565b87612aeb565b6111dc565b9050826111c6565b346101ce5760a03660031901126101ce576044356001600160401b0381116101ce5761125d903690600401612763565b6064356001600160401b0381116101ce5761127c903690600401612763565b906084356001600160401b0381116101ce5761129c903690600401612763565b91909260018060a01b036000541633148015611876575b6112bc9061295c565b600435600052600560205260ff600560406000200154161561182357602435600052600560205260ff600560406000200154166117d05760043560005260056020526006604060002001549560018701871161110c576004356000526005602052600560406000200160ff198154169055604051611339816125c4565b60243581526113493688846129bc565b60208201526113593684866129bc565b60408201526113693686886129bc565b6060820152426080820152600160a08201526001880160c082015260043560e082015233610100820152602435600052600560205260406000208151815560208201518051906001600160401b0382116106805781906113cc600185015461256f565b601f811161179b575b50602090601f83116001146117295760009261171e575b50508160011b916000199060031b1c19161760018201555b60408201518051906001600160401b038211610680578190611429600285015461256f565b601f81116116e9575b50602090601f83116001146116775760009261166c575b50508160011b916000199060031b1c19161760028201555b60608201518051906001600160401b03821161068057611484600384015461256f565b601f8111611637575b50602090601f83116001146115a35794610577946008611579999585600080516020612f168339815191529e9d9a966105699660019e9b600092611598575b5050818e1b916000199060031b1c19161760038201555b6080830151600482015561150c60a08401511515600583019060ff801983541691151516179055565b60c0830151600682015560e0830151600782015501906101008b8060a01b03910151166001600160601b0360a01b82541617905561154b602435612a19565b611556600435612a7e565b600052600a6020526024356040600020556040519960c08b5260c08b0191612a50565b9342606084015201608082015260043560a082015280602435930390a2005b0151905038806114cc565b906003840160005260206000209160005b601f198516811061161f57509460086115799995600186600080516020612f168339815191529f9e9b9796829e9b966105779b61056999601f19811610611606575b505050811b0160038201556114e3565b015160001960f88460031b161c191690553880806115f6565b919260206001819286850151815501940192016115b4565b61166690600385016000526020600020601f850160051c8101916020861061067657601f0160051c0190612a02565b8b61148d565b015190508b80611449565b9250600284016000526020600020906000935b601f19841685106116ce576001945083601f198116106116b5575b505050811b016002820155611461565b015160001960f88460031b161c191690558b80806116a5565b8181015183556020948501946001909301929091019061168a565b61171890600286016000526020600020601f850160051c8101916020861061067657601f0160051c0190612a02565b8c611432565b015190508b806113ec565b9250600184016000526020600020906000935b601f1984168510611780576001945083601f19811610611767575b505050811b016001820155611404565b015160001960f88460031b161c191690558b8080611757565b8181015183556020948501946001909301929091019061173c565b6117ca90600186016000526020600020601f850160051c8101916020861061067657601f0160051c0190612a02565b8c6113d5565b60405162461bcd60e51b815260206004820152602560248201527f566572694865616c74683a206e6577207265636f726420616c72656164792065604482015264786973747360d81b6064820152608490fd5b60405162461bcd60e51b815260206004820152602560248201527f566572694865616c74683a2070726576696f7573207265636f7264206e6f7420604482015264199bdd5b9960da1b6064820152608490fd5b503360009081526003602052604090205460ff166112b3565b346101ce5760003660031901126101ce576001546001600160a01b038116338190036119a15760ff8260a01c1661195c571561190b5760ff60a01b1916600160a01b1760015542600281905560405190815233907f774b57c3410c76d04ea4d51b0c15a9bac99b0e70f28fd88b53d702b5427fd31890602090a2005b60405162461bcd60e51b8152602060048201526024808201527f566572694865616c74683a206e6f20656d657267656e637920636f6e74616374604482015263081cd95d60e21b6064820152608490fd5b60405162461bcd60e51b815260206004820152601a60248201527f566572694865616c74683a20616c7265616479206163746976650000000000006044820152606490fd5b60405162461bcd60e51b815260206004820152602160248201527f566572694865616c74683a206e6f7420656d657267656e637920636f6e7461636044820152601d60fa1b6064820152608490fd5b346101ce5760a03660031901126101ce57611a096126e7565b6024356001600160401b0381116101ce57611a28903690600401612790565b6064929192356001600160401b0381116101ce57611a4a903690600401612790565b906084356001600160401b0381116101ce57611a6a903690600401612790565b92611a8060018060a01b0360005416331461285c565b611a946001600160a01b03871615156128a8565b8415611f5957611aa5818614612aff565b611ab0848614612aff565b60005b858110611caa5787878760085491611aca83612940565b600855604051608081018181106001600160401b03821117610680576040526001600160a01b0382168152611afe83612aa2565b90611b0c60405192836125e0565b83825260208201368560051b8801116101ce5786905b8560051b88018210611c9a5750506020810191825260443560408201526001606082015284600052600760205260406000209160018060a01b038251166001600160601b0360a01b845416178355518051906001600160401b03821161068057600160401b8211610680576001840154826001860155808310611c6d575b5060200160018401600052602060002060005b838110611c5957505050509060036060836040611be895015160028501550151151591019060ff801983541691151516179055565b60408051818152908101839052936001600160fb1b0383116101ce5784606060209686947f1f2e08a4efda97e980d4714b54d2e5079d08337efd4d9646b042c13bc5c5df7e948760051b9084840137604435828a01526001600160a01b03169560051b8101030190a3604051908152f35b600190602084519401938184015501611bb3565b600185016000526020600020908382015b8183018110611c8e575050611ba0565b60008155600101611c7e565b8135815260209182019101611b22565b611ce8611cb8828487612b4b565b9190611cdf611cc8858a89612b4b565b91909260405195611cd8876125a9565b36916129bc565b845236916129bc565b60208201526001604082015260018060a01b038816600052600960205260406000208260051b8a013560005260205260406000209080518051906001600160401b038211610680578190611d3c855461256f565b601f8111611f27575b50602090601f8311600114611ebb57600092611eb0575b50508160011b916000199060031b1c19161782555b6001820160208201518051906001600160401b03821161068057611d95835461256f565b601f8111611e7e575b50602090601f8311600114611e085793611df896959383600294604094611df398600092611dfd575b50508160011b916000199060031b1c19161790555b0151151591019060ff801983541691151516179055565b612940565b611ab3565b015190503880611dc7565b90601f198316918460005260206000209260005b818110611e66575084604094611df39894611df89b9a989460029860019510611e4d575b505050811b019055611ddc565b015160001960f88460031b161c19169055388080611e40565b92936020600181928786015181550195019301611e1c565b611eaa90846000526020600020601f850160051c8101916020861061067657601f0160051c0190612a02565b8d611d9e565b015190508c80611d5c565b9250846000526020600020906000935b601f1984168510611f0c576001945083601f19811610611ef3575b505050811b018255611d71565b015160001960f88460031b161c191690558c8080611ee6565b81810151835560209485019460019093019290910190611ecb565b611f5390866000526020600020601f850160051c8101916020861061067657601f0160051c0190612a02565b8d611d45565b60405162461bcd60e51b8152602060048201526016602482015275566572694865616c74683a206e6f207265636f72647360501b6044820152606490fd5b346101ce5760003660031901126101ce576020600254604051908152f35b346101ce5760603660031901126101ce57611fce6126e7565b6001600160401b036024358181116101ce57611fee903690600401612763565b90916044358181116101ce5761200b61205d913690600401612763565b60005490966001600160a01b0391612026908316331461285c565b1695866000526120546020966003885261204760ff604060002054166128f4565b60405196611cd8886125a9565b855236916129bc565b8383019081526040830191600180845286600052600b86526040600020945180518381116106805780612090885461256f565b92601f938a85821161227c575b505089908483116001146122195760009261220e575b5050600019600383901b1c191690831b1786555b8186019351968751938411610680576120e0855461256f565b8281116121d6575b5080918411600114612164575091808092600296959461213299600094612159575b50501b916000199060031b1c19161790555b51151591019060ff801983541691151516179055565b7f9b57e03de11aa9a46299e1fd1ae1e9b7ff9327777815c40055cc13ecffc29fa9600080a2005b015192508a8061210a565b9193949596601f1984168660005283600020936000905b8282106121bf575050916121329897959391856002989694106121a6575b505050811b01905561211c565b015160001960f88460031b161c19169055888080612199565b80888697829497870151815501960194019061217b565b6121ff9086600052826000208480880160051c820192858910612205575b0160051c0190612a02565b896120e8565b925081926121f4565b015190508a806120b3565b90859350601f198316918a6000528b6000209260005b8d828210612266575050841161224d575b505050811b0186556120c7565b015160001960f88460031b161c191690558a8080612240565b838501518655899790950194938401930161222f565b6122a4918b60005286826000209181870160051c8301938710612205570160051c0190612a02565b8b8a61209d565b346101ce576020806003193601126101ce576004356000526007815260019081604060002001916040519081938491848254948581520191600052846000209060005b86868210612318578590612304828703836125e0565b6101ca60405192828493845283019061272f565b83548552889550909301929181019181016122ee565b346101ce5760203660031901126101ce5760043560005260076020526060604060002060018060a01b038154169060ff600360028301549201541690604051928352602083015215156040820152f35b346101ce5760203660031901126101ce576004356123a760018060a01b0360005416331461285c565b80600052600560205260ff600560406000200154161561240157806000526005602052600560406000200160ff1981541690557f3813d5e4633aa2a982d4b41c4798354673e514a3dde9fa140a8a32ec1c2208f1600080a2005b60405162461bcd60e51b815260206004820152601c60248201527f566572694865616c74683a207265636f7264206e6f7420666f756e64000000006044820152606490fd5b346101ce5760403660031901126101ce576001600160a01b036124676126e7565b1660005260096020526040600020602435600052602052604060002060ff600282015416906101ca610e4b6001610e4484612601565b346101ce5760203660031901126101ce576004356000526005602052604060002080546124cc60018301612601565b916124d960028201612601565b6124e560038301612601565b9160048101549260ff60058301541661254e600684015492612540600786015495600860018060a01b0391015416966125326040519b8c9b8c5260208c61012091829101528c01906126a7565b908a820360408c01526126a7565b9088820360608a01526126a7565b946080870152151560a086015260c085015260e08401526101008301520390f35b90600182811c9216801561259f575b602083101461258957565b634e487b7160e01b600052602260045260246000fd5b91607f169161257e565b606081019081106001600160401b0382111761068057604052565b61012081019081106001600160401b0382111761068057604052565b90601f801991011681019081106001600160401b0382111761068057604052565b90604051918260008254926126158461256f565b9081845260019485811690816000146126845750600114612641575b505061263f925003836125e0565b565b9093915060005260209081600020936000915b81831061266c57505061263f93508201013880612631565b85548884018501529485019487945091830191612654565b91505061263f94506020925060ff191682840152151560051b8201013880612631565b919082519283825260005b8481106126d3575050826000602080949584010152601f8019910116010190565b6020818301810151848301820152016126b2565b600435906001600160a01b03821682036101ce57565b91612727906127196040939695966060865260608601906126a7565b9084820360208601526126a7565b931515910152565b90815180825260208080930193019160005b82811061274f575050505090565b835185529381019392810192600101612741565b9181601f840112156101ce578235916001600160401b0383116101ce57602083818601950101116101ce57565b9181601f840112156101ce578235916001600160401b0383116101ce576020808501948460051b0101116101ce57565b6006548110156127f75760066000527ff652222313e28459528d920b65115c16c04f3efc82aaedc97be59f3f377c0d3f0190600090565b634e487b7160e01b600052603260045260246000fd5b6004548110156127f75760046000527f8a35acfbc15ff81a39ae7d344fd709f28e8600b4aa8c65c6b64bfe7fe36bd19b0190600090565b80548210156127f75760005260206000200190600090565b1561286357565b60405162461bcd60e51b815260206004820152601f60248201527f566572694865616c74683a2063616c6c6572206973206e6f74206f776e6572006044820152606490fd5b156128af57565b60405162461bcd60e51b815260206004820152601860248201527f566572694865616c74683a207a65726f206164647265737300000000000000006044820152606490fd5b156128fb57565b60405162461bcd60e51b815260206004820152601a60248201527f566572694865616c74683a206e6f7420612064656c65676174650000000000006044820152606490fd5b600019811461110c5760010190565b9190820391821161110c57565b1561296357565b60405162461bcd60e51b815260206004820152602b60248201527f566572694865616c74683a2063616c6c6572206973206e6f74206f776e65722060448201526a6f722064656c656761746560a81b6064820152608490fd5b9291926001600160401b03821161068057604051916129e5601f8201601f1916602001846125e0565b8294818452818301116101ce578281602093846000960137010152565b818110612a0d575050565b60008155600101612a02565b600654600160401b81101561068057806001612a3892016006556127c0565b819291549060031b91821b91600019901b1916179055565b908060209392818452848401376000828201840152601f01601f1916010190565b9190820180921161110c57565b5b6007604060008381526005602052200154908115612a9d5750612a7f565b905090565b6001600160401b0381116106805760051b60200190565b90612ac382612aa2565b612ad060405191826125e0565b8281528092612ae1601f1991612aa2565b0190602036910137565b80518210156127f75760209160051b010190565b15612b0657565b60405162461bcd60e51b815260206004820152601b60248201527f566572694865616c74683a206c656e677468206d69736d6174636800000000006044820152606490fd5b91908110156127f75760051b81013590601e19813603018212156101ce5701908135916001600160401b0383116101ce5760200182360381136101ce579190565b612b96815461256f565b9081612ba0575050565b81601f60009311600114612bb2575055565b908083918252612bd1601f60208420940160051c840160018501612a02565b5555565b600180546001600160a01b0393928416929084811684149081612cba575b50612cb3576008549360005b858110612c1157505050505050600090565b8060005260076020526040600020600360ff818301541615612c9e57868483541603612c9e5760028201548015159081612ca9575b50612c9e5785600092018054925b838110612c6d5750505050612c6890612940565b612bff565b86612c788284612844565b905490851b1c14612c9157612c8c90612940565b612c54565b5050505050505091505090565b5050612c6890612940565b9050421138612c46565b5091505090565b60ff915060a01c1638612bf3565b600180546001600160a01b039283169083811682149081612f07575b50612e2e57600854916000805b848210612dc257612d029150612ab9565b93600091825b858110612d185750505050505090565b8060005260076020526040600020600360ff818301541615612dad57868583541603612dad5760028201548015159081612db8575b50612dad5790889184600092018054925b838110612d78575050505050612d7390612940565b612d08565b8192939498610f8c612d8d83612da395612844565b905490871b1c91612d9d81612940565b9b612aeb565b908a939291612d5e565b5050612d7390612940565b9050421138612d4d565b81600052600760205282604060002060ff60038201541615612e1857858882541603612e185760028101548015159081612e24575b50612e18570154612e1291612e0c9190612a71565b91612940565b90612cf1565b505090612e1290612940565b9050421138612df7565b505050600080600654915b828110612ebc5750612e4a90612ab9565b906000805b828110612e5c5750505090565b80612e69612e8f926127c0565b9054600391821b1c60005260ff6005806020526040600020015416612e94575b50612940565b612e4f565b612e9d826127c0565b9054911b1c612eb5612eae85612940565b9487612aeb565b5238612e89565b612ec5816127c0565b90549060031b1c60005260ff6005806020526040600020015416612ef2575b612eed90612940565b612e39565b90612eff612eed91612940565b919050612ee4565b60ff915060a01c1638612ce456fe58a75328fb54ab568bebe4d096171cf279c521205b8a4a6ecb16ea22e1fd86eca26469706673582212200e586c0d77db52c0ff30f6759834e593882de7d10d8868774e27ae0ade7677da64736f6c63430008140033",
  "linkReferences": {},
  "deployedLinkReferences": {}
}