{
  "_format": "hh-sol-artifact-1",
  "contractName": "VeriHealthRegistry",
  "sourceName": "contracts/VeriHealthRegistry.sol",
  "abi": [
    {
      "inputs": [],
      "stateMutability": "nonpayable",
      "type": "constructor"
    },
    {
      "anonymous": false,
      "inputs": [
        {
          "indexed": true,
          "internalType": "uint256",
          "name": "grantId",
          "type": "uint256"
        },
        {
          "indexed": true,
          "internalType": "address",
          "name": "grantee",
          "type": "address"
        },
        {
          "indexed": false,
          "internalType": "bytes32[]",
          "name": "recordIds",
          "type": "bytes32[]"
        },
        {
          "indexed": false,
          "internalType": "uint256",
          "name": "expiresAt",
          "type": "uint256"
        }
      ],
      "name": "AccessGranted",
      "type": "event"
    },
    {
      "anonymous": false,
      "inputs": [
        {
          "indexed": true,
          "internalType": "uint256",
          "name": "grantId",
          "type": "uint256"
        },
        {
          "indexed": true,
          "internalType": "address",
          "name": "grantee",
          "type": "address"
        }
      ],
      "name": "AccessRevoked",
      "type": "event"
    },
    {
      "anonymous": false,
      "inputs": [
        {
          "indexed": true,
          "internalType": "bytes32",
          "name": "id",
          "type": "bytes32"
        },
        {
          "indexed": false,
          "internalType": "string",
          "name": "ipfsCid",
          "type": "string"
        },
        {
          "indexed": false,
          "internalType": "string",
          "name": "recordType",
          "type": "string"
        },
        {
          "indexed": false,
          "internalType": "string",
          "name": "title",
          "type": "string"
        },
        {
          "indexed": false,
          "internalType": "uint256",
          "name": "timestamp",
          "type": "uint256"
        },
        {
          "indexed": false,
          "internalType": "uint256",
          "name": "version",
          "type": "uint256"
        },
        {
          "indexed": false,
          "internalType": "bytes32",
          "name": "previousId",
          "type": "bytes32"
        }
      ],
      "name": "RecordAdded",
      "type": "event"
    },
    {
      "anonymous": false,
      "inputs": [
        {
          "indexed": true,
          "internalType": "bytes32",
          "name": "id",
          "type": "bytes32"
        }
      ],
      "name": "RecordRemoved",
      "type": "event"
    },
    {
      "inputs": [
        {
          "internalType": "address",
          "name": "grantee",
          "type": "address"
        }
      ],
      "name": "accessibleRecords",
      "outputs": [
        {
          "internalType": "bytes32[]",
          "name": "",
          "type": "bytes32[]"
        }
      ],
      "stateMutability": "view",
      "type": "function"
    },
    {
      "inputs": [
        {
          "internalType": "bytes32",
          "name": "id",
          "type": "bytes32"
        },
        {
          "internalType": "string",
          "name": "cid",
          "type": "string"
        },
        {
          "internalType": "string",
          "name": "rType",
          "type": "string"
        },
        {
          "internalType": "string",
          "name": "title",
          "type": "string"
        }
      ],
      "name": "addRecord",
      "outputs": [],
      "stateMutability": "nonpayable",
      "type": "function"
    },
    {
      "inputs": [
        {
          "internalType": "address",
          "name": "grantee",
          "type": "address"
        },
        {
          "internalType": "bytes32",
          "name": "recordId",
          "type": "bytes32"
        }
      ],
      "name": "canAccess",
      "outputs": [
        {
          "internalType": "bool",
          "name": "",
          "type": "bool"
        }
      ],
      "stateMutability": "view",
      "type": "function"
    },
    {
      "inputs": [],
      "name": "getGrantCount",
      "outputs": [
        {
          "internalType": "uint256",
          "name": "",
          "type": "uint256"
        }
      ],
      "stateMutability": "view",
      "type": "function"
    },
    {
      "inputs": [
        {
          "internalType": "uint256",
          "name": "grantId",
          "type": "uint256"
        }
      ],
      "name": "getGrantRecordIds",
      "outputs": [
        {
          "internalType": "bytes32[]",
          "name": "",
          "type": "bytes32[]"
        }
      ],
      "stateMutability": "view",
      "type": "function"
    },
    {
      "inputs": [
        {
          "internalType": "address",
          "name": "grantee",
          "type": "address"
        },
        {
          "internalType": "bytes32",
          "name": "recordId",
          "type": "bytes32"
        }
      ],
      "name": "getKeyEnvelope",
      "outputs": [
        {
          "internalType": "string",
          "name": "ciphertext",
          "type": "string"
        },
        {
          "internalType": "string",
          "name": "iv",
          "type": "string"
        },
        {
          "internalType": "bool",
          "name": "exists",
          "type": "bool"
        }
      ],
      "stateMutability": "view",
      "type": "function"
    },
    {
      "inputs": [],
      "name": "getRecordCount",
      "outputs": [
        {
          "internalType": "uint256",
          "name": "",
          "type": "uint256"
        }
      ],
      "stateMutability": "view",
      "type": "function"
    },
    {
      "inputs": [
        {
          "internalType": "uint256",
          "name": "offset",
          "type": "uint256"
        },
        {
          "internalType": "uint256",
          "name": "limit",
          "type": "uint256"
        }
      ],
      "name": "getRecordIds",
      "outputs": [
        {
          "internalType": "bytes32[]",
          "name": "",
          "type": "bytes32[]"
        }
      ],
      "stateMutability": "view",
      "type": "function"
    },
    {
      "inputs": [
        {
          "internalType": "bytes32",
          "name": "id",
          "type": "bytes32"
        }
      ],
      "name": "getVersionHistory",
      "outputs": [
        {
          "internalType": "bytes32[]",
          "name": "ids",
          "type": "bytes32[]"
        },
        {
          "internalType": "uint256[]",
          "name": "versions",
          "type": "uint256[]"
        }
      ],
      "stateMutability": "view",
      "type": "function"
    },
    {
      "inputs": [
        {
          "internalType": "address",
          "name": "grantee",
          "type": "address"
        },
        {
          "internalType": "bytes32[]",
          "name": "rIds",
          "type": "bytes32[]"
        },
        {
          "internalType": "uint256",
          "name": "expiresAt",
          "type": "uint256"
        },
        {
          "internalType": "string[]",
          "name": "ciphertexts",
          "type": "string[]"
        },
        {
          "internalType": "string[]",
          "name": "ivs",
          "type": "string[]"
        }
      ],
      "name": "grantAccess",
      "outputs": [
        {
          "internalType": "uint256",
          "name": "grantId",
          "type": "uint256"
        }
      ],
      "stateMutability": "nonpayable",
      "type": "function"
    },
    {
      "inputs": [],
      "name": "grantCount",
      "outputs": [
        {
          "internalType": "uint256",
          "name": "",
          "type": "uint256"
        }
      ],
      "stateMutability": "view",
      "type": "function"
    },
    {
      "inputs": [
        {
          "internalType": "uint256",
          "name": "",
          "type": "uint256"
        }
      ],
      "name": "grants",
      "outputs": [
        {
          "internalType": "address",
          "name": "grantee",
          "type": "address"
        },
        {
          "internalType": "uint256",
          "name": "expiresAt",
          "type": "uint256"
        },
        {
          "internalType": "bool",
          "name": "active",
          "type": "bool"
        }
      ],
      "stateMutability": "view",
      "type": "function"
    },
    {
      "inputs": [
        {
          "internalType": "address",
          "name": "",
          "type": "address"
        },
        {
          "internalType": "bytes32",
          "name": "",
          "type": "bytes32"
        }
      ],
      "name": "keyEnvelopes",
      "outputs": [
        {
          "internalType": "string",
          "name": "ciphertext",
          "type": "string"
        },
        {
          "internalType": "string",
          "name": "iv",
          "type": "string"
        },
        {
          "internalType": "bool",
          "name": "exists",
          "type": "bool"
        }
      ],
      "stateMutability": "view",
      "type": "function"
    },
    {
      "inputs": [
        {
          "internalType": "bytes32",
          "name": "",
          "type": "bytes32"
        }
      ],
      "name": "latestVersion",
      "outputs": [
        {
          "internalType": "bytes32",
          "name": "",
          "type": "bytes32"
        }
      ],
      "stateMutability": "view",
      "type": "function"
    },
    {
      "inputs": [],
      "name": "owner",
      "outputs": [
        {
          "internalType": "address",
          "name": "",
          "type": "address"
        }
      ],
      "stateMutability": "view",
      "type": "function"
    },
    {
      "inputs": [
        {
          "internalType": "uint256",
          "name": "",
          "type": "uint256"
        }
      ],
      "name": "recordIds",
      "outputs": [
        {
          "internalType": "bytes32",
          "name": "",
          "type": "bytes32"
        }
      ],
      "stateMutability": "view",
      "type": "function"
    },
    {
      "inputs": [
        {
          "internalType": "bytes32",
          "name": "",
          "type": "bytes32"
        }
      ],
      "name": "records",
      "outputs": [
        {
          "internalType": "bytes32",
          "name": "contentHash",
          "type": "bytes32"
        },
        {
          "internalType": "string",
          "name": "ipfsCid",
          "type": "string"
        },
        {
          "internalType": "string",
          "name": "recordType",
          "type": "string"
        },
        {
          "internalType": "string",
          "name": "title",
          "type": "string"
        },
        {
          "internalType": "uint256",
          "name": "timestamp",
          "type": "uint256"
        },
        {
          "internalType": "bool",
          "name": "active",
          "type": "bool"
        },
        {
          "internalType": "uint256",
          "name": "version",
          "type": "uint256"
        },
        {
          "internalType": "bytes32",
          "name": "previousId",
          "type": "bytes32"
        }
      ],
      "stateMutability": "view",
      "type": "function"
    },
    {
      "inputs": [
        {
          "internalType": "bytes32",
          "name": "id",
          "type": "bytes32"
        }
      ],
      "name": "removeRecord",
      "outputs": [],
      "stateMutability": "nonpayable",
      "type": "function"
    },
    {
      "inputs": [
        {
          "internalType": "uint256",
          "name": "grantId",
          "type": "uint256"
        }
      ],
      "name": "revokeAccess",
      "outputs": [],
      "stateMutability": "nonpayable",
      "type": "function"
    },
    {
      "inputs": [
        {
          "internalType": "bytes32",
          "name": "previousId",
          "type": "bytes32"
        },
        {
          "internalType": "bytes32",
          "name": "newId",
          "type": "bytes32"
        },
        {
          "internalType": "string",
          "name": "newCid",
          "type": "string"
        },
        {
          "internalType": "string",
          "name": "rType",
          "type": "string"
        },
        {
          "internalType": "string",
          "name": "title",
          "type": "string"
        }
      ],
      "name": "updateRecord",
      "outputs": [],
      "stateMutability": "nonpayable",
      "type": "function"
    }
  ],
  "bytecode": "0x6080806040523461002857600080546001600160a01b031916331790556121f5908161002e8239f35b600080fdfe6080604052600436101561001257600080fd5b60003560e01c806301e6472514611b005780630a64b25a14611a955780630bc36d1e146119cd5780630c0debea1461197d57806310083a9f146118fa578063418a1757146112fa578063495129dc14610ccb5780634a0e038214610c395780634f3cefa914610c085780637146b30814610a875780637c1b6afe146109825780638da5cb5b14610a5e57806397ddbef914610a27578063a80038c0146109be578063ca267f28146109a0578063cab4267214610982578063e1b97d6914610842578063e9e1075214610816578063eea5d1091461027c5763fb89b939146100f857600080fd5b346102775760208060031936011261027757610112611d19565b6004546001600160a01b0391821692916000805b83821061020c576101379150611faf565b9360009060005b84811061015c57604051868152806101588189018a611d61565b0390f35b80600052600380875260406000209060ff8183015416156101f7578386835416036101f75760028201548015159081610202575b506101f7579088916001600092018054925b8381106101bc5750505050506101b790611f89565b61013e565b81929394976101e76101d1836101ed95611e3f565b905490871b1c916101e181611f89565b9a611fe1565b52611f89565b908a9392916101a2565b50506101b790611f89565b9050421138610190565b81600052600380865260ff604060002091820154161561026257868482541603610262576002810154801515908161026d575b506102625761025c91600161025692015490611f58565b91611f89565b90610126565b509061025c90611f89565b905042113861023f565b600080fd5b34610277576080366003190112610277576024356001600160401b038111610277576102ac903690600401611dc5565b906044356001600160401b038111610277576102cc903690600401611dc5565b906064356001600160401b038111610277576102ec903690600401611dc5565b92909361030460018060a01b03600054163314611e57565b600435600052600160205260ff600560406000200154166107c75760405161032b81611bf6565b600435815261033b368884611ea3565b906020810191825261034e368587611ea3565b604082015261035e368789611ea3565b6060820152426080820152600160a0820152600160c0820152600060e0820152600435600052600160205260406000209181518355518051906001600160401b03821161064d5781906103b46001860154611bbc565b601f8111610792575b50602090601f831160011461072057600092610715575b50508160011b916000199060031b1c19161760018301555b60408101518051906001600160401b03821161064d5781906104116002860154611bbc565b601f81116106e0575b50602090601f831160011461066e57600092610663575b50508160011b916000199060031b1c19161760028301555b60608101518051906001600160401b03821161064d5761046c6003850154611bbc565b601f811161060d575b50602090601f831160011461057a5793600760e06105509a989585610534966105429a966000805160206121a08339815191529f9d9a60009261056f575b50508160011b916000199060031b1c19161760038501555b608081015160048501556104f460a08201511515600586019060ff801983541691151516179055565b60c08101516006850155015191015561050e600435611f00565b60043560005260066020526004356040600020556040519960c08b5260c08b0191611f37565b9188830360208a0152611f37565b918583036040870152611f37565b9142606082015260016080820152600060a082015280600435930390a2005b0151905038806104b3565b906003850160005260206000209160005b601f19851681106105f5575060e06105509a98956001866105429a966000805160206121a08339815191529f9d9a966007966105349a601f198116106105dc575b505050811b0160038501556104cb565b015160001960f88460031b161c191690553880806105cc565b9192602060018192868501518155019401920161058b565b61063d90600386016000526020600020601f850160051c81019160208610610643575b601f0160051c0190611ee9565b8a610475565b9091508190610630565b634e487b7160e01b600052604160045260246000fd5b015190508a80610431565b9250600285016000526020600020906000935b601f19841685106106c5576001945083601f198116106106ac575b505050811b016002830155610449565b015160001960f88460031b161c191690558a808061069c565b81810151835560209485019460019093019290910190610681565b61070f90600287016000526020600020601f850160051c8101916020861061064357601f0160051c0190611ee9565b8b61041a565b015190508a806103d4565b9250600185016000526020600020906000935b601f1984168510610777576001945083601f1981161061075e575b505050811b0160018301556103ec565b015160001960f88460031b161c191690558a808061074e565b81810151835560209485019460019093019290910190610733565b6107c190600187016000526020600020601f850160051c8101916020861061064357601f0160051c0190611ee9565b8b6103bd565b60405162461bcd60e51b815260206004820152602160248201527f566572694865616c74683a207265636f726420616c72656164792065786973746044820152607360f81b6064820152608490fd5b346102775760203660031901126102775760043560005260066020526020604060002054604051908152f35b34610277576020806003193601126102775760043560018060a01b0361086d81600054163314611e57565b8160005260039081845260ff8260406000200154161561093d5782600052818452604060002093600060018092818801915b6108dc575b50505050835416920160ff1981541690557f125883b94692baebecad9f111ed97ffa626523bbbadc6b0ef85ee1b56b9e52d5600080a3005b8154831015610938576109328493868a54166000526005835260406000206109048286611e3f565b9054908a1b1c6000528352600060026040822061092081612082565b61092b888201612082565b0155611f89565b9261089f565b6108a4565b60405162461bcd60e51b815260048101859052601c60248201527f566572694865616c74683a206772616e74206e6f7420616374697665000000006044820152606490fd5b34610277576000366003190112610277576020600454604051908152f35b34610277576000366003190112610277576020600254604051908152f35b34610277576040366003190112610277576001600160a01b036109df611d19565b16600052600560205260406000206024356000526020526040600020610a0481611c33565b61015860ff6002610a1760018601611c33565b9401541660405193849384611d2f565b346102775760203660031901126102775760043560025481101561027757610a50602091611df2565b90546040519160031b1c8152f35b34610277576000366003190112610277576000546040516001600160a01b039091168152602090f35b346102775760208060031936011261027757610aa4600435611f65565b90600091600091600254925b838110610bbe5750610ac184611faf565b92610ae4610ace86611f98565b95610adc6040519788611c12565b808752611f98565b8583019390601f19013685376000805b838110610b515750505050610b189381604051958695604087526040870190611d61565b9185830382870152519182815201929160005b828110610b3a57505050500390f35b835185528695509381019392810192600101610b2b565b610b5e8198969798611df2565b90549060031b1c83610b6f82611f65565b14610b88575b50610b7f90611f89565b96959496610af4565b8281610bb792610b9c610b7f95968d611fe1565b52600052600187526006604060002001546101e7828a611fe1565b9190610b75565b82610bdb610bcf8397959697611df2565b90549060031b1c611f65565b14610bf3575b610bea90611f89565b93929193610ab0565b91610c00610bea91611f89565b929050610be1565b34610277576040366003190112610277576020610c2f610c26611d19565b602435906120cb565b6040519015158152f35b3461027757604036600319011261027757600435610c5960243582611f58565b600254808211610cc3575b50610c77610c728383612192565b611faf565b91805b828110610c97576040516020808252819061015890820187611d61565b80610ca4610cbe92611df2565b90549060031b1c6101e7610cb88584612192565b87611fe1565b610c7a565b905082610c64565b346102775760a0366003190112610277576044356001600160401b03811161027757610cfb903690600401611dc5565b6064356001600160401b03811161027757610d1a903690600401611dc5565b906084356001600160401b03811161027757610d3a903690600401611dc5565b919092610d5260018060a01b03600054163314611e57565b600435600052600160205260ff60056040600020015416156112a757602435600052600160205260ff600560406000200154166112545760043560005260016020526006604060002001549560018701871161123e576004356000526001602052600560406000200160ff198154169055604051610dcf81611bf6565b6024358152610ddf368884611ea3565b6020820152610def368486611ea3565b6040820152610dff368688611ea3565b6060820152426080820152600160a08201526001880160c082015260043560e082015260243560005260016020526040600020908051825560208101518051906001600160401b03821161064d578190610e5c6001860154611bbc565b601f8111611209575b50602090601f83116001146111975760009261118c575b50508160011b916000199060031b1c19161760018301555b60408101518051906001600160401b03821161064d578190610eb96002860154611bbc565b601f8111611157575b50602090601f83116001146110e5576000926110da575b50508160011b916000199060031b1c19161760028301555b60608101518051906001600160401b03821161064d57610f146003850154611bbc565b601f81116110a5575b50602090601f8311600114611010579461054294600760e0610fe69a96866000805160206121a08339815191529f9e9b976105349760019f9c600092611005575b5050818f1b916000199060031b1c19161760038501555b60808101516004850155610f9e60a08201511515600586019060ff801983541691151516179055565b60c081015160068501550151910155610fb8602435611f00565b610fc3600435611f65565b60005260066020526024356040600020556040519960c08b5260c08b0191611f37565b9342606084015201608082015260043560a082015280602435930390a2005b015190503880610f5e565b906003850160005260206000209160005b601f198516811061108d575094600760e0610fe69a9660016000805160206121a08339815191529f9e9b9761053497829f9c976105429c83601f19811610611074575b505050811b016003850155610f75565b015160001960f88460031b161c19169055388080611064565b91926020600181928685015181550194019201611021565b6110d490600386016000526020600020601f850160051c8101916020861061064357601f0160051c0190611ee9565b8b610f1d565b015190508b80610ed9565b9250600285016000526020600020906000935b601f198416851061113c576001945083601f19811610611123575b505050811b016002830155610ef1565b015160001960f88460031b161c191690558b8080611113565b818101518355602094850194600190930192909101906110f8565b61118690600287016000526020600020601f850160051c8101916020861061064357601f0160051c0190611ee9565b8c610ec2565b015190508b80610e7c565b9250600185016000526020600020906000935b601f19841685106111ee576001945083601f198116106111d5575b505050811b016001830155610e94565b015160001960f88460031b161c191690558b80806111c5565b818101518355602094850194600190930192909101906111aa565b61123890600187016000526020600020601f850160051c8101916020861061064357601f0160051c0190611ee9565b8c610e65565b634e487b7160e01b600052601160045260246000fd5b60405162461bcd60e51b815260206004820152602560248201527f566572694865616c74683a206e6577207265636f726420616c72656164792065604482015264786973747360d81b6064820152608490fd5b60405162461bcd60e51b815260206004820152602560248201527f566572694865616c74683a2070726576696f7573207265636f7264206e6f7420604482015264199bdd5b9960da1b6064820152608490fd5b346102775760a036600319011261027757611313611d19565b6024356001600160401b03811161027757611332903690600401611d95565b6064929192356001600160401b03811161027757611354903690600401611d95565b906084356001600160401b03811161027757611374903690600401611d95565b9261138a60018060a01b03600054163314611e57565b6001600160a01b038616156118b5578415611877576113aa818614611ff5565b6113b5848614611ff5565b60005b8581106115b457878787600454916113cf83611f89565b600455604051608081018181106001600160401b0382111761064d576040526001600160a01b038216815261140383611f98565b906114116040519283611c12565b83825260208201368560051b8801116102775786905b8560051b880182106115a45750506020810191825260443560408201526001606082015284600052600360205260406000209160018060a01b038251166bffffffffffffffffffffffff60a01b845416178355518051906001600160401b03821161064d57600160401b821161064d576001840154826001860155808310611577575b5060200160018401600052602060002060005b838110611563575050505090600360608360406114f295015160028501550151151591019060ff801983541691151516179055565b60408051818152908101839052936001600160fb1b0383116102775784606060209686947f1f2e08a4efda97e980d4714b54d2e5079d08337efd4d9646b042c13bc5c5df7e948760051b9084840137604435828a01526001600160a01b03169560051b8101030190a3604051908152f35b6001906020845194019381840155016114bd565b600185016000526020600020908382015b81830181106115985750506114aa565b60008155600101611588565b8135815260209182019101611427565b6115bf818386612041565b906115cb838887612041565b604051938460608101106001600160401b0360608701111761064d57611606936115fd91606087016040523691611ea3565b84523691611ea3565b60208201526001604082015260018060a01b038816600052600560205260406000208260051b8a013560005260205260406000209080518051906001600160401b03821161064d57819061165a8554611bbc565b601f8111611845575b50602090601f83116001146117d9576000926117ce575b50508160011b916000199060031b1c19161782555b6001820160208201518051906001600160401b03821161064d576116b38354611bbc565b601f811161179c575b50602090601f83116001146117265793611716969593836002946040946117119860009261171b575b50508160011b916000199060031b1c19161790555b0151151591019060ff801983541691151516179055565b611f89565b6113b8565b0151905038806116e5565b90601f198316918460005260206000209260005b81811061178457508460409461171198946117169b9a98946002986001951061176b575b505050811b0190556116fa565b015160001960f88460031b161c1916905538808061175e565b9293602060018192878601518155019501930161173a565b6117c890846000526020600020601f850160051c8101916020861061064357601f0160051c0190611ee9565b8d6116bc565b015190508c8061167a565b9250846000526020600020906000935b601f198416851061182a576001945083601f19811610611811575b505050811b01825561168f565b015160001960f88460031b161c191690558c8080611804565b818101518355602094850194600190930192909101906117e9565b61187190866000526020600020601f850160051c8101916020861061064357601f0160051c0190611ee9565b8d611663565b60405162461bcd60e51b8152602060048201526016602482015275566572694865616c74683a206e6f207265636f72647360501b6044820152606490fd5b60405162461bcd60e51b815260206004820152601860248201527f566572694865616c74683a207a65726f206164647265737300000000000000006044820152606490fd5b3461027757602080600319360112610277576004356000526003815260019081604060002001916040519081938491848254948581520191600052846000209060005b8686821061196757859061195382870383611c12565b610158604051928284938452830190611d61565b835485528895509093019291810191810161193d565b346102775760203660031901126102775760043560005260036020526060604060002060018060a01b038154169060ff600360028301549201541690604051928352602083015215156040820152f35b34610277576020366003190112610277576004356119f660018060a01b03600054163314611e57565b80600052600160205260ff6005604060002001541615611a5057806000526001602052600560406000200160ff1981541690557f3813d5e4633aa2a982d4b41c4798354673e514a3dde9fa140a8a32ec1c2208f1600080a2005b60405162461bcd60e51b815260206004820152601c60248201527f566572694865616c74683a207265636f7264206e6f7420666f756e64000000006044820152606490fd5b34610277576040366003190112610277576001600160a01b03611ab6611d19565b1660005260056020526040600020602435600052602052604060002060ff60028201541690610158611af36001611aec84611c33565b9301611c33565b9260405193849384611d2f565b3461027757602036600319011261027757600435600052600160205260406000208054611b2f60018301611c33565b91611b3c60028201611c33565b611b4860038301611c33565b91600481015492611ba160ff60058401541691611b936007600686015495015495611b856040519a8b9a8b526101008060208d01528b0190611cd9565b9089820360408b0152611cd9565b908782036060890152611cd9565b936080860152151560a085015260c084015260e08301520390f35b90600182811c92168015611bec575b6020831014611bd657565b634e487b7160e01b600052602260045260246000fd5b91607f1691611bcb565b61010081019081106001600160401b0382111761064d57604052565b90601f801991011681019081106001600160401b0382111761064d57604052565b9060405191826000825492611c4784611bbc565b908184526001948581169081600014611cb65750600114611c73575b5050611c7192500383611c12565b565b9093915060005260209081600020936000915b818310611c9e575050611c7193508201013880611c63565b85548884018501529485019487945091830191611c86565b915050611c7194506020925060ff191682840152151560051b8201013880611c63565b919082519283825260005b848110611d05575050826000602080949584010152601f8019910116010190565b602081830181015184830182015201611ce4565b600435906001600160a01b038216820361027757565b91611d5990611d4b604093969596606086526060860190611cd9565b908482036020860152611cd9565b931515910152565b90815180825260208080930193019160005b828110611d81575050505090565b835185529381019392810192600101611d73565b9181601f84011215610277578235916001600160401b038311610277576020808501948460051b01011161027757565b9181601f84011215610277578235916001600160401b038311610277576020838186019501011161027757565b600254811015611e295760026000527f405787fa12a823e0f2b7631cc41b3ba8828b3321ca811111fa75cd3aa3bb5ace0190600090565b634e487b7160e01b600052603260045260246000fd5b8054821015611e295760005260206000200190600090565b15611e5e57565b60405162461bcd60e51b815260206004820152601f60248201527f566572694865616c74683a2063616c6c6572206973206e6f74206f776e6572006044820152606490fd5b9291926001600160401b03821161064d5760405191611ecc601f8201601f191660200184611c12565b829481845281830111610277578281602093846000960137010152565b818110611ef4575050565b60008155600101611ee9565b600254600160401b81101561064d57806001611f1f9201600255611df2565b819291549060031b91821b91600019901b1916179055565b908060209392818452848401376000828201840152601f01601f1916010190565b9190820180921161123e57565b5b6007604060008381526001602052200154908115611f845750611f66565b905090565b600019811461123e5760010190565b6001600160401b03811161064d5760051b60200190565b90611fb982611f98565b611fc66040519182611c12565b8281528092611fd7601f1991611f98565b0190602036910137565b8051821015611e295760209160051b010190565b15611ffc57565b60405162461bcd60e51b815260206004820152601b60248201527f566572694865616c74683a206c656e677468206d69736d6174636800000000006044820152606490fd5b9190811015611e295760051b81013590601e19813603018212156102775701908135916001600160401b038311610277576020018236038113610277579190565b61208c8154611bbc565b9081612096575050565b81601f600093116001146120a8575055565b9080839182526120c7601f60208420940160051c840160018501611ee9565b5555565b600454919060005b8381106120e35750505050600090565b80600052600380602052604060002060ff82820154161561217d5780546001600160a01b039081169085160361217d5760028101548015159081612188575b5061217d5760009160018092018054935b84811061214d57505050505061214890611f89565b6120d3565b876121588284611e3f565b905490851b1c146121715761216c90611f89565b612133565b50505094505050505090565b505061214890611f89565b9050421138612122565b9190820391821161123e5756fe58a75328fb54ab568bebe4d096171cf279c521205b8a4a6ecb16ea22e1fd86eca2646970667358221220e5f97783ba4d7dbbe252ae740802f13ce700079a0f94e90aba8f0fd86543577464736f6c63430008140033",
  "linkReferences": {},
  "deployedLinkReferences": {}
}