{
  "_format": "hh-sol-artifact-1",
  "contractName": "VeriHealthRegistry",
  "sourceName": "contracts/VeriHealthRegistry.sol",
  "abi": [
    {
      "inputs": [],
      "stateMutability": "nonpayable",
      "type": "constructor"
    },
    {
      "anonymous": false,
      "inputs": [
        {
          "indexed": true,
          "internalType": "uint256",
          "name": "grantId",
          "type": "uint256"
        },
        {
          "indexed": true,
          "internalType": "address",
          "name": "grantee",
          "type": "address"
        },
        {
          "indexed": false,
          "internalType": "bytes32[]",
          "name": "recordIds",
          "type": "bytes32[]"
        },
        {
          "indexed": false,
          "internalType": "uint256",
          "name": "expiresAt",
          "type": "uint256"
        }
      ],
      "name": "AccessGranted",
      "type": "event"
    },
    {
      "anonymous": false,
      "inputs": [
        {
          "indexed": true,
          "internalType": "uint256",
          "name": "grantId",
          "type": "uint256"
        },
        {
          "indexed": true,
          "internalType": "address",
          "name": "grantee",
          "type": "address"
        }
      ],
      "name": "AccessRevoked",
      "type": "event"
    },
    {
      "anonymous": false,
      "inputs": [
        {
          "indexed": true,
          "internalType": "address",
          "name": "delegate",
          "type": "address"
        }
      ],
      "name": "DelegateAdded",
      "type": "event"
    },
    {
      "anonymous": false,
      "inputs": [
        {
          "indexed": true,
          "internalType": "address",
          "name": "delegate",
          "type": "address"
        }
      ],
      "name": "DelegateRemoved",
      "type": "event"
    },
    {
      "anonymous": false,
      "inputs": [
        {
          "indexed": true,
          "internalType": "address",
          "name": "activatedBy",
          "type": "address"
        },
        {
          "indexed": false,
          "internalType": "uint256",
          "name": "timestamp",
          "type": "uint256"
        }
      ],
      "name": "EmergencyActivated",
      "type": "event"
    },
    {
      "anonymous": false,
      "inputs": [
        {
          "indexed": true,
          "internalType": "address",
          "name": "contact",
          "type": "address"
        }
      ],
      "name": "EmergencyContactSet",
      "type": "event"
    },
    {
      "anonymous": false,
      "inputs": [
        {
          "indexed": false,
          "internalType": "uint256",
          "name": "timestamp",
          "type": "uint256"
        }
      ],
      "name": "EmergencyDeactivated",
      "type": "event"
    },
    {
      "anonymous": false,
      "inputs": [
        {
          "indexed": true,
          "internalType": "bytes32",
          "name": "id",
          "type": "bytes32"
        },
        {
          "indexed": false,
          "internalType": "string",
          "name": "ipfsCid",
          "type": "string"
        },
        {
          "indexed": false,
          "internalType": "string",
          "name": "recordType",
          "type": "string"
        },
        {
          "indexed": false,
          "internalType": "string",
          "name": "title",
          "type": "string"
        },
        {
          "indexed": false,
          "internalType": "uint256",
          "name": "timestamp",
          "type": "uint256"
        },
        {
          "indexed": false,
          "internalType": "uint256",
          "name": "version",
          "type": "uint256"
        },
        {
          "indexed": false,
          "internalType": "bytes32",
          "name": "previousId",
          "type": "bytes32"
        }
      ],
      "name": "RecordAdded",
      "type": "event"
    },
    {
      "anonymous": false,
      "inputs": [
        {
          "indexed": true,
          "internalType": "bytes32",
          "name": "id",
          "type": "bytes32"
        }
      ],
      "name": "RecordRemoved",
      "type": "event"
    },
    {
      "inputs": [
        {
          "internalType": "address",
          "name": "grantee",
          "type": "address"
        }
      ],
      "name": "accessibleRecords",
      "outputs": [
        {
          "internalType": "bytes32[]",
          "name": "",
          "type": "bytes32[]"
        }
      ],
      "stateMutability": "view",
      "type": "function"
    },
    {
      "inputs": [],
      "name": "activateEmergency",
      "outputs": [],
      "stateMutability": "nonpayable",
      "type": "function"
    },
    {
      "inputs": [
        {
          "internalType": "address",
          "name": "delegate",
          "type": "address"
        }
      ],
      "name": "addDelegate",
      "outputs": [],
      "stateMutability": "nonpayable",
      "type": "function"
    },
    {
      "inputs": [
        {
          "internalType": "bytes32",
          "name": "id",
          "type": "bytes32"
        },
        {
          "internalType": "string",
          "name": "cid",
          "type": "string"
        },
        {
          "internalType": "string",
          "name": "rType",
          "type": "string"
        },
        {
          "internalType": "string",
          "name": "title",
          "type": "string"
        }
      ],
      "name": "addRecord",
      "outputs": [],
      "stateMutability": "nonpayable",
      "type": "function"
    },
    {
      "inputs": [
        {
          "internalType": "address",
          "name": "grantee",
          "type": "address"
        },
        {
          "internalType": "bytes32",
          "name": "recordId",
          "type": "bytes32"
        }
      ],
      "name": "canAccess",
      "outputs": [
        {
          "internalType": "bool",
          "name": "",
          "type": "bool"
        }
      ],
      "stateMutability": "view",
      "type": "function"
    },
    {
      "inputs": [],
      "name": "deactivateEmergency",
      "outputs": [],
      "stateMutability": "nonpayable",
      "type": "function"
    },
    {
      "inputs": [
        {
          "internalType": "uint256",
          "name": "",
          "type": "uint256"
        }
      ],
      "name": "delegateList",
      "outputs": [
        {
          "internalType": "address",
          "name": "",
          "type": "address"
        }
      ],
      "stateMutability": "view",
      "type": "function"
    },
    {
      "inputs": [
        {
          "internalType": "address",
          "name": "",
          "type": "address"
        }
      ],
      "name": "delegates",
      "outputs": [
        {
          "internalType": "bool",
          "name": "",
          "type": "bool"
        }
      ],
      "stateMutability": "view",
      "type": "function"
    },
    {
      "inputs": [],
      "name": "emergencyActivatedAt",
      "outputs": [
        {
          "internalType": "uint256",
          "name": "",
          "type": "uint256"
        }
      ],
      "stateMutability": "view",
      "type": "function"
    },
    {
      "inputs": [],
      "name": "emergencyActive",
      "outputs": [
        {
          "internalType": "bool",
          "name": "",
          "type": "bool"
        }
      ],
      "stateMutability": "view",
      "type": "function"
    },
    {
      "inputs": [],
      "name": "emergencyContact",
      "outputs": [
        {
          "internalType": "address",
          "name": "",
          "type": "address"
        }
      ],
      "stateMutability": "view",
      "type": "function"
    },
    {
      "inputs": [],
      "name": "getDelegates",
      "outputs": [
        {
          "internalType": "address[]",
          "name": "",
          "type": "address[]"
        }
      ],
      "stateMutability": "view",
      "type": "function"
    },
    {
      "inputs": [],
      "name": "getGrantCount",
      "outputs": [
        {
          "internalType": "uint256",
          "name": "",
          "type": "uint256"
        }
      ],
      "stateMutability": "view",
      "type": "function"
    },
    {
      "inputs": [
        {
          "internalType": "uint256",
          "name": "grantId",
          "type": "uint256"
        }
      ],
      "name": "getGrantRecordIds",
      "outputs": [
        {
          "internalType": "bytes32[]",
          "name": "",
          "type": "bytes32[]"
        }
      ],
      "stateMutability": "view",
      "type": "function"
    },
    {
      "inputs": [
        {
          "internalType": "address",
          "name": "grantee",
          "type": "address"
        },
        {
          "internalType": "bytes32",
          "name": "recordId",
          "type": "bytes32"
        }
      ],
      "name": "getKeyEnvelope",
      "outputs": [
        {
          "internalType": "string",
          "name": "ciphertext",
          "type": "string"
        },
        {
          "internalType": "string",
          "name": "iv",
          "type": "string"
        },
        {
          "internalType": "bool",
          "name": "exists",
          "type": "bool"
        }
      ],
      "stateMutability": "view",
      "type": "function"
    },
    {
      "inputs": [],
      "name": "getRecordCount",
      "outputs": [
        {
          "internalType": "uint256",
          "name": "",
          "type": "uint256"
        }
      ],
      "stateMutability": "view",
      "type": "function"
    },
    {
      "inputs": [
        {
          "internalType": "uint256",
          "name": "offset",
          "type": "uint256"
        },
        {
          "internalType": "uint256",
          "name": "limit",
          "type": "uint256"
        }
      ],
      "name": "getRecordIds",
      "outputs": [
        {
          "internalType": "bytes32[]",
          "name": "",
          "type": "bytes32[]"
        }
      ],
      "stateMutability": "view",
      "type": "function"
    },
    {
      "inputs": [
        {
          "internalType": "bytes32",
          "name": "id",
          "type": "bytes32"
        }
      ],
      "name": "getVersionHistory",
      "outputs": [
        {
          "internalType": "bytes32[]",
          "name": "ids",
          "type": "bytes32[]"
        },
        {
          "internalType": "uint256[]",
          "name": "versions",
          "type": "uint256[]"
        }
      ],
      "stateMutability": "view",
      "type": "function"
    },
    {
      "inputs": [
        {
          "internalType": "address",
          "name": "grantee",
          "type": "address"
        },
        {
          "internalType": "bytes32[]",
          "name": "rIds",
          "type": "bytes32[]"
        },
        {
          "internalType": "uint256",
          "name": "expiresAt",
          "type": "uint256"
        },
        {
          "internalType": "string[]",
          "name": "ciphertexts",
          "type": "string[]"
        },
        {
          "internalType": "string[]",
          "name": "ivs",
          "type": "string[]"
        }
      ],
      "name": "grantAccess",
      "outputs": [
        {
          "internalType": "uint256",
          "name": "grantId",
          "type": "uint256"
        }
      ],
      "stateMutability": "nonpayable",
      "type": "function"
    },
    {
      "inputs": [],
      "name": "grantCount",
      "outputs": [
        {
          "internalType": "uint256",
          "name": "",
          "type": "uint256"
        }
      ],
      "stateMutability": "view",
      "type": "function"
    },
    {
      "inputs": [
        {
          "internalType": "uint256",
          "name": "",
          "type": "uint256"
        }
      ],
      "name": "grants",
      "outputs": [
        {
          "internalType": "address",
          "name": "grantee",
          "type": "address"
        },
        {
          "internalType": "uint256",
          "name": "expiresAt",
          "type": "uint256"
        },
        {
          "internalType": "bool",
          "name": "active",
          "type": "bool"
        }
      ],
      "stateMutability": "view",
      "type": "function"
    },
    {
      "inputs": [
        {
          "internalType": "address",
          "name": "",
          "type": "address"
        },
        {
          "internalType": "bytes32",
          "name": "",
          "type": "bytes32"
        }
      ],
      "name": "keyEnvelopes",
      "outputs": [
        {
          "internalType": "string",
          "name": "ciphertext",
          "type": "string"
        },
        {
          "internalType": "string",
          "name": "iv",
          "type": "string"
        },
        {
          "internalType": "bool",
          "name": "exists",
          "type": "bool"
        }
      ],
      "stateMutability": "view",
      "type": "function"
    },
    {
      "inputs": [
        {
          "internalType": "bytes32",
          "name": "",
          "type": "bytes32"
        }
      ],
      "name": "latestVersion",
      "outputs": [
        {
          "internalType": "bytes32",
          "name": "",
          "type": "bytes32"
        }
      ],
      "stateMutability": "view",
      "type": "function"
    },
    {
      "inputs": [],
      "name": "owner",
      "outputs": [
        {
          "internalType": "address",
          "name": "",
          "type": "address"
        }
      ],
      "stateMutability": "view",
      "type": "function"
    },
    {
      "inputs": [
        {
          "internalType": "uint256",
          "name": "",
          "type": "uint256"
        }
      ],
      "name": "recordIds",
      "outputs": [
        {
          "internalType": "bytes32",
          "name": "",
          "type": "bytes32"
        }
      ],
      "stateMutability": "view",
      "type": "function"
    },
    {
      "inputs": [
        {
          "internalType": "bytes32",
          "name": "",
          "type": "bytes32"
        }
      ],
      "name": "records",
      "outputs": [
        {
          "internalType": "bytes32",
          "name": "contentHash",
          "type": "bytes32"
        },
        {
          "internalType": "string",
          "name": "ipfsCid",
          "type": "string"
        },
        {
          "internalType": "string",
          "name": "recordType",
          "type": "string"
        },
        {
          "internalType": "string",
          "name": "title",
          "type": "string"
        },
        {
          "internalType": "uint256",
          "name": "timestamp",
          "type": "uint256"
        },
        {
          "internalType": "bool",
          "name": "active",
          "type": "bool"
        },
        {
          "internalType": "uint256",
          "name": "version",
          "type": "uint256"
        },
        {
          "internalType": "bytes32",
          "name": "previousId",
          "type": "bytes32"
        },
        {
          "internalType": "address",
          "name": "uploadedBy",
          "type": "address"
        }
      ],
      "stateMutability": "view",
      "type": "function"
    },
    {
      "inputs": [
        {
          "internalType": "address",
          "name": "delegate",
          "type": "address"
        }
      ],
      "name": "removeDelegate",
      "outputs": [],
      "stateMutability": "nonpayable",
      "type": "function"
    },
    {
      "inputs": [
        {
          "internalType": "bytes32",
          "name": "id",
          "type": "bytes32"
        }
      ],
      "name": "removeRecord",
      "outputs": [],
      "stateMutability": "nonpayable",
      "type": "function"
    },
    {
      "inputs": [
        {
          "internalType": "uint256",
          "name": "grantId",
          "type": "uint256"
        }
      ],
      "name": "revokeAccess",
      "outputs": [],
      "stateMutability": "nonpayable",
      "type": "function"
    },
    {
      "inputs": [
        {
          "internalType": "address",
          "name": "contact",
          "type": "address"
        }
      ],
      "name": "setEmergencyContact",
      "outputs": [],
      "stateMutability": "nonpayable",
      "type": "function"
    },
    {
      "inputs": [
        {
          "internalType": "bytes32",
          "name": "previousId",
          "type": "bytes32"
        },
        {
          "internalType": "bytes32",
          "name": "newId",
          "type": "bytes32"
        },
        {
          "internalType": "string",
          "name": "newCid",
          "type": "string"
        },
        {
          "internalType": "string",
          "name": "rType",
          "type": "string"
        },
        {
          "internalType": "string",
          "name": "title",
          "type": "string"
        }
      ],
      "name": "updateRecord",
      "outputs": [],
      "stateMutability": "nonpayable",
      "type": "function"
    }
  ],
  "bytecode": "0x6080806040523461002857600080546001600160a01b03191633179055612bc2908161002e8239f35b600080fdfe6080604052600436101561001257600080fd5b60003560e01c806301e647251461215b5780630a64b25a146120f05780630bc36d1e146120285780630c0debea14611fd857806310083a9f14611f555780633d63f21514611f37578063418a17571461197c578063457e8b971461181b578063495129dc146111b95780634a0e0382146111275780634f3cefa9146110f6578063587cde1e146110b757806367e7646f14610f2e5780637146b30814610da25780637c1b6afe14610af25780638da5cb5b14610d7957806391284a8914610d0157806397ddbef914610cca578063a80038c014610c61578063a939e8ef14610c38578063ad9a9ea514610bf6578063c838ccb614610b2e578063ca267f2814610b10578063cab4267214610af2578063e1b97d69146109b0578063e71bdf4114610893578063e9e1075214610867578063eddaa3ab14610841578063eea5d1091461025d578063fa686948146101b25763fb89b9391461017157600080fd5b346101ad5760203660031901126101ad576101a961019561019061238a565b61291f565b6040519182916020835260208301906123d2565b0390f35b600080fd5b346101ad5760003660031901126101ad576101d860018060a01b036000541633146124ff565b60015460ff8160a01c161561021f5760ff60a01b19166001556040514281527f8d644c4cfec2567a9952615546f77884031d4a65ee0640adb5abcd04c1c57ded90602090a1005b60405162461bcd60e51b8152602060048201526016602482015275566572694865616c74683a206e6f742061637469766560501b6044820152606490fd5b346101ad5760803660031901126101ad576024356001600160401b0381116101ad5761028d903690600401612436565b906044356001600160401b0381116101ad576102ad903690600401612436565b906064356001600160401b0381116101ad576102cd903690600401612436565b92909360018060a01b036000541633148015610828575b6102ed906125b3565b600435600052600560205260ff600560406000200154166107d95760405161031481612267565b6004358152610324368884612613565b6020820152610334368486612613565b6040820152610344368688612613565b6060820152426080820152600160a0820152600160c0820152600060e082015233610100820152600435600052600560205260406000208151815560208201518051906001600160401b03821161065f5781906103a4600185015461222d565b601f81116107a4575b50602090601f831160011461073257600092610727575b50508160011b916000199060031b1c19161760018201555b60408201518051906001600160401b03821161065f578190610401600285015461222d565b601f81116106f2575b50602090601f831160011461068057600092610675575b50508160011b916000199060031b1c19161760028201555b60608201518051906001600160401b03821161065f5761045c600384015461222d565b601f811161061f575b50602090601f831160011461058e5793600861056499979484610548956105569995600080516020612b6d8339815191529e9c99600092610583575b50508160011b916000199060031b1c19161760038201555b608083015160048201556104e260a08401511515600583019060ff801983541691151516179055565b60c0830151600682015560e08301516007820155019061010060018060a01b03910151166001600160601b0360a01b825416179055610522600435612670565b600435600052600a6020526004356040600020556040519960c08b5260c08b01916126a7565b9188830360208a01526126a7565b9185830360408701526126a7565b9142606082015260016080820152600060a082015280600435930390a2005b015190508f806104a1565b906003840160005260206000209160005b601f198516811061060757506105649997946001856105569995600080516020612b6d8339815191529e9c999560089561054899601f198116106105ee575b505050811b0160038201556104b9565b015160001960f88460031b161c191690558f80806105de565b9192602060018192868501518155019401920161059f565b61064f90600385016000526020600020601f850160051c81019160208610610655575b601f0160051c0190612659565b8a610465565b9091508190610642565b634e487b7160e01b600052604160045260246000fd5b015190508a80610421565b9250600284016000526020600020906000935b601f19841685106106d7576001945083601f198116106106be575b505050811b016002820155610439565b015160001960f88460031b161c191690558a80806106ae565b81810151835560209485019460019093019290910190610693565b61072190600286016000526020600020601f850160051c8101916020861061065557601f0160051c0190612659565b8b61040a565b015190508a806103c4565b9250600184016000526020600020906000935b601f1984168510610789576001945083601f19811610610770575b505050811b0160018201556103dc565b015160001960f88460031b161c191690558a8080610760565b81810151835560209485019460019093019290910190610745565b6107d390600186016000526020600020601f850160051c8101916020861061065557601f0160051c0190612659565b8b6103ad565b60405162461bcd60e51b815260206004820152602160248201527f566572694865616c74683a207265636f726420616c72656164792065786973746044820152607360f81b6064820152608490fd5b503360009081526003602052604090205460ff166102e4565b346101ad5760003660031901126101ad57602060ff60015460a01c166040519015158152f35b346101ad5760203660031901126101ad57600435600052600a6020526020604060002054604051908152f35b346101ad5760203660031901126101ad576108ac61238a565b6000546001600160a01b03906108c590821633146124ff565b8116906108d382151561254b565b81600052600360205260ff6040600020541661096b578160005260036020526040600020600160ff1982541617905560045490600160401b82101561065f5761092582600161094494016004556124b0565b90919082549060031b9160018060a01b03809116831b921b1916179055565b7f3be018e2afae1fe2bb23bb3cc019524cfe3872f2863d1c80b7a228c57bc1065a600080a2005b60405162461bcd60e51b815260206004820152601e60248201527f566572694865616c74683a20616c726561647920612064656c656761746500006044820152606490fd5b346101ad576020806003193601126101ad5760043560018060a01b036109db816000541633146124ff565b816000526007835260039060ff82604060002001541615610aad578260005260078452604060002093600060018092818801915b610a4c575b50505050835416920160ff1981541690557f125883b94692baebecad9f111ed97ffa626523bbbadc6b0ef85ee1b56b9e52d5600080a3005b8154831015610aa857610aa28493868a5416600052600983526040600020610a7482866124e7565b9054908a1b1c60005283526000600260408220610a90816127e3565b610a9b8882016127e3565b0155612597565b92610a0f565b610a14565b60405162461bcd60e51b815260048101859052601c60248201527f566572694865616c74683a206772616e74206e6f7420616374697665000000006044820152606490fd5b346101ad5760003660031901126101ad576020600854604051908152f35b346101ad5760003660031901126101ad576020600654604051908152f35b346101ad5760003660031901126101ad57604051806004548083526020809301809160046000527f8a35acfbc15ff81a39ae7d344fd709f28e8600b4aa8c65c6b64bfe7fe36bd19b9060005b86828210610bd9578686610b9082880383612283565b604051928392818401908285525180915260408401929160005b828110610bb957505050500390f35b83516001600160a01b031685528695509381019392810192600101610baa565b83546001600160a01b031685529093019260019283019201610b7a565b346101ad5760203660031901126101ad576004356004548110156101ad57610c1f6020916124b0565b905460405160039290921b1c6001600160a01b03168152f35b346101ad5760003660031901126101ad576001546040516001600160a01b039091168152602090f35b346101ad5760403660031901126101ad576001600160a01b03610c8261238a565b16600052600960205260406000206024356000526020526040600020610ca7816122a4565b6101a960ff6002610cba600186016122a4565b94015416604051938493846123a0565b346101ad5760203660031901126101ad576004356006548110156101ad57610cf3602091612463565b90546040519160031b1c8152f35b346101ad5760203660031901126101ad57610d1a61238a565b6000546001600160a01b039190610d3490831633146124ff565b16610d4081151561254b565b600180546001600160a01b031916821790557f088d16856be2ecc2505c060a3d340f119f9e4ef3a3226ad2c96904a5b6855c63600080a2005b346101ad5760003660031901126101ad576000546040516001600160a01b039091168152602090f35b346101ad576020806003193601126101ad57610dbf6004356126d5565b906000916000916006928354905b818110610ee45750610dde85612710565b93610e01610deb876126f9565b96610df96040519889612283565b8088526126f9565b8684019490601f190136863760009160005b848110610e6f57610e368888888c816040519586956040875260408701906123d2565b9185830382870152519182815201929160005b828110610e5857505050500390f35b835185528695509381019392810192600101610e49565b610e7c8199979899612463565b90549060031b1c8984610e8e836126d5565b14610ea8575b5050610e9f90612597565b97969597610e13565b9481610edc92610ebc83610e9f9699612742565b52600052600588528360406000200154610ed6828b612742565b52612597565b939089610e94565b83610f01610ef58398969798612463565b90549060031b1c6126d5565b14610f19575b610f1090612597565b94939294610dcd565b92610f26610f1091612597565b939050610f07565b346101ad5760203660031901126101ad57610f4761238a565b6000546001600160a01b03918291610f6290831633146124ff565b16908160005260038060205260ff6040600020541615611072578260005280602052604060002060ff19815416905560005b60045480821015611069578484610faa846124b0565b905490861b1c1614610fc55750610fc090612597565b610f94565b919291600019918183019182116110535761092584610fe6610ff3946124b0565b905490881b1c16916124b0565b600454801561103d570191611007836124b0565b81939154921b1b191690556004555b7f5a362b199d4fb2bd4e51a3436d86df24cb19b1b0890da774e2b54253d53aa4eb600080a2005b634e487b7160e01b600052603160045260246000fd5b634e487b7160e01b600052601160045260246000fd5b50505050611016565b60405162461bcd60e51b815260206004820152601a60248201527f566572694865616c74683a206e6f7420612064656c65676174650000000000006044820152606490fd5b346101ad5760203660031901126101ad576001600160a01b036110d861238a565b166000526003602052602060ff604060002054166040519015158152f35b346101ad5760403660031901126101ad57602061111d61111461238a565b6024359061282c565b6040519015158152f35b346101ad5760403660031901126101ad57600435611147602435826126c8565b6006548082116111b1575b5061116561116083836125a6565b612710565b91805b82811061118557604051602080825281906101a9908201876123d2565b806111926111ac92612463565b90549060031b1c610ed66111a685846125a6565b87612742565b611168565b905082611152565b346101ad5760a03660031901126101ad576044356001600160401b0381116101ad576111e9903690600401612436565b6064356001600160401b0381116101ad57611208903690600401612436565b906084356001600160401b0381116101ad57611228903690600401612436565b91909260018060a01b036000541633148015611802575b611248906125b3565b600435600052600560205260ff60056040600020015416156117af57602435600052600560205260ff6005604060002001541661175c57600435600052600560205260066040600020015495600187018711611053576004356000526005602052600560406000200160ff1981541690556040516112c581612267565b60243581526112d5368884612613565b60208201526112e5368486612613565b60408201526112f5368688612613565b6060820152426080820152600160a08201526001880160c082015260043560e082015233610100820152602435600052600560205260406000208151815560208201518051906001600160401b03821161065f578190611358600185015461222d565b601f8111611727575b50602090601f83116001146116b5576000926116aa575b50508160011b916000199060031b1c19161760018201555b60408201518051906001600160401b03821161065f5781906113b5600285015461222d565b601f8111611675575b50602090601f8311600114611603576000926115f8575b50508160011b916000199060031b1c19161760028201555b60608201518051906001600160401b03821161065f57611410600384015461222d565b601f81116115c3575b50602090601f831160011461152f5794610556946008611505999585600080516020612b6d8339815191529e9d9a966105489660019e9b600092611524575b5050818e1b916000199060031b1c19161760038201555b6080830151600482015561149860a08401511515600583019060ff801983541691151516179055565b60c0830151600682015560e0830151600782015501906101008b8060a01b03910151166001600160601b0360a01b8254161790556114d7602435612670565b6114e26004356126d5565b600052600a6020526024356040600020556040519960c08b5260c08b01916126a7565b9342606084015201608082015260043560a082015280602435930390a2005b015190503880611458565b906003840160005260206000209160005b601f19851681106115ab57509460086115059995600186600080516020612b6d8339815191529f9e9b9796829e9b966105569b61054899601f19811610611592575b505050811b01600382015561146f565b015160001960f88460031b161c19169055388080611582565b91926020600181928685015181550194019201611540565b6115f290600385016000526020600020601f850160051c8101916020861061065557601f0160051c0190612659565b8b611419565b015190508b806113d5565b9250600284016000526020600020906000935b601f198416851061165a576001945083601f19811610611641575b505050811b0160028201556113ed565b015160001960f88460031b161c191690558b8080611631565b81810151835560209485019460019093019290910190611616565b6116a490600286016000526020600020601f850160051c8101916020861061065557601f0160051c0190612659565b8c6113be565b015190508b80611378565b9250600184016000526020600020906000935b601f198416851061170c576001945083601f198116106116f3575b505050811b016001820155611390565b015160001960f88460031b161c191690558b80806116e3565b818101518355602094850194600190930192909101906116c8565b61175690600186016000526020600020601f850160051c8101916020861061065557601f0160051c0190612659565b8c611361565b60405162461bcd60e51b815260206004820152602560248201527f566572694865616c74683a206e6577207265636f726420616c72656164792065604482015264786973747360d81b6064820152608490fd5b60405162461bcd60e51b815260206004820152602560248201527f566572694865616c74683a2070726576696f7573207265636f7264206e6f7420604482015264199bdd5b9960da1b6064820152608490fd5b503360009081526003602052604090205460ff1661123f565b346101ad5760003660031901126101ad576001546001600160a01b0381163381900361192d5760ff8260a01c166118e857156118975760ff60a01b1916600160a01b1760015542600281905560405190815233907f774b57c3410c76d04ea4d51b0c15a9bac99b0e70f28fd88b53d702b5427fd31890602090a2005b60405162461bcd60e51b8152602060048201526024808201527f566572694865616c74683a206e6f20656d657267656e637920636f6e74616374604482015263081cd95d60e21b6064820152608490fd5b60405162461bcd60e51b815260206004820152601a60248201527f566572694865616c74683a20616c7265616479206163746976650000000000006044820152606490fd5b60405162461bcd60e51b815260206004820152602160248201527f566572694865616c74683a206e6f7420656d657267656e637920636f6e7461636044820152601d60fa1b6064820152608490fd5b346101ad5760a03660031901126101ad5761199561238a565b6024356001600160401b0381116101ad576119b4903690600401612406565b6064929192356001600160401b0381116101ad576119d6903690600401612406565b906084356001600160401b0381116101ad576119f6903690600401612406565b92611a0c60018060a01b036000541633146124ff565b611a206001600160a01b038716151561254b565b8415611ef957611a31818614612756565b611a3c848614612756565b60005b858110611c365787878760085491611a5683612597565b600855604051608081018181106001600160401b0382111761065f576040526001600160a01b0382168152611a8a836126f9565b90611a986040519283612283565b83825260208201368560051b8801116101ad5786905b8560051b88018210611c265750506020810191825260443560408201526001606082015284600052600760205260406000209160018060a01b038251166001600160601b0360a01b845416178355518051906001600160401b03821161065f57600160401b821161065f576001840154826001860155808310611bf9575b5060200160018401600052602060002060005b838110611be557505050509060036060836040611b7495015160028501550151151591019060ff801983541691151516179055565b60408051818152908101839052936001600160fb1b0383116101ad5784606060209686947f1f2e08a4efda97e980d4714b54d2e5079d08337efd4d9646b042c13bc5c5df7e948760051b9084840137604435828a01526001600160a01b03169560051b8101030190a3604051908152f35b600190602084519401938184015501611b3f565b600185016000526020600020908382015b8183018110611c1a575050611b2c565b60008155600101611c0a565b8135815260209182019101611aae565b611c418183866127a2565b90611c4d8388876127a2565b604051938460608101106001600160401b0360608701111761065f57611c8893611c7f91606087016040523691612613565b84523691612613565b60208201526001604082015260018060a01b038816600052600960205260406000208260051b8a013560005260205260406000209080518051906001600160401b03821161065f578190611cdc855461222d565b601f8111611ec7575b50602090601f8311600114611e5b57600092611e50575b50508160011b916000199060031b1c19161782555b6001820160208201518051906001600160401b03821161065f57611d35835461222d565b601f8111611e1e575b50602090601f8311600114611da85793611d9896959383600294604094611d9398600092611d9d575b50508160011b916000199060031b1c19161790555b0151151591019060ff801983541691151516179055565b612597565b611a3f565b015190503880611d67565b90601f198316918460005260206000209260005b818110611e06575084604094611d939894611d989b9a989460029860019510611ded575b505050811b019055611d7c565b015160001960f88460031b161c19169055388080611de0565b92936020600181928786015181550195019301611dbc565b611e4a90846000526020600020601f850160051c8101916020861061065557601f0160051c0190612659565b8d611d3e565b015190508c80611cfc565b9250846000526020600020906000935b601f1984168510611eac576001945083601f19811610611e93575b505050811b018255611d11565b015160001960f88460031b161c191690558c8080611e86565b81810151835560209485019460019093019290910190611e6b565b611ef390866000526020600020601f850160051c8101916020861061065557601f0160051c0190612659565b8d611ce5565b60405162461bcd60e51b8152602060048201526016602482015275566572694865616c74683a206e6f207265636f72647360501b6044820152606490fd5b346101ad5760003660031901126101ad576020600254604051908152f35b346101ad576020806003193601126101ad576004356000526007815260019081604060002001916040519081938491848254948581520191600052846000209060005b86868210611fc2578590611fae82870383612283565b6101a96040519282849384528301906123d2565b8354855288955090930192918101918101611f98565b346101ad5760203660031901126101ad5760043560005260076020526060604060002060018060a01b038154169060ff600360028301549201541690604051928352602083015215156040820152f35b346101ad5760203660031901126101ad5760043561205160018060a01b036000541633146124ff565b80600052600560205260ff60056040600020015416156120ab57806000526005602052600560406000200160ff1981541690557f3813d5e4633aa2a982d4b41c4798354673e514a3dde9fa140a8a32ec1c2208f1600080a2005b60405162461bcd60e51b815260206004820152601c60248201527f566572694865616c74683a207265636f7264206e6f7420666f756e64000000006044820152606490fd5b346101ad5760403660031901126101ad576001600160a01b0361211161238a565b1660005260096020526040600020602435600052602052604060002060ff600282015416906101a961214e6001612147846122a4565b93016122a4565b92604051938493846123a0565b346101ad5760203660031901126101ad5760043560005260056020526040600020805461218a600183016122a4565b91612197600282016122a4565b6121a3600383016122a4565b9160048101549260ff60058301541661220c6006840154926121fe600786015495600860018060a01b0391015416966121f06040519b8c9b8c5260208c61012091829101528c019061234a565b908a820360408c015261234a565b9088820360608a015261234a565b946080870152151560a086015260c085015260e08401526101008301520390f35b90600182811c9216801561225d575b602083101461224757565b634e487b7160e01b600052602260045260246000fd5b91607f169161223c565b61012081019081106001600160401b0382111761065f57604052565b90601f801991011681019081106001600160401b0382111761065f57604052565b90604051918260008254926122b88461222d565b90818452600194858116908160001461232757506001146122e4575b50506122e292500383612283565b565b9093915060005260209081600020936000915b81831061230f5750506122e2935082010138806122d4565b855488840185015294850194879450918301916122f7565b9150506122e294506020925060ff191682840152151560051b82010138806122d4565b919082519283825260005b848110612376575050826000602080949584010152601f8019910116010190565b602081830181015184830182015201612355565b600435906001600160a01b03821682036101ad57565b916123ca906123bc60409396959660608652606086019061234a565b90848203602086015261234a565b931515910152565b90815180825260208080930193019160005b8281106123f2575050505090565b8351855293810193928101926001016123e4565b9181601f840112156101ad578235916001600160401b0383116101ad576020808501948460051b0101116101ad57565b9181601f840112156101ad578235916001600160401b0383116101ad57602083818601950101116101ad57565b60065481101561249a5760066000527ff652222313e28459528d920b65115c16c04f3efc82aaedc97be59f3f377c0d3f0190600090565b634e487b7160e01b600052603260045260246000fd5b60045481101561249a5760046000527f8a35acfbc15ff81a39ae7d344fd709f28e8600b4aa8c65c6b64bfe7fe36bd19b0190600090565b805482101561249a5760005260206000200190600090565b1561250657565b60405162461bcd60e51b815260206004820152601f60248201527f566572694865616c74683a2063616c6c6572206973206e6f74206f776e6572006044820152606490fd5b1561255257565b60405162461bcd60e51b815260206004820152601860248201527f566572694865616c74683a207a65726f206164647265737300000000000000006044820152606490fd5b60001981146110535760010190565b9190820391821161105357565b156125ba57565b60405162461bcd60e51b815260206004820152602b60248201527f566572694865616c74683a2063616c6c6572206973206e6f74206f776e65722060448201526a6f722064656c656761746560a81b6064820152608490fd5b9291926001600160401b03821161065f576040519161263c601f8201601f191660200184612283565b8294818452818301116101ad578281602093846000960137010152565b818110612664575050565b60008155600101612659565b600654600160401b81101561065f5780600161268f9201600655612463565b819291549060031b91821b91600019901b1916179055565b908060209392818452848401376000828201840152601f01601f1916010190565b9190820180921161105357565b5b60076040600083815260056020522001549081156126f457506126d6565b905090565b6001600160401b03811161065f5760051b60200190565b9061271a826126f9565b6127276040519182612283565b8281528092612738601f19916126f9565b0190602036910137565b805182101561249a5760209160051b010190565b1561275d57565b60405162461bcd60e51b815260206004820152601b60248201527f566572694865616c74683a206c656e677468206d69736d6174636800000000006044820152606490fd5b919081101561249a5760051b81013590601e19813603018212156101ad5701908135916001600160401b0383116101ad5760200182360381136101ad579190565b6127ed815461222d565b90816127f7575050565b81601f60009311600114612809575055565b908083918252612828601f60208420940160051c840160018501612659565b5555565b600180546001600160a01b0393928416929084811684149081612911575b5061290a576008549360005b85811061286857505050505050600090565b8060005260076020526040600020600360ff8183015416156128f5578684835416036128f55760028201548015159081612900575b506128f55785600092018054925b8381106128c457505050506128bf90612597565b612856565b866128cf82846124e7565b905490851b1c146128e8576128e390612597565b6128ab565b5050505050505091505090565b50506128bf90612597565b905042113861289d565b5091505090565b60ff915060a01c163861284a565b600180546001600160a01b039283169083811682149081612b5e575b50612a8557600854916000805b848210612a19576129599150612710565b93600091825b85811061296f5750505050505090565b8060005260076020526040600020600360ff818301541615612a0457868583541603612a045760028201548015159081612a0f575b50612a045790889184600092018054925b8381106129cf5750505050506129ca90612597565b61295f565b8192939498610ed66129e4836129fa956124e7565b905490871b1c916129f481612597565b9b612742565b908a9392916129b5565b50506129ca90612597565b90504211386129a4565b81600052600760205282604060002060ff60038201541615612a6f57858882541603612a6f5760028101548015159081612a7b575b50612a6f570154612a6991612a6391906126c8565b91612597565b90612948565b505090612a6990612597565b9050421138612a4e565b505050600080600654915b828110612b135750612aa190612710565b906000805b828110612ab35750505090565b80612ac0612ae692612463565b9054600391821b1c60005260ff6005806020526040600020015416612aeb575b50612597565b612aa6565b612af482612463565b9054911b1c612b0c612b0585612597565b9487612742565b5238612ae0565b612b1c81612463565b90549060031b1c60005260ff6005806020526040600020015416612b49575b612b4490612597565b612a90565b90612b56612b4491612597565b919050612b3b565b60ff915060a01c163861293b56fe58a75328fb54ab568bebe4d096171cf279c521205b8a4a6ecb16ea22e1fd86eca2646970667358221220eccab35b3f477a4170c959942626390bc6482a7fdffa4faf98288b0a801d89e864736f6c63430008140033",
  "linkReferences": {},
  "deployedLinkReferences": {}
}